{
  "abi": [
    {
      "inputs": [
        {
          "internalType": "contract IUniswapV3Pool",
          "name": "pool",
          "type": "address"
        }
      ],
      "name": "cacheMetadataFor",
      "outputs": [],
      "stateMutability": "nonpayable",
      "type": "function"
    },
    {
      "inputs": [
        {
          "internalType": "contract IUniswapV3Pool",
          "name": "",
          "type": "address"
        }
      ],
      "name": "cachedPoolMetadata",
      "outputs": [
        {
          "internalType": "uint32",
          "name": "maxSecondsAgo",
          "type": "uint32"
        },
        {
          "internalType": "uint24",
          "name": "gamma0",
          "type": "uint24"
        },
        {
          "internalType": "uint24",
          "name": "gamma1",
          "type": "uint24"
        },
        {
          "internalType": "int24",
          "name": "tickSpacing",
          "type": "int24"
        }
      ],
      "stateMutability": "view",
      "type": "function"
    },
    {
      "inputs": [
        {
          "internalType": "contract IUniswapV3Pool",
          "name": "pool",
          "type": "address"
        }
      ],
      "name": "estimate24H",
      "outputs": [
        {
          "internalType": "uint256",
          "name": "IV",
          "type": "uint256"
        }
      ],
      "stateMutability": "nonpayable",
      "type": "function"
    },
    {
      "inputs": [
        {
          "internalType": "contract IUniswapV3Pool",
          "name": "",
          "type": "address"
        },
        {
          "internalType": "uint256",
          "name": "",
          "type": "uint256"
        }
      ],
      "name": "feeGrowthGlobals",
      "outputs": [
        {
          "internalType": "uint256",
          "name": "feeGrowthGlobal0X128",
          "type": "uint256"
        },
        {
          "internalType": "uint256",
          "name": "feeGrowthGlobal1X128",
          "type": "uint256"
        },
        {
          "internalType": "uint32",
          "name": "timestamp",
          "type": "uint32"
        }
      ],
      "stateMutability": "view",
      "type": "function"
    },
    {
      "inputs": [
        {
          "internalType": "contract IUniswapV3Pool",
          "name": "",
          "type": "address"
        }
      ],
      "name": "feeGrowthGlobalsIndices",
      "outputs": [
        {
          "internalType": "uint8",
          "name": "read",
          "type": "uint8"
        },
        {
          "internalType": "uint8",
          "name": "write",
          "type": "uint8"
        }
      ],
      "stateMutability": "view",
      "type": "function"
    },
    {
      "inputs": [
        {
          "internalType": "contract IUniswapV3Pool",
          "name": "pool",
          "type": "address"
        },
        {
          "internalType": "uint32",
          "name": "secondsAgoToStartOfTwap",
          "type": "uint32"
        },
        {
          "internalType": "uint32",
          "name": "secondsAgoToEndOfTwap",
          "type": "uint32"
        }
      ],
      "name": "getHistoricalTwap",
      "outputs": [
        {
          "internalType": "int24",
          "name": "twapTick",
          "type": "int24"
        }
      ],
      "stateMutability": "view",
      "type": "function"
    },
    {
      "inputs": [
        {
          "internalType": "contract IUniswapV3Pool",
          "name": "pool",
          "type": "address"
        }
      ],
      "name": "lens",
      "outputs": [
        {
          "internalType": "uint256[25]",
          "name": "IV",
          "type": "uint256[25]"
        }
      ],
      "stateMutability": "view",
      "type": "function"
    }
  ],
  "bytecode": {
    "object": "0x608060405234801561001057600080fd5b50612055806100206000396000f3fe608060405234801561001057600080fd5b506004361061007d5760003560e01c8063a93f24971161005b578063a93f249714610160578063b168197d146101a6578063be3438e9146101c7578063ff8a34f4146101dc57600080fd5b806338c899781461008257806353918336146100bb5780637cf1a14f146100e1575b600080fd5b610095610090366004611861565b6101fc565b60408051938452602084019290925263ffffffff16908201526060015b60405180910390f35b6100ce6100c936600461189f565b610238565b60405160029190910b81526020016100b2565b61012d6100ef3660046118ea565b60006020819052908152604090205463ffffffff81169062ffffff6401000000008204811691600160381b810490911690600160501b900460020b84565b6040805163ffffffff95909516855262ffffff9384166020860152919092169083015260020b60608201526080016100b2565b61018c61016e3660046118ea565b60026020526000908152604090205460ff8082169161010090041682565b6040805160ff9384168152929091166020830152016100b2565b6101b96101b43660046118ea565b61024e565b6040519081526020016100b2565b6101da6101d53660046118ea565b61049c565b005b6101ef6101ea3660046118ea565b610757565b6040516100b29190611907565b6001602052816000526040600020816019811061021857600080fd5b600302018054600182015460029092015490935090915063ffffffff1683565b60006102458484846108b3565b50949350505050565b6000806000836001600160a01b0316633850c7bd6040518163ffffffff1660e01b815260040160e060405180830381865afa158015610291573d6000803e3d6000fd5b505050506040513d601f19601f820116820180604052508101906102b59190611972565b505050506001600160a01b03871660009081526001602052604081209395509193506102e390508683610ad6565b905061030f60405180606001604052806000815260200160008152602001600063ffffffff1681525090565b61036687868686866000015160ff166019811061032e5761032e611a02565b604080516060810182526003929092029290920180548252600181015460208301526002015463ffffffff1691810191909152610bf9565b60208401519197509150839060ff166019811061038557610385611a02565b6003020160020160009054906101000a900463ffffffff1663ffffffff16610e1082604001516103b59190611a2e565b63ffffffff161115610454576019826020015160016103d49190611a53565b6103de9190611a8e565b60ff90811660208085019182526001600160a01b038a16600090815260019091526040902090518392166019811061041857610418611a02565b825160039190910291909101908155602082015160018201556040909101516002909101805463ffffffff191663ffffffff9092169190911790555b506001600160a01b03909516600090815260026020908152604090912086518154929097015160ff9081166101000261ffff1990931697169690961717909455509092915050565b6040805160808101825260008082526020820181905291810182905260608101919091526000806000846001600160a01b0316633850c7bd6040518163ffffffff1660e01b815260040160e060405180830381865afa158015610503573d6000803e3d6000fd5b505050506040513d601f19601f820116820180604052508101906105279190611972565b50955050945094505050600561053e868585610ea8565b610549906003611ab0565b6105539190611adc565b63ffffffff1684526040805163ddca3f4360e01b815290516000916001600160a01b0388169163ddca3f43916004808201926020929091908290030181865afa1580156105a4573d6000803e3d6000fd5b505050506040513d601f19601f820116820180604052508101906105c89190611aff565b62ffffff811660208701819052604087015290506105e7601083611a8e565b60ff1615610621576105fa601083611a8e565b6106079060ff1682611b24565b856020018181516106189190611b3a565b62ffffff169052505b600f600483901c16156106595761063f600f600484901c1682611b24565b856040018181516106509190611b3a565b62ffffff169052505b856001600160a01b031663d0c93a7c6040518163ffffffff1660e01b8152600401602060405180830381865afa158015610697573d6000803e3d6000fd5b505050506040513d601f19601f820116820180604052508101906106bb9190611b56565b60020b606086019081526001600160a01b03969096166000908152602081815260409182902087518154928901519390980151985163ffffffff90981666ffffffffffffff199092169190911764010000000062ffffff93841602176cffffffffffff000000000000001916600160381b9883169890980262ffffff60501b191697909717600160501b91909616029490941790945550505050565b61075f61182a565b600080836001600160a01b0316633850c7bd6040518163ffffffff1660e01b815260040160e060405180830381865afa1580156107a0573d6000803e3d6000fd5b505050506040513d601f19601f820116820180604052508101906107c49190611972565b505050506001600160a01b03871660009081526001602052604080822081516103208101909252949650929450929050601983835b8282101561084357604080516060810182526003840286018054825260018082015460208085019190915260029092015463ffffffff1693830193909352908352920191016107f9565b50505050905060005b60198160ff1610156108aa5761087d868585858560ff166019811061087357610873611a02565b6020020151610bf9565b50858260ff166019811061089357610893611a02565b6020020152806108a281611b71565b91505061084c565b50505050919050565b6000808263ffffffff168463ffffffff16116108fb5760405162461bcd60e51b8152602060048201526002602482015261042560f41b60448201526064015b60405180910390fd5b60408051600280825260608201835260009260208301908036833701905050905060006109288587611a2e565b9050858260008151811061093e5761093e611a02565b602002602001019063ffffffff16908163ffffffff1681525050848260018151811061096c5761096c611a02565b602002602001019063ffffffff16908163ffffffff1681525050600080886001600160a01b031663883bdbfd856040518263ffffffff1660e01b81526004016109b59190611ba7565b600060405180830381865afa1580156109d2573d6000803e3d6000fd5b505050506040513d6000823e601f3d908101601f191682016040526109fa9190810190611ccc565b91509150600082600081518110610a1357610a13611a02565b602002602001015183600181518110610a2e57610a2e611a02565b6020026020010151610a409190611d8f565b9050610a50600385900b82611ddf565b965060008160060b128015610a745750610a6e600385900b82611e1d565b60060b15155b15610a875786610a8381611e3f565b9750505b81600081518110610a9a57610a9a611a02565b602002602001015182600181518110610ab557610ab5611a02565b6020026020010151610ac79190611e63565b95505050505050935093915050565b604080518082018252600080825260208083018290526001600160a01b03861682526002815283822084518086019095525460ff8082168087526101009092041691850191909152919291610b5490859060198110610b3757610b37611a02565b6003020160020154610b4f9063ffffffff1642611e83565b610ffa565b8251909150600090610b67906001611a53565b90505b8251610b77906019611a53565b60ff168160ff161015610bed576000610b91601983611a8e565b90506000610bad878360ff1660198110610b3757610b37611a02565b90508363ffffffff168163ffffffff161015610bd15760ff82168552925082610bd8565b5050610bed565b50508080610be590611b71565b915050610b6a565b50909150505b92915050565b604080516060810182526000808252602082018190529181018290526001600160a01b038616600090815260208181526040918290208251608081018452905463ffffffff811680835262ffffff6401000000008304811694840194909452600160381b820490931693820193909352600160501b90920460020b6060830152610e10811015610ccb5760405162461bcd60e51b815260206004820152601760248201527f5370696e646c653a206e656564206d6f7265206461746100000000000000000060448201526064016108f2565b620151808163ffffffff161115610ce25750620151805b600080610cf18a8460006108b3565b9150915060405180606001604052808b6001600160a01b031663f30583996040518163ffffffff1660e01b8152600401602060405180830381865afa158015610d3e573d6000803e3d6000fd5b505050506040513d601f19601f82011682018060405250810190610d629190611e9a565b81526020018b6001600160a01b031663461413196040518163ffffffff1660e01b8152600401602060405180830381865afa158015610da5573d6000803e3d6000fd5b505050506040513d601f19601f82011682018060405250810190610dc99190611e9a565b81526020014263ffffffff168152509450610e99846040518060c001604052808c6001600160a01b031681526020018b60020b81526020018560020b8152602001846001600160a01b031681526020018663ffffffff1681526020018d6001600160a01b0316631a6865026040518163ffffffff1660e01b8152600401602060405180830381865afa158015610e63573d6000803e3d6000fd5b505050506040513d601f19601f82011682018060405250810190610e879190611eb3565b6001600160801b031690528988611025565b95505050505094509492505050565b600061ffff8216610ee05760405162461bcd60e51b81526020600482015260026024820152614e4960f01b60448201526064016108f2565b600080856001600160a01b031663252c09d78561ffff168760010161ffff1681610f0c57610f0c611a78565b066040518263ffffffff1660e01b8152600401610f33919061ffff91909116815260200190565b608060405180830381865afa158015610f50573d6000803e3d6000fd5b505050506040513d601f19601f82011682018060405250810190610f749190611edc565b93505050915080610fef5760405163252c09d760e01b8152600060048201526001600160a01b0387169063252c09d790602401608060405180830381865afa158015610fc4573d6000803e3d6000fd5b505050506040513d601f19601f82011682018060405250810190610fe89190611edc565b5091935050505b504203949350505050565b6000620151808210611018576110136201518083611e83565b610bf3565b610bf38262015180611e83565b600080600061104b85600001518560000151886060015189608001518b60400151611152565b905060006110708660200151866020015189606001518a608001518c60200151611152565b90506110808288604001516111bb565b611093906001600160801b038316611f34565b9250505060006110bd6110b88860600151886020015189600001518a60a0015161120f565b611263565b905060006110f3866040015186604001516110d89190611a2e565b6110b89063ffffffff166a0151800000000000000000611f4c565b90506001600160801b03821661110f576000935050505061114a565b816001600160801b031661112284611263565b8265ffffffffffff16671bc16d674ec8000002028161114357611143611a78565b0493505050505b949350505050565b600080868610611165575085850361116b565b50851985015b611191818462ffffff16860263ffffffff1687620f4240026001600160a01b0316611307565b90506001600160801b0381116111a757806111b0565b6001600160801b035b979650505050505050565b6000806111c7836113f7565b905060006111e36001600160a01b03831680600160601b611307565b9050611206856001600160801b0316826001600160e01b0316600160601b611307565b95945050505050565b600061121b848661173d565b93506000806112458561122d886113f7565b61123f61123a8b8b611f60565b6113f7565b87611769565b909250905060406112568284611f34565b901b979650505050505050565b60b581600160881b811061127c5760409190911b9060801c5b690100000000000000000081106112985760209190911b9060401c5b6501000000000081106112b05760109190911b9060201c5b630100000081106112c65760089190911b9060101c5b62010000010260121c80820401600190811c80830401811c80830401811c80830401811c80830401811c80830401811c80830401901c908190048111900390565b6000816113435760405162461bcd60e51b815260206004820152600a602482015269044656e6f6d20213d20360b41b60448201526064016108f2565b600080600019858709858702925082811083820303915050806000141561137c576000841161137157600080fd5b5082900490506113f0565b80841161138857600080fd5b600084868809851960019081018716968790049682860381900495909211909303600082900391909104909201919091029190911760038402600290811880860282030280860282030280860282030280860282030280860282030280860290910302029150505b9392505050565b60008060008360020b1261140e578260020b61141b565b8260020b61141b90611fa7565b905061142a620d89e719611fc4565b62ffffff168111156114625760405162461bcd60e51b81526020600482015260016024820152601560fa1b60448201526064016108f2565b60006001821661147657600160801b611488565b6ffffcb933bd6fad37aa2d162d1a5940015b70ffffffffffffffffffffffffffffffffff16905060028216156114bc576ffff97272373d413259a46990580e213a0260801c5b60048216156114db576ffff2e50f5f656932ef12357cf3c7fdcc0260801c5b60088216156114fa576fffe5caca7e10e4e61c3624eaa0941cd00260801c5b6010821615611519576fffcb9843d60f6159c9db58835c9266440260801c5b6020821615611538576fff973b41fa98c081472e6896dfb254c00260801c5b6040821615611557576fff2ea16466c96a3843ec78b326b528610260801c5b6080821615611576576ffe5dee046a99a2a811c461f1969c30530260801c5b610100821615611596576ffcbe86c7900a88aedcffc83b479aa3a40260801c5b6102008216156115b6576ff987a7253ac413176f2b074cf7815e540260801c5b6104008216156115d6576ff3392b0822b70005940c7a398e4b70f30260801c5b6108008216156115f6576fe7159475a2c29b7443b29c7fa6e889d90260801c5b611000821615611616576fd097f3bdfd2022b8845ad8f792aa58250260801c5b612000821615611636576fa9f746462d870fdf8a65dc1f90e061e50260801c5b614000821615611656576f70d869a156d2a1b890bb3df62baf32f70260801c5b618000821615611676576f31be135f97d08fd981231505542fcfa60260801c5b62010000821615611697576f09aa508b5b7a84e1c677de54f3e99bc90260801c5b620200008216156116b7576e5d6af8dedb81196699c329225ee6040260801c5b620400008216156116d6576d2216e584f5fa1ea926041bedfe980260801c5b620800008216156116f3576b048a170391f7dc42444e8fa20260801c5b60008460020b131561171457806000198161171057611710611a78565b0490505b64010000000081061561172857600161172b565b60005b60ff16602082901c0192505050919050565b60008061174a8385611fe7565b905060008160020b126117605783039050610bf3565b90920303919050565b600080856001600160a01b0316856001600160a01b0316111580156117a05750836001600160a01b0316866001600160a01b031611155b6117ac576117ac612009565b60006117d1876001600160a01b03168887036001600160a01b0316600160601b611307565b90506117f9846001600160801b0316826001600160e01b0316876001600160a01b0316611307565b925061181e846001600160801b03168789036001600160a01b0316600160601b611307565b91505094509492505050565b6040518061032001604052806019906020820280368337509192915050565b6001600160a01b038116811461185e57600080fd5b50565b6000806040838503121561187457600080fd5b823561187f81611849565b946020939093013593505050565b63ffffffff8116811461185e57600080fd5b6000806000606084860312156118b457600080fd5b83356118bf81611849565b925060208401356118cf8161188d565b915060408401356118df8161188d565b809150509250925092565b6000602082840312156118fc57600080fd5b81356113f081611849565b6103208101818360005b6019811015611930578151835260209283019290910190600101611911565b50505092915050565b8051600281900b811461194b57600080fd5b919050565b805161ffff8116811461194b57600080fd5b8051801515811461194b57600080fd5b600080600080600080600060e0888a03121561198d57600080fd5b875161199881611849565b96506119a660208901611939565b95506119b460408901611950565b94506119c260608901611950565b93506119d060808901611950565b925060a088015160ff811681146119e657600080fd5b91506119f460c08901611962565b905092959891949750929550565b634e487b7160e01b600052603260045260246000fd5b634e487b7160e01b600052601160045260246000fd5b600063ffffffff83811690831681811015611a4b57611a4b611a18565b039392505050565b600060ff821660ff84168060ff03821115611a7057611a70611a18565b019392505050565b634e487b7160e01b600052601260045260246000fd5b600060ff831680611aa157611aa1611a78565b8060ff84160691505092915050565b600063ffffffff80831681851681830481118215151615611ad357611ad3611a18565b02949350505050565b600063ffffffff80841680611af357611af3611a78565b92169190910492915050565b600060208284031215611b1157600080fd5b815162ffffff811681146113f057600080fd5b600062ffffff80841680611af357611af3611a78565b600062ffffff83811690831681811015611a4b57611a4b611a18565b600060208284031215611b6857600080fd5b6113f082611939565b600060ff821660ff811415611b8857611b88611a18565b60010192915050565b634e487b7160e01b600052604160045260246000fd5b6020808252825182820181905260009190848201906040850190845b81811015611be557835163ffffffff1683529284019291840191600101611bc3565b50909695505050505050565b604051601f8201601f1916810167ffffffffffffffff81118282101715611c1a57611c1a611b91565b604052919050565b600067ffffffffffffffff821115611c3c57611c3c611b91565b5060051b60200190565b8051600681900b811461194b57600080fd5b600082601f830112611c6957600080fd5b81516020611c7e611c7983611c22565b611bf1565b82815260059290921b84018101918181019086841115611c9d57600080fd5b8286015b84811015611cc1578051611cb481611849565b8352918301918301611ca1565b509695505050505050565b60008060408385031215611cdf57600080fd5b825167ffffffffffffffff80821115611cf757600080fd5b818501915085601f830112611d0b57600080fd5b81516020611d1b611c7983611c22565b82815260059290921b84018101918181019089841115611d3a57600080fd5b948201945b83861015611d5f57611d5086611c46565b82529482019490820190611d3f565b91880151919650909350505080821115611d7857600080fd5b50611d8585828601611c58565b9150509250929050565b60008160060b8360060b6000811281667fffffffffffff1901831281151615611dba57611dba611a18565b81667fffffffffffff018313811615611dd557611dd5611a18565b5090039392505050565b60008160060b8360060b80611df657611df6611a78565b667fffffffffffff19821460001982141615611e1457611e14611a18565b90059392505050565b60008260060b80611e3057611e30611a78565b808360060b0791505092915050565b60008160020b627fffff19811415611e5957611e59611a18565b6000190192915050565b60006001600160a01b0383811690831681811015611a4b57611a4b611a18565b600082821015611e9557611e95611a18565b500390565b600060208284031215611eac57600080fd5b5051919050565b600060208284031215611ec557600080fd5b81516001600160801b03811681146113f057600080fd5b60008060008060808587031215611ef257600080fd5b8451611efd8161188d565b9350611f0b60208601611c46565b92506040850151611f1b81611849565b9150611f2960608601611962565b905092959194509250565b60008219821115611f4757611f47611a18565b500190565b600082611f5b57611f5b611a78565b500490565b60008160020b8360020b6000821282627fffff03821381151615611f8657611f86611a18565b82627fffff19038212811615611f9e57611f9e611a18565b50019392505050565b6000600160ff1b821415611fbd57611fbd611a18565b5060000390565b60008160020b627fffff19811415611fde57611fde611a18565b60000392915050565b60008260020b80611ffa57611ffa611a78565b808360020b0791505092915050565b634e487b7160e01b600052600160045260246000fdfea2646970667358221220dfa4e5c7d267106d901f527f77b866513f1d21223942e2539bea9e1e2f8ab79764736f6c634300080a0033",
    "linkReferences": {}
  },
  "methodIdentifiers": {
    "cacheMetadataFor(address)": "be3438e9",
    "cachedPoolMetadata(address)": "7cf1a14f",
    "estimate24H(address)": "b168197d",
    "feeGrowthGlobals(address,uint256)": "38c89978",
    "feeGrowthGlobalsIndices(address)": "a93f2497",
    "getHistoricalTwap(address,uint32,uint32)": "53918336",
    "lens(address)": "ff8a34f4"
  },
  "id": 41
}