{
  "abi": [
    {
      "inputs": [
        {
          "internalType": "contract IUniswapV3Pool",
          "name": "pool",
          "type": "address"
        }
      ],
      "name": "cacheMetadataFor",
      "outputs": [],
      "stateMutability": "nonpayable",
      "type": "function"
    },
    {
      "inputs": [
        {
          "internalType": "contract IUniswapV3Pool",
          "name": "",
          "type": "address"
        }
      ],
      "name": "cachedPoolMetadata",
      "outputs": [
        {
          "internalType": "uint32",
          "name": "maxSecondsAgo",
          "type": "uint32"
        },
        {
          "internalType": "uint24",
          "name": "gamma0",
          "type": "uint24"
        },
        {
          "internalType": "uint24",
          "name": "gamma1",
          "type": "uint24"
        },
        {
          "internalType": "int24",
          "name": "tickSpacing",
          "type": "int24"
        }
      ],
      "stateMutability": "view",
      "type": "function"
    },
    {
      "inputs": [
        {
          "internalType": "contract IUniswapV3Pool",
          "name": "pool",
          "type": "address"
        }
      ],
      "name": "estimate24H",
      "outputs": [
        {
          "internalType": "uint256",
          "name": "IV",
          "type": "uint256"
        }
      ],
      "stateMutability": "nonpayable",
      "type": "function"
    },
    {
      "inputs": [
        {
          "internalType": "contract IUniswapV3Pool",
          "name": "",
          "type": "address"
        },
        {
          "internalType": "uint256",
          "name": "",
          "type": "uint256"
        }
      ],
      "name": "feeGrowthGlobals",
      "outputs": [
        {
          "internalType": "uint256",
          "name": "feeGrowthGlobal0X128",
          "type": "uint256"
        },
        {
          "internalType": "uint256",
          "name": "feeGrowthGlobal1X128",
          "type": "uint256"
        },
        {
          "internalType": "uint32",
          "name": "timestamp",
          "type": "uint32"
        }
      ],
      "stateMutability": "view",
      "type": "function"
    },
    {
      "inputs": [
        {
          "internalType": "contract IUniswapV3Pool",
          "name": "",
          "type": "address"
        }
      ],
      "name": "feeGrowthGlobalsIndices",
      "outputs": [
        {
          "internalType": "uint8",
          "name": "read",
          "type": "uint8"
        },
        {
          "internalType": "uint8",
          "name": "write",
          "type": "uint8"
        }
      ],
      "stateMutability": "view",
      "type": "function"
    },
    {
      "inputs": [
        {
          "internalType": "contract IUniswapV3Pool",
          "name": "pool",
          "type": "address"
        },
        {
          "internalType": "uint32",
          "name": "secondsAgoToStartOfTwap",
          "type": "uint32"
        },
        {
          "internalType": "uint32",
          "name": "secondsAgoToEndOfTwap",
          "type": "uint32"
        }
      ],
      "name": "getHistoricalTwap",
      "outputs": [
        {
          "internalType": "int24",
          "name": "twapTick",
          "type": "int24"
        }
      ],
      "stateMutability": "view",
      "type": "function"
    },
    {
      "inputs": [
        {
          "internalType": "contract IUniswapV3Pool",
          "name": "pool",
          "type": "address"
        }
      ],
      "name": "lens",
      "outputs": [
        {
          "internalType": "uint256[25]",
          "name": "IV",
          "type": "uint256[25]"
        }
      ],
      "stateMutability": "view",
      "type": "function"
    }
  ],
  "bytecode": {
    "object": "0x608060405234801561001057600080fd5b50611ffd806100206000396000f3fe608060405234801561001057600080fd5b506004361061007d5760003560e01c8063a93f24971161005b578063a93f249714610160578063b168197d146101a6578063be3438e9146101c7578063ff8a34f4146101dc57600080fd5b806338c899781461008257806353918336146100bb5780637cf1a14f146100e1575b600080fd5b61009561009036600461186c565b6101fc565b60408051938452602084019290925263ffffffff16908201526060015b60405180910390f35b6100ce6100c93660046118aa565b610238565b60405160029190910b81526020016100b2565b61012d6100ef3660046118f5565b60006020819052908152604090205463ffffffff81169062ffffff6401000000008204811691600160381b810490911690600160501b900460020b84565b6040805163ffffffff95909516855262ffffff9384166020860152919092169083015260020b60608201526080016100b2565b61018c61016e3660046118f5565b60026020526000908152604090205460ff8082169161010090041682565b6040805160ff9384168152929091166020830152016100b2565b6101b96101b43660046118f5565b61024e565b6040519081526020016100b2565b6101da6101d53660046118f5565b61049c565b005b6101ef6101ea3660046118f5565b610757565b6040516100b29190611912565b6001602052816000526040600020816019811061021857600080fd5b600302018054600182015460029092015490935090915063ffffffff1683565b60006102458484846108b3565b50949350505050565b6000806000836001600160a01b0316633850c7bd6040518163ffffffff1660e01b815260040160e060405180830381865afa158015610291573d6000803e3d6000fd5b505050506040513d601f19601f820116820180604052508101906102b5919061197d565b505050506001600160a01b03871660009081526001602052604081209395509193506102e390508683610ad6565b905061030f60405180606001604052806000815260200160008152602001600063ffffffff1681525090565b61036687868686866000015160ff166019811061032e5761032e611a0d565b604080516060810182526003929092029290920180548252600181015460208301526002015463ffffffff1691810191909152610bf9565b60208401519197509150839060ff166019811061038557610385611a0d565b6003020160020160009054906101000a900463ffffffff1663ffffffff16610e1082604001516103b59190611a39565b63ffffffff161115610454576019826020015160016103d49190611a5d565b6103de9190611a8c565b60ff90811660208085019182526001600160a01b038a16600090815260019091526040902090518392166019811061041857610418611a0d565b825160039190910291909101908155602082015160018201556040909101516002909101805463ffffffff191663ffffffff9092169190911790555b506001600160a01b03909516600090815260026020908152604090912086518154929097015160ff9081166101000261ffff1990931697169690961717909455509092915050565b6040805160808101825260008082526020820181905291810182905260608101919091526000806000846001600160a01b0316633850c7bd6040518163ffffffff1660e01b815260040160e060405180830381865afa158015610503573d6000803e3d6000fd5b505050506040513d601f19601f82011682018060405250810190610527919061197d565b50955050945094505050600561053e868585610ea8565b610549906003611aae565b6105539190611ad6565b63ffffffff1684526040805163ddca3f4360e01b815290516000916001600160a01b0388169163ddca3f43916004808201926020929091908290030181865afa1580156105a4573d6000803e3d6000fd5b505050506040513d601f19601f820116820180604052508101906105c89190611af9565b62ffffff811660208701819052604087015290506105e7601083611a8c565b60ff1615610621576105fa601083611a8c565b6106079060ff1682611b1e565b856020018181516106189190611b34565b62ffffff169052505b600f600483901c16156106595761063f600f600484901c1682611b1e565b856040018181516106509190611b34565b62ffffff169052505b856001600160a01b031663d0c93a7c6040518163ffffffff1660e01b8152600401602060405180830381865afa158015610697573d6000803e3d6000fd5b505050506040513d601f19601f820116820180604052508101906106bb9190611b50565b60020b606086019081526001600160a01b03969096166000908152602081815260409182902087518154928901519390980151985163ffffffff90981666ffffffffffffff199092169190911764010000000062ffffff93841602176cffffffffffff000000000000001916600160381b9883169890980262ffffff60501b191697909717600160501b91909616029490941790945550505050565b61075f611835565b600080836001600160a01b0316633850c7bd6040518163ffffffff1660e01b815260040160e060405180830381865afa1580156107a0573d6000803e3d6000fd5b505050506040513d601f19601f820116820180604052508101906107c4919061197d565b505050506001600160a01b03871660009081526001602052604080822081516103208101909252949650929450929050601983835b8282101561084357604080516060810182526003840286018054825260018082015460208085019190915260029092015463ffffffff1693830193909352908352920191016107f9565b50505050905060005b60198160ff1610156108aa5761087d868585858560ff166019811061087357610873611a0d565b6020020151610bf9565b50858260ff166019811061089357610893611a0d565b6020020152806108a281611b6b565b91505061084c565b50505050919050565b6000808263ffffffff168463ffffffff16116108fb5760405162461bcd60e51b8152602060048201526002602482015261042560f41b60448201526064015b60405180910390fd5b60408051600280825260608201835260009260208301908036833701905050905060006109288587611a39565b9050858260008151811061093e5761093e611a0d565b602002602001019063ffffffff16908163ffffffff1681525050848260018151811061096c5761096c611a0d565b602002602001019063ffffffff16908163ffffffff1681525050600080886001600160a01b031663883bdbfd856040518263ffffffff1660e01b81526004016109b59190611ba0565b600060405180830381865afa1580156109d2573d6000803e3d6000fd5b505050506040513d6000823e601f3d908101601f191682016040526109fa9190810190611cc5565b91509150600082600081518110610a1357610a13611a0d565b602002602001015183600181518110610a2e57610a2e611a0d565b6020026020010151610a409190611d88565b9050610a50600385900b82611db5565b965060008160060b128015610a745750610a6e600385900b82611df3565b60060b15155b15610a875786610a8381611e15565b9750505b81600081518110610a9a57610a9a611a0d565b602002602001015182600181518110610ab557610ab5611a0d565b6020026020010151610ac79190611e38565b95505050505050935093915050565b604080518082018252600080825260208083018290526001600160a01b03861682526002815283822084518086019095525460ff8082168087526101009092041691850191909152919291610b5490859060198110610b3757610b37611a0d565b6003020160020154610b4f9063ffffffff1642611e58565b610ffd565b8251909150600090610b67906001611a5d565b90505b8251610b77906019611a5d565b60ff168160ff161015610bed576000610b91601983611a8c565b90506000610bad878360ff1660198110610b3757610b37611a0d565b90508363ffffffff168163ffffffff161015610bd15760ff82168552925082610bd8565b5050610bed565b50508080610be590611b6b565b915050610b6a565b50909150505b92915050565b604080516060810182526000808252602082018190529181018290526001600160a01b038616600090815260208181526040918290208251608081018452905463ffffffff811680835262ffffff6401000000008304811694840194909452600160381b820490931693820193909352600160501b90920460020b6060830152610e10811015610ccb5760405162461bcd60e51b815260206004820152601760248201527f5370696e646c653a206e656564206d6f7265206461746100000000000000000060448201526064016108f2565b620151808163ffffffff161115610ce25750620151805b600080610cf18a8460006108b3565b9150915060405180606001604052808b6001600160a01b031663f30583996040518163ffffffff1660e01b8152600401602060405180830381865afa158015610d3e573d6000803e3d6000fd5b505050506040513d601f19601f82011682018060405250810190610d629190611e6b565b81526020018b6001600160a01b031663461413196040518163ffffffff1660e01b8152600401602060405180830381865afa158015610da5573d6000803e3d6000fd5b505050506040513d601f19601f82011682018060405250810190610dc99190611e6b565b81526020014263ffffffff168152509450610e99846040518060c001604052808c6001600160a01b031681526020018b60020b81526020018560020b8152602001846001600160a01b031681526020018663ffffffff1681526020018d6001600160a01b0316631a6865026040518163ffffffff1660e01b8152600401602060405180830381865afa158015610e63573d6000803e3d6000fd5b505050506040513d601f19601f82011682018060405250810190610e879190611e84565b6001600160801b031690528988611028565b95505050505094509492505050565b60008161ffff16600003610ee35760405162461bcd60e51b81526020600482015260026024820152614e4960f01b60448201526064016108f2565b600080856001600160a01b031663252c09d78561ffff168760010161ffff1681610f0f57610f0f611a76565b066040518263ffffffff1660e01b8152600401610f36919061ffff91909116815260200190565b608060405180830381865afa158015610f53573d6000803e3d6000fd5b505050506040513d601f19601f82011682018060405250810190610f779190611ead565b93505050915080610ff25760405163252c09d760e01b8152600060048201526001600160a01b0387169063252c09d790602401608060405180830381865afa158015610fc7573d6000803e3d6000fd5b505050506040513d601f19601f82011682018060405250810190610feb9190611ead565b5091935050505b504203949350505050565b600062015180821061101b576110166201518083611e58565b610bf3565b610bf38262015180611e58565b600080600061104e85600001518560000151886060015189608001518b60400151611158565b905060006110738660200151866020015189606001518a608001518c60200151611158565b90506110838288604001516111c1565b611096906001600160801b038316611f05565b9250505060006110c06110bb8860600151886020015189600001518a60a00151611215565b611269565b905060006110f6866040015186604001516110db9190611a39565b6110bb9063ffffffff166a0151800000000000000000611f18565b9050816001600160801b03166000036111155760009350505050611150565b816001600160801b031661112884611269565b8265ffffffffffff16671bc16d674ec8000002028161114957611149611a76565b0493505050505b949350505050565b60008086861061116b5750858503611171565b50851985015b611197818462ffffff16860263ffffffff1687620f4240026001600160a01b031661130d565b90506001600160801b0381116111ad57806111b6565b6001600160801b035b979650505050505050565b6000806111cd836113ff565b905060006111e96001600160a01b03831680600160601b61130d565b905061120c856001600160801b0316826001600160e01b0316600160601b61130d565b95945050505050565b60006112218486611748565b935060008061124b85611233886113ff565b6112456112408b8b611f2c565b6113ff565b87611774565b9092509050604061125c8284611f05565b901b979650505050505050565b60b581600160881b81106112825760409190911b9060801c5b6901000000000000000000811061129e5760209190911b9060401c5b6501000000000081106112b65760109190911b9060201c5b630100000081106112cc5760089190911b9060101c5b62010000010260121c80820401600190811c80830401811c80830401811c80830401811c80830401811c80830401811c80830401901c908190048111900390565b60008160000361134c5760405162461bcd60e51b815260206004820152600a602482015269044656e6f6d20213d20360b41b60448201526064016108f2565b60008060001985870985870292508281108382030391505080600003611384576000841161137957600080fd5b5082900490506113f8565b80841161139057600080fd5b600084868809851960019081018716968790049682860381900495909211909303600082900391909104909201919091029190911760038402600290811880860282030280860282030280860282030280860282030280860282030280860290910302029150505b9392505050565b60008060008360020b12611416578260020b611423565b8260020b61142390611f51565b9050611432620d89e719611f6d565b62ffffff1681111561146a5760405162461bcd60e51b81526020600482015260016024820152601560fa1b60448201526064016108f2565b60008160011660000361148157600160801b611493565b6ffffcb933bd6fad37aa2d162d1a5940015b70ffffffffffffffffffffffffffffffffff16905060028216156114c7576ffff97272373d413259a46990580e213a0260801c5b60048216156114e6576ffff2e50f5f656932ef12357cf3c7fdcc0260801c5b6008821615611505576fffe5caca7e10e4e61c3624eaa0941cd00260801c5b6010821615611524576fffcb9843d60f6159c9db58835c9266440260801c5b6020821615611543576fff973b41fa98c081472e6896dfb254c00260801c5b6040821615611562576fff2ea16466c96a3843ec78b326b528610260801c5b6080821615611581576ffe5dee046a99a2a811c461f1969c30530260801c5b6101008216156115a1576ffcbe86c7900a88aedcffc83b479aa3a40260801c5b6102008216156115c1576ff987a7253ac413176f2b074cf7815e540260801c5b6104008216156115e1576ff3392b0822b70005940c7a398e4b70f30260801c5b610800821615611601576fe7159475a2c29b7443b29c7fa6e889d90260801c5b611000821615611621576fd097f3bdfd2022b8845ad8f792aa58250260801c5b612000821615611641576fa9f746462d870fdf8a65dc1f90e061e50260801c5b614000821615611661576f70d869a156d2a1b890bb3df62baf32f70260801c5b618000821615611681576f31be135f97d08fd981231505542fcfa60260801c5b620100008216156116a2576f09aa508b5b7a84e1c677de54f3e99bc90260801c5b620200008216156116c2576e5d6af8dedb81196699c329225ee6040260801c5b620400008216156116e1576d2216e584f5fa1ea926041bedfe980260801c5b620800008216156116fe576b048a170391f7dc42444e8fa20260801c5b60008460020b131561171f57806000198161171b5761171b611a76565b0490505b640100000000810615611733576001611736565b60005b60ff16602082901c0192505050919050565b6000806117558385611f8f565b905060008160020b1261176b5783039050610bf3565b90920303919050565b600080856001600160a01b0316856001600160a01b0316111580156117ab5750836001600160a01b0316866001600160a01b031611155b6117b7576117b7611fb1565b60006117dc876001600160a01b03168887036001600160a01b0316600160601b61130d565b9050611804846001600160801b0316826001600160e01b0316876001600160a01b031661130d565b9250611829846001600160801b03168789036001600160a01b0316600160601b61130d565b91505094509492505050565b6040518061032001604052806019906020820280368337509192915050565b6001600160a01b038116811461186957600080fd5b50565b6000806040838503121561187f57600080fd5b823561188a81611854565b946020939093013593505050565b63ffffffff8116811461186957600080fd5b6000806000606084860312156118bf57600080fd5b83356118ca81611854565b925060208401356118da81611898565b915060408401356118ea81611898565b809150509250925092565b60006020828403121561190757600080fd5b81356113f881611854565b6103208101818360005b601981101561193b57815183526020928301929091019060010161191c565b50505092915050565b8051600281900b811461195657600080fd5b919050565b805161ffff8116811461195657600080fd5b8051801515811461195657600080fd5b600080600080600080600060e0888a03121561199857600080fd5b87516119a381611854565b96506119b160208901611944565b95506119bf6040890161195b565b94506119cd6060890161195b565b93506119db6080890161195b565b925060a088015160ff811681146119f157600080fd5b91506119ff60c0890161196d565b905092959891949750929550565b634e487b7160e01b600052603260045260246000fd5b634e487b7160e01b600052601160045260246000fd5b63ffffffff828116828216039080821115611a5657611a56611a23565b5092915050565b60ff8181168382160190811115610bf357610bf3611a23565b634e487b7160e01b600052601260045260246000fd5b600060ff831680611a9f57611a9f611a76565b8060ff84160691505092915050565b63ffffffff818116838216028082169190828114611ace57611ace611a23565b505092915050565b600063ffffffff80841680611aed57611aed611a76565b92169190910492915050565b600060208284031215611b0b57600080fd5b815162ffffff811681146113f857600080fd5b600062ffffff80841680611aed57611aed611a76565b62ffffff828116828216039080821115611a5657611a56611a23565b600060208284031215611b6257600080fd5b6113f882611944565b600060ff821660ff8103611b8157611b81611a23565b60010192915050565b634e487b7160e01b600052604160045260246000fd5b6020808252825182820181905260009190848201906040850190845b81811015611bde57835163ffffffff1683529284019291840191600101611bbc565b50909695505050505050565b604051601f8201601f1916810167ffffffffffffffff81118282101715611c1357611c13611b8a565b604052919050565b600067ffffffffffffffff821115611c3557611c35611b8a565b5060051b60200190565b8051600681900b811461195657600080fd5b600082601f830112611c6257600080fd5b81516020611c77611c7283611c1b565b611bea565b82815260059290921b84018101918181019086841115611c9657600080fd5b8286015b84811015611cba578051611cad81611854565b8352918301918301611c9a565b509695505050505050565b60008060408385031215611cd857600080fd5b825167ffffffffffffffff80821115611cf057600080fd5b818501915085601f830112611d0457600080fd5b81516020611d14611c7283611c1b565b82815260059290921b84018101918181019089841115611d3357600080fd5b948201945b83861015611d5857611d4986611c3f565b82529482019490820190611d38565b91880151919650909350505080821115611d7157600080fd5b50611d7e85828601611c51565b9150509250929050565b600682810b9082900b03667fffffffffffff198112667fffffffffffff82131715610bf357610bf3611a23565b60008160060b8360060b80611dcc57611dcc611a76565b667fffffffffffff19821460001982141615611dea57611dea611a23565b90059392505050565b60008260060b80611e0657611e06611a76565b808360060b0791505092915050565b60008160020b627fffff198103611e2e57611e2e611a23565b6000190192915050565b6001600160a01b03828116828216039080821115611a5657611a56611a23565b81810381811115610bf357610bf3611a23565b600060208284031215611e7d57600080fd5b5051919050565b600060208284031215611e9657600080fd5b81516001600160801b03811681146113f857600080fd5b60008060008060808587031215611ec357600080fd5b8451611ece81611898565b9350611edc60208601611c3f565b92506040850151611eec81611854565b9150611efa6060860161196d565b905092959194509250565b80820180821115610bf357610bf3611a23565b600082611f2757611f27611a76565b500490565b600281810b9083900b01627fffff8113627fffff1982121715610bf357610bf3611a23565b6000600160ff1b8201611f6657611f66611a23565b5060000390565b60008160020b627fffff198103611f8657611f86611a23565b60000392915050565b60008260020b80611fa257611fa2611a76565b808360020b0791505092915050565b634e487b7160e01b600052600160045260246000fdfea264697066735822122076db76aed1756f6acb75da622c32077f4f287f6f503b8bb15c6891563234601164736f6c63430008110033",
    "linkReferences": {}
  },
  "methodIdentifiers": {
    "cacheMetadataFor(address)": "be3438e9",
    "cachedPoolMetadata(address)": "7cf1a14f",
    "estimate24H(address)": "b168197d",
    "feeGrowthGlobals(address,uint256)": "38c89978",
    "feeGrowthGlobalsIndices(address)": "a93f2497",
    "getHistoricalTwap(address,uint32,uint32)": "53918336",
    "lens(address)": "ff8a34f4"
  },
  "id": 39
}