{
  "abi": [
    {
      "inputs": [],
      "stateMutability": "nonpayable",
      "type": "constructor"
    },
    {
      "anonymous": false,
      "inputs": [
        {
          "indexed": true,
          "internalType": "address",
          "name": "owner",
          "type": "address"
        },
        {
          "indexed": true,
          "internalType": "address",
          "name": "spender",
          "type": "address"
        },
        {
          "indexed": false,
          "internalType": "uint256",
          "name": "value",
          "type": "uint256"
        }
      ],
      "name": "Approval",
      "type": "event"
    },
    {
      "anonymous": false,
      "inputs": [
        {
          "indexed": false,
          "internalType": "uint8",
          "name": "version",
          "type": "uint8"
        }
      ],
      "name": "Initialized",
      "type": "event"
    },
    {
      "anonymous": false,
      "inputs": [
        {
          "indexed": true,
          "internalType": "address",
          "name": "from",
          "type": "address"
        },
        {
          "indexed": true,
          "internalType": "address",
          "name": "to",
          "type": "address"
        },
        {
          "indexed": false,
          "internalType": "uint256",
          "name": "value",
          "type": "uint256"
        }
      ],
      "name": "Transfer",
      "type": "event"
    },
    {
      "inputs": [
        {
          "internalType": "string",
          "name": "_name",
          "type": "string"
        },
        {
          "internalType": "string",
          "name": "_symbol",
          "type": "string"
        }
      ],
      "name": "_initialize",
      "outputs": [],
      "stateMutability": "nonpayable",
      "type": "function"
    },
    {
      "inputs": [
        {
          "internalType": "address",
          "name": "owner",
          "type": "address"
        },
        {
          "internalType": "address",
          "name": "spender",
          "type": "address"
        }
      ],
      "name": "allowance",
      "outputs": [
        {
          "internalType": "uint256",
          "name": "",
          "type": "uint256"
        }
      ],
      "stateMutability": "view",
      "type": "function"
    },
    {
      "inputs": [
        {
          "internalType": "address",
          "name": "spender",
          "type": "address"
        },
        {
          "internalType": "uint256",
          "name": "amount",
          "type": "uint256"
        }
      ],
      "name": "approve",
      "outputs": [
        {
          "internalType": "bool",
          "name": "",
          "type": "bool"
        }
      ],
      "stateMutability": "nonpayable",
      "type": "function"
    },
    {
      "inputs": [
        {
          "internalType": "address",
          "name": "account",
          "type": "address"
        }
      ],
      "name": "balanceOf",
      "outputs": [
        {
          "internalType": "uint256",
          "name": "",
          "type": "uint256"
        }
      ],
      "stateMutability": "view",
      "type": "function"
    },
    {
      "inputs": [],
      "name": "decimals",
      "outputs": [
        {
          "internalType": "uint8",
          "name": "",
          "type": "uint8"
        }
      ],
      "stateMutability": "view",
      "type": "function"
    },
    {
      "inputs": [
        {
          "internalType": "address",
          "name": "spender",
          "type": "address"
        },
        {
          "internalType": "uint256",
          "name": "subtractedValue",
          "type": "uint256"
        }
      ],
      "name": "decreaseAllowance",
      "outputs": [
        {
          "internalType": "bool",
          "name": "",
          "type": "bool"
        }
      ],
      "stateMutability": "nonpayable",
      "type": "function"
    },
    {
      "inputs": [
        {
          "internalType": "address",
          "name": "spender",
          "type": "address"
        },
        {
          "internalType": "uint256",
          "name": "addedValue",
          "type": "uint256"
        }
      ],
      "name": "increaseAllowance",
      "outputs": [
        {
          "internalType": "bool",
          "name": "",
          "type": "bool"
        }
      ],
      "stateMutability": "nonpayable",
      "type": "function"
    },
    {
      "inputs": [],
      "name": "name",
      "outputs": [
        {
          "internalType": "string",
          "name": "",
          "type": "string"
        }
      ],
      "stateMutability": "view",
      "type": "function"
    },
    {
      "inputs": [],
      "name": "symbol",
      "outputs": [
        {
          "internalType": "string",
          "name": "",
          "type": "string"
        }
      ],
      "stateMutability": "view",
      "type": "function"
    },
    {
      "inputs": [],
      "name": "totalSupply",
      "outputs": [
        {
          "internalType": "uint256",
          "name": "",
          "type": "uint256"
        }
      ],
      "stateMutability": "view",
      "type": "function"
    },
    {
      "inputs": [
        {
          "internalType": "address",
          "name": "to",
          "type": "address"
        },
        {
          "internalType": "uint256",
          "name": "amount",
          "type": "uint256"
        }
      ],
      "name": "transfer",
      "outputs": [
        {
          "internalType": "bool",
          "name": "",
          "type": "bool"
        }
      ],
      "stateMutability": "nonpayable",
      "type": "function"
    },
    {
      "inputs": [
        {
          "internalType": "address",
          "name": "from",
          "type": "address"
        },
        {
          "internalType": "address",
          "name": "to",
          "type": "address"
        },
        {
          "internalType": "uint256",
          "name": "amount",
          "type": "uint256"
        }
      ],
      "name": "transferFrom",
      "outputs": [
        {
          "internalType": "bool",
          "name": "",
          "type": "bool"
        }
      ],
      "stateMutability": "nonpayable",
      "type": "function"
    }
  ],
  "bytecode": {
    "object": "0x60806040523480156200001157600080fd5b50604080516020808201835260008252825180840190935260058352642a27a5a2a760d91b9083015262000045916200004b565b62000463565b600054610100900460ff16158080156200006c5750600054600160ff909116105b806200009c575062000089306200019760201b620004a11760201c565b1580156200009c575060005460ff166001145b620001055760405162461bcd60e51b815260206004820152602e60248201527f496e697469616c697a61626c653a20636f6e747261637420697320616c72656160448201526d191e481a5b9a5d1a585b1a5e995960921b60648201526084015b60405180910390fd5b6000805460ff19166001179055801562000129576000805461ff0019166101001790555b620001358383620001a6565b6200014b3369152d02c7e14af680000062000212565b801562000192576000805461ff0019169055604051600181527f7f26b83ff96e1f2b6a682f133852f6798a09c465da95921460cefb38474024989060200160405180910390a15b505050565b6001600160a01b03163b151590565b600054610100900460ff16620002025760405162461bcd60e51b815260206004820152602b60248201526000805160206200115a83398151915260448201526a6e697469616c697a696e6760a81b6064820152608401620000fc565b6200020e8282620002d7565b5050565b6001600160a01b0382166200026a5760405162461bcd60e51b815260206004820152601f60248201527f45524332303a206d696e7420746f20746865207a65726f2061646472657373006044820152606401620000fc565b80603560008282546200027e9190620003ff565b90915550506001600160a01b0382166000818152603360209081526040808320805486019055518481527fddf252ad1be2c89b69c2b068fc378daa952ba7f163c4a11628f55a4df523b3ef910160405180910390a35050565b600054610100900460ff16620003335760405162461bcd60e51b815260206004820152602b60248201526000805160206200115a83398151915260448201526a6e697469616c697a696e6760a81b6064820152608401620000fc565b81516200034890603690602085019062000359565b508051620001929060379060208401905b828054620003679062000426565b90600052602060002090601f0160209004810192826200038b5760008555620003d6565b82601f10620003a657805160ff1916838001178555620003d6565b82800160010185558215620003d6579182015b82811115620003d6578251825591602001919060010190620003b9565b50620003e4929150620003e8565b5090565b5b80821115620003e45760008155600101620003e9565b600082198211156200042157634e487b7160e01b600052601160045260246000fd5b500190565b600181811c908216806200043b57607f821691505b602082108114156200045d57634e487b7160e01b600052602260045260246000fd5b50919050565b610ce780620004736000396000f3fe608060405234801561001057600080fd5b50600436106100b45760003560e01c80633950935111610071578063395093511461014357806370a082311461015657806395d89b411461017f578063a457c2d714610187578063a9059cbb1461019a578063dd62ed3e146101ad57600080fd5b806306fdde03146100b9578063095ea7b3146100d7578063098dce13146100fa57806318160ddd1461010f57806323b872dd14610121578063313ce56714610134575b600080fd5b6100c16101c0565b6040516100ce91906109d2565b60405180910390f35b6100ea6100e5366004610a43565b610252565b60405190151581526020016100ce565b61010d610108366004610b10565b61026a565b005b6035545b6040519081526020016100ce565b6100ea61012f366004610b74565b610398565b604051601281526020016100ce565b6100ea610151366004610a43565b6103bc565b610113610164366004610bb0565b6001600160a01b031660009081526033602052604090205490565b6100c16103de565b6100ea610195366004610a43565b6103ed565b6100ea6101a8366004610a43565b610468565b6101136101bb366004610bd2565b610476565b6060603680546101cf90610c05565b80601f01602080910402602001604051908101604052809291908181526020018280546101fb90610c05565b80156102485780601f1061021d57610100808354040283529160200191610248565b820191906000526020600020905b81548152906001019060200180831161022b57829003601f168201915b5050505050905090565b6000336102608185856104b0565b5060019392505050565b600054610100900460ff161580801561028a5750600054600160ff909116105b806102a45750303b1580156102a4575060005460ff166001145b61030c5760405162461bcd60e51b815260206004820152602e60248201527f496e697469616c697a61626c653a20636f6e747261637420697320616c72656160448201526d191e481a5b9a5d1a585b1a5e995960921b60648201526084015b60405180910390fd5b6000805460ff19166001179055801561032f576000805461ff0019166101001790555b61033983836105d4565b61034d3369152d02c7e14af6800000610609565b8015610393576000805461ff0019169055604051600181527f7f26b83ff96e1f2b6a682f133852f6798a09c465da95921460cefb38474024989060200160405180910390a15b505050565b6000336103a68582856106ca565b6103b1858585610744565b506001949350505050565b6000336102608185856103cf8383610476565b6103d99190610c40565b6104b0565b6060603780546101cf90610c05565b600033816103fb8286610476565b90508381101561045b5760405162461bcd60e51b815260206004820152602560248201527f45524332303a2064656372656173656420616c6c6f77616e63652062656c6f77604482015264207a65726f60d81b6064820152608401610303565b6103b182868684036104b0565b600033610260818585610744565b6001600160a01b03918216600090815260346020908152604080832093909416825291909152205490565b6001600160a01b03163b151590565b6001600160a01b0383166105125760405162461bcd60e51b8152602060048201526024808201527f45524332303a20617070726f76652066726f6d20746865207a65726f206164646044820152637265737360e01b6064820152608401610303565b6001600160a01b0382166105735760405162461bcd60e51b815260206004820152602260248201527f45524332303a20617070726f766520746f20746865207a65726f206164647265604482015261737360f01b6064820152608401610303565b6001600160a01b0383811660008181526034602090815260408083209487168084529482529182902085905590518481527f8c5be1e5ebec7d5bd14f71427d1e84f3dd0314c0f7b2291e5b200ac8c7c3b925910160405180910390a3505050565b600054610100900460ff166105fb5760405162461bcd60e51b815260040161030390610c66565b61060582826108ef565b5050565b6001600160a01b03821661065f5760405162461bcd60e51b815260206004820152601f60248201527f45524332303a206d696e7420746f20746865207a65726f2061646472657373006044820152606401610303565b80603560008282546106719190610c40565b90915550506001600160a01b0382166000818152603360209081526040808320805486019055518481527fddf252ad1be2c89b69c2b068fc378daa952ba7f163c4a11628f55a4df523b3ef910160405180910390a35050565b60006106d68484610476565b9050600019811461073e57818110156107315760405162461bcd60e51b815260206004820152601d60248201527f45524332303a20696e73756666696369656e7420616c6c6f77616e63650000006044820152606401610303565b61073e84848484036104b0565b50505050565b6001600160a01b0383166107a85760405162461bcd60e51b815260206004820152602560248201527f45524332303a207472616e736665722066726f6d20746865207a65726f206164604482015264647265737360d81b6064820152608401610303565b6001600160a01b03821661080a5760405162461bcd60e51b815260206004820152602360248201527f45524332303a207472616e7366657220746f20746865207a65726f206164647260448201526265737360e81b6064820152608401610303565b6001600160a01b038316600090815260336020526040902054818110156108825760405162461bcd60e51b815260206004820152602660248201527f45524332303a207472616e7366657220616d6f756e7420657863656564732062604482015265616c616e636560d01b6064820152608401610303565b6001600160a01b0380851660008181526033602052604080822086860390559286168082529083902080548601905591517fddf252ad1be2c89b69c2b068fc378daa952ba7f163c4a11628f55a4df523b3ef906108e29086815260200190565b60405180910390a361073e565b600054610100900460ff166109165760405162461bcd60e51b815260040161030390610c66565b8151610929906036906020850190610939565b5080516103939060379060208401905b82805461094590610c05565b90600052602060002090601f01602090048101928261096757600085556109ad565b82601f1061098057805160ff19168380011785556109ad565b828001600101855582156109ad579182015b828111156109ad578251825591602001919060010190610992565b506109b99291506109bd565b5090565b5b808211156109b957600081556001016109be565b600060208083528351808285015260005b818110156109ff578581018301518582016040015282016109e3565b81811115610a11576000604083870101525b50601f01601f1916929092016040019392505050565b80356001600160a01b0381168114610a3e57600080fd5b919050565b60008060408385031215610a5657600080fd5b610a5f83610a27565b946020939093013593505050565b634e487b7160e01b600052604160045260246000fd5b600082601f830112610a9457600080fd5b813567ffffffffffffffff80821115610aaf57610aaf610a6d565b604051601f8301601f19908116603f01168101908282118183101715610ad757610ad7610a6d565b81604052838152866020858801011115610af057600080fd5b836020870160208301376000602085830101528094505050505092915050565b60008060408385031215610b2357600080fd5b823567ffffffffffffffff80821115610b3b57600080fd5b610b4786838701610a83565b93506020850135915080821115610b5d57600080fd5b50610b6a85828601610a83565b9150509250929050565b600080600060608486031215610b8957600080fd5b610b9284610a27565b9250610ba060208501610a27565b9150604084013590509250925092565b600060208284031215610bc257600080fd5b610bcb82610a27565b9392505050565b60008060408385031215610be557600080fd5b610bee83610a27565b9150610bfc60208401610a27565b90509250929050565b600181811c90821680610c1957607f821691505b60208210811415610c3a57634e487b7160e01b600052602260045260246000fd5b50919050565b60008219821115610c6157634e487b7160e01b600052601160045260246000fd5b500190565b6020808252602b908201527f496e697469616c697a61626c653a20636f6e7472616374206973206e6f74206960408201526a6e697469616c697a696e6760a81b60608201526080019056fea26469706673582212206dd8755df66b3c7d0e21024a09e45f512c712256b342bc78b805377410cf2c0264736f6c634300080a0033496e697469616c697a61626c653a20636f6e7472616374206973206e6f742069",
    "linkReferences": {}
  },
  "methodIdentifiers": {
    "_initialize(string,string)": "098dce13",
    "allowance(address,address)": "dd62ed3e",
    "approve(address,uint256)": "095ea7b3",
    "balanceOf(address)": "70a08231",
    "decimals()": "313ce567",
    "decreaseAllowance(address,uint256)": "a457c2d7",
    "increaseAllowance(address,uint256)": "39509351",
    "name()": "06fdde03",
    "symbol()": "95d89b41",
    "totalSupply()": "18160ddd",
    "transfer(address,uint256)": "a9059cbb",
    "transferFrom(address,address,uint256)": "23b872dd"
  },
  "id": 58
}