{
  "abi": [
    {
      "inputs": [
        {
          "internalType": "address",
          "name": "implementationAddress",
          "type": "address"
        },
        {
          "internalType": "address",
          "name": "ownerAddress",
          "type": "address"
        },
        {
          "internalType": "bytes",
          "name": "data",
          "type": "bytes"
        }
      ],
      "stateMutability": "payable",
      "type": "constructor"
    },
    {
      "anonymous": false,
      "inputs": [
        {
          "indexed": true,
          "internalType": "address",
          "name": "previousAdmin",
          "type": "address"
        },
        {
          "indexed": true,
          "internalType": "address",
          "name": "newAdmin",
          "type": "address"
        }
      ],
      "name": "ProxyAdminTransferred",
      "type": "event"
    },
    {
      "anonymous": false,
      "inputs": [
        {
          "indexed": true,
          "internalType": "address",
          "name": "previousImplementation",
          "type": "address"
        },
        {
          "indexed": true,
          "internalType": "address",
          "name": "newImplementation",
          "type": "address"
        }
      ],
      "name": "ProxyImplementationUpdated",
      "type": "event"
    },
    {
      "stateMutability": "payable",
      "type": "fallback"
    },
    {
      "inputs": [],
      "name": "proxyAdmin",
      "outputs": [
        {
          "internalType": "address",
          "name": "",
          "type": "address"
        }
      ],
      "stateMutability": "view",
      "type": "function"
    },
    {
      "inputs": [
        {
          "internalType": "bytes4",
          "name": "id",
          "type": "bytes4"
        }
      ],
      "name": "supportsInterface",
      "outputs": [
        {
          "internalType": "bool",
          "name": "",
          "type": "bool"
        }
      ],
      "stateMutability": "view",
      "type": "function"
    },
    {
      "inputs": [
        {
          "internalType": "address",
          "name": "newAdmin",
          "type": "address"
        }
      ],
      "name": "transferProxyAdmin",
      "outputs": [],
      "stateMutability": "nonpayable",
      "type": "function"
    },
    {
      "inputs": [
        {
          "internalType": "address",
          "name": "newImplementation",
          "type": "address"
        }
      ],
      "name": "upgradeTo",
      "outputs": [],
      "stateMutability": "nonpayable",
      "type": "function"
    },
    {
      "inputs": [
        {
          "internalType": "address",
          "name": "newImplementation",
          "type": "address"
        },
        {
          "internalType": "bytes",
          "name": "data",
          "type": "bytes"
        }
      ],
      "name": "upgradeToAndCall",
      "outputs": [],
      "stateMutability": "payable",
      "type": "function"
    },
    {
      "stateMutability": "payable",
      "type": "receive"
    }
  ],
  "bytecode": {
    "object": "0x608060405260405161099d38038061099d833981016040819052610022916101e4565b82828261002f8382610043565b6100388261011f565b5050505050506102d0565b7f360894a13ba1a3210667c828492db98dca3e2076cc3735a920a3ca505d382bbc8054908390556040516001600160a01b0380851691908316907f5570d70a002632a7b0b3c9304cc89efb62d8da9eca0dbd7752c83b737906829690600090a381511561011a576000836001600160a01b0316836040516100c491906102b4565b600060405180830381855af49150503d80600081146100ff576040519150601f19603f3d011682016040523d82523d6000602084013e610104565b606091505b5050905080610118573d806000803e806000fd5b505b505050565b600061013760008051602061097d8339815191525490565b90508160008051602061097d83398151915255816001600160a01b0316816001600160a01b03167fdf435d422321da6b195902d70fc417c06a32f88379c20dd8f2a8da07088cec2960405160405180910390a35050565b80516001600160a01b03811681146101a557600080fd5b919050565b634e487b7160e01b600052604160045260246000fd5b60005b838110156101db5781810151838201526020016101c3565b50506000910152565b6000806000606084860312156101f957600080fd5b6102028461018e565b92506102106020850161018e565b60408501519092506001600160401b038082111561022d57600080fd5b818601915086601f83011261024157600080fd5b815181811115610253576102536101aa565b604051601f8201601f19908116603f0116810190838211818310171561027b5761027b6101aa565b8160405282815289602084870101111561029457600080fd5b6102a58360208301602088016101c0565b80955050505050509250925092565b600082516102c68184602087016101c0565b9190910192915050565b61069e806102df6000396000f3fe60806040526004361061004e5760003560e01c806301ffc9a71461005f5780633659cfe6146100945780633e47158c146100b45780634f1ef286146100e15780638356ca4f146100f457610055565b3661005557005b61005d610114565b005b34801561006b57600080fd5b5061007f61007a3660046104eb565b61015f565b60405190151581526020015b60405180910390f35b3480156100a057600080fd5b5061005d6100af366004610531565b610257565b3480156100c057600080fd5b506100c96102bc565b6040516001600160a01b03909116815260200161008b565b61005d6100ef36600461054c565b6102d9565b34801561010057600080fd5b5061005d61010f366004610531565b61035e565b7f360894a13ba1a3210667c828492db98dca3e2076cc3735a920a3ca505d382bbc5460003681823780813683855af491503d8082833e828015610155578183f35b8183fd5b50505050565b60006301ffc9a760e01b6001600160e01b03198316148061019057506307f5828d60e41b6001600160e01b03198316145b1561019d57506001919050565b6001600160e01b031980831690036101b757506000919050565b7f360894a13ba1a3210667c828492db98dca3e2076cc3735a920a3ca505d382bbc546040516301ffc9a760e01b81526001600160e01b0319841660048201526001600160a01b038216906301ffc9a790602401602060405180830381865afa925050508015610243575060408051601f3d908101601f19168201909252610240918101906105cf565b60015b6102505750600092915050565b9392505050565b600080516020610649833981519152546001600160a01b0316336001600160a01b0316146102a05760405162461bcd60e51b8152600401610297906105f1565b60405180910390fd5b6102b981604051806020016040528060008152506103a7565b50565b60006102d46000805160206106498339815191525490565b905090565b600080516020610649833981519152546001600160a01b0316336001600160a01b0316146103195760405162461bcd60e51b8152600401610297906105f1565b6103598383838080601f0160208091040260200160405190810160405280939291908181526020018383808284376000920191909152506103a792505050565b505050565b600080516020610649833981519152546001600160a01b0316336001600160a01b03161461039e5760405162461bcd60e51b8152600401610297906105f1565b6102b98161047c565b7f360894a13ba1a3210667c828492db98dca3e2076cc3735a920a3ca505d382bbc8054908390556040516001600160a01b0380851691908316907f5570d70a002632a7b0b3c9304cc89efb62d8da9eca0dbd7752c83b737906829690600090a3815115610359576000836001600160a01b0316836040516104289190610619565b600060405180830381855af49150503d8060008114610463576040519150601f19603f3d011682016040523d82523d6000602084013e610468565b606091505b5050905080610159573d806000803e806000fd5b60006104946000805160206106498339815191525490565b90508160008051602061064983398151915255816001600160a01b0316816001600160a01b03167fdf435d422321da6b195902d70fc417c06a32f88379c20dd8f2a8da07088cec2960405160405180910390a35050565b6000602082840312156104fd57600080fd5b81356001600160e01b03198116811461025057600080fd5b80356001600160a01b038116811461052c57600080fd5b919050565b60006020828403121561054357600080fd5b61025082610515565b60008060006040848603121561056157600080fd5b61056a84610515565b9250602084013567ffffffffffffffff8082111561058757600080fd5b818601915086601f83011261059b57600080fd5b8135818111156105aa57600080fd5b8760208285010111156105bc57600080fd5b6020830194508093505050509250925092565b6000602082840312156105e157600080fd5b8151801515811461025057600080fd5b6020808252600e908201526d1393d517d055551213d49256915160921b604082015260600190565b6000825160005b8181101561063a5760208186018101518583015201610620565b50600092019182525091905056feb53127684a568b3173ae13b9f8a6016e243e63b6e8ee1178d6a717850b5d6103a2646970667358221220be54ef554a46f307237a2c1d2c9af0a14d20ea4fd0faa0da657b8d9d7c9adb1f64736f6c63430008110033b53127684a568b3173ae13b9f8a6016e243e63b6e8ee1178d6a717850b5d6103",
    "linkReferences": {}
  },
  "methodIdentifiers": {
    "proxyAdmin()": "3e47158c",
    "supportsInterface(bytes4)": "01ffc9a7",
    "transferProxyAdmin(address)": "8356ca4f",
    "upgradeTo(address)": "3659cfe6",
    "upgradeToAndCall(address,bytes)": "4f1ef286"
  },
  "id": 59
}