{
  "abi": [
    {
      "inputs": [
        {
          "internalType": "address",
          "name": "_uniswapV3Factory",
          "type": "address"
        },
        {
          "internalType": "contract ISpindleOracle",
          "name": "_SpindleOracle",
          "type": "address"
        }
      ],
      "stateMutability": "nonpayable",
      "type": "constructor"
    },
    {
      "anonymous": false,
      "inputs": [
        {
          "indexed": false,
          "internalType": "uint8",
          "name": "version",
          "type": "uint8"
        }
      ],
      "name": "Initialized",
      "type": "event"
    },
    {
      "anonymous": false,
      "inputs": [
        {
          "indexed": true,
          "internalType": "address",
          "name": "previousManager",
          "type": "address"
        },
        {
          "indexed": true,
          "internalType": "address",
          "name": "newManager",
          "type": "address"
        }
      ],
      "name": "OwnershipTransferred",
      "type": "event"
    },
    {
      "anonymous": false,
      "inputs": [
        {
          "indexed": true,
          "internalType": "address",
          "name": "uniPool",
          "type": "address"
        },
        {
          "indexed": true,
          "internalType": "address",
          "name": "manager",
          "type": "address"
        },
        {
          "indexed": true,
          "internalType": "address",
          "name": "pool",
          "type": "address"
        }
      ],
      "name": "PoolCreated",
      "type": "event"
    },
    {
      "anonymous": false,
      "inputs": [
        {
          "indexed": false,
          "internalType": "address",
          "name": "previousImplementation",
          "type": "address"
        },
        {
          "indexed": false,
          "internalType": "address",
          "name": "newImplementation",
          "type": "address"
        }
      ],
      "name": "UpdatePoolImplementation",
      "type": "event"
    },
    {
      "inputs": [],
      "name": "SpindleOracle",
      "outputs": [
        {
          "internalType": "contract ISpindleOracle",
          "name": "",
          "type": "address"
        }
      ],
      "stateMutability": "view",
      "type": "function"
    },
    {
      "inputs": [
        {
          "internalType": "address",
          "name": "tokenA",
          "type": "address"
        },
        {
          "internalType": "address",
          "name": "tokenB",
          "type": "address"
        },
        {
          "internalType": "uint24",
          "name": "uniFee",
          "type": "uint24"
        },
        {
          "internalType": "address",
          "name": "manager",
          "type": "address"
        },
        {
          "internalType": "uint16",
          "name": "managerFee",
          "type": "uint16"
        },
        {
          "internalType": "int24",
          "name": "lowerTick",
          "type": "int24"
        },
        {
          "internalType": "int24",
          "name": "upperTick",
          "type": "int24"
        }
      ],
      "name": "deployVault",
      "outputs": [
        {
          "internalType": "address",
          "name": "pool",
          "type": "address"
        }
      ],
      "stateMutability": "nonpayable",
      "type": "function"
    },
    {
      "inputs": [],
      "name": "factory",
      "outputs": [
        {
          "internalType": "address",
          "name": "",
          "type": "address"
        }
      ],
      "stateMutability": "view",
      "type": "function"
    },
    {
      "inputs": [],
      "name": "getDeployers",
      "outputs": [
        {
          "internalType": "address[]",
          "name": "",
          "type": "address[]"
        }
      ],
      "stateMutability": "view",
      "type": "function"
    },
    {
      "inputs": [
        {
          "internalType": "address",
          "name": "deployer",
          "type": "address"
        }
      ],
      "name": "getPools",
      "outputs": [
        {
          "internalType": "address[]",
          "name": "",
          "type": "address[]"
        }
      ],
      "stateMutability": "view",
      "type": "function"
    },
    {
      "inputs": [
        {
          "internalType": "address",
          "name": "pool",
          "type": "address"
        }
      ],
      "name": "getProxyAdmin",
      "outputs": [
        {
          "internalType": "address",
          "name": "",
          "type": "address"
        }
      ],
      "stateMutability": "view",
      "type": "function"
    },
    {
      "inputs": [
        {
          "internalType": "address",
          "name": "token0",
          "type": "address"
        },
        {
          "internalType": "address",
          "name": "token1",
          "type": "address"
        }
      ],
      "name": "getTokenName",
      "outputs": [
        {
          "internalType": "string",
          "name": "",
          "type": "string"
        }
      ],
      "stateMutability": "view",
      "type": "function"
    },
    {
      "inputs": [],
      "name": "index",
      "outputs": [
        {
          "internalType": "uint256",
          "name": "",
          "type": "uint256"
        }
      ],
      "stateMutability": "view",
      "type": "function"
    },
    {
      "inputs": [
        {
          "internalType": "address",
          "name": "_implementation",
          "type": "address"
        },
        {
          "internalType": "address",
          "name": "_manager_",
          "type": "address"
        }
      ],
      "name": "initialize",
      "outputs": [],
      "stateMutability": "nonpayable",
      "type": "function"
    },
    {
      "inputs": [
        {
          "internalType": "address",
          "name": "pool",
          "type": "address"
        }
      ],
      "name": "isPoolImmutable",
      "outputs": [
        {
          "internalType": "bool",
          "name": "",
          "type": "bool"
        }
      ],
      "stateMutability": "view",
      "type": "function"
    },
    {
      "inputs": [
        {
          "internalType": "address[]",
          "name": "pools",
          "type": "address[]"
        }
      ],
      "name": "makePoolsImmutable",
      "outputs": [],
      "stateMutability": "nonpayable",
      "type": "function"
    },
    {
      "inputs": [],
      "name": "manager",
      "outputs": [
        {
          "internalType": "address",
          "name": "",
          "type": "address"
        }
      ],
      "stateMutability": "view",
      "type": "function"
    },
    {
      "inputs": [],
      "name": "numDeployers",
      "outputs": [
        {
          "internalType": "uint256",
          "name": "",
          "type": "uint256"
        }
      ],
      "stateMutability": "view",
      "type": "function"
    },
    {
      "inputs": [],
      "name": "numPools",
      "outputs": [
        {
          "internalType": "uint256",
          "name": "result",
          "type": "uint256"
        }
      ],
      "stateMutability": "view",
      "type": "function"
    },
    {
      "inputs": [
        {
          "internalType": "address",
          "name": "deployer",
          "type": "address"
        }
      ],
      "name": "numPools",
      "outputs": [
        {
          "internalType": "uint256",
          "name": "",
          "type": "uint256"
        }
      ],
      "stateMutability": "view",
      "type": "function"
    },
    {
      "inputs": [],
      "name": "poolImplementation",
      "outputs": [
        {
          "internalType": "address",
          "name": "",
          "type": "address"
        }
      ],
      "stateMutability": "view",
      "type": "function"
    },
    {
      "inputs": [],
      "name": "renounceOwnership",
      "outputs": [],
      "stateMutability": "nonpayable",
      "type": "function"
    },
    {
      "inputs": [
        {
          "internalType": "address",
          "name": "nextImplementation",
          "type": "address"
        }
      ],
      "name": "setPoolImplementation",
      "outputs": [],
      "stateMutability": "nonpayable",
      "type": "function"
    },
    {
      "inputs": [
        {
          "internalType": "address",
          "name": "newOwner",
          "type": "address"
        }
      ],
      "name": "transferOwnership",
      "outputs": [],
      "stateMutability": "nonpayable",
      "type": "function"
    },
    {
      "inputs": [
        {
          "internalType": "address[]",
          "name": "pools",
          "type": "address[]"
        }
      ],
      "name": "upgradePools",
      "outputs": [],
      "stateMutability": "nonpayable",
      "type": "function"
    },
    {
      "inputs": [
        {
          "internalType": "address[]",
          "name": "pools",
          "type": "address[]"
        },
        {
          "internalType": "bytes[]",
          "name": "datas",
          "type": "bytes[]"
        }
      ],
      "name": "upgradePoolsAndCall",
      "outputs": [],
      "stateMutability": "nonpayable",
      "type": "function"
    },
    {
      "inputs": [],
      "name": "version",
      "outputs": [
        {
          "internalType": "string",
          "name": "",
          "type": "string"
        }
      ],
      "stateMutability": "view",
      "type": "function"
    }
  ],
  "bytecode": {
    "object": "0x60c06040523480156200001157600080fd5b506040516200288438038062002884833981016040819052620000349162000065565b6001600160a01b039182166080521660a052620000a4565b6001600160a01b03811681146200006257600080fd5b50565b600080604083850312156200007957600080fd5b825162000086816200004c565b602084015190925062000099816200004c565b809150509250929050565b60805160a0516127b3620000d160003960006102a2015260008181610309015261119e01526127b36000f3fe60806040523480156200001157600080fd5b50600436106200015d5760003560e01c8063607c12b511620000c7578063c45a01551162000086578063c45a01551462000303578063cefa7799146200032b578063d6f74898146200033f578063f2fde38b1462000356578063f3b7dead146200036d578063fef46b28146200038457600080fd5b8063607c12b51462000288578063715018a614620002925780637da3e463146200029c57806395d807f114620002c4578063bd30dfb914620002ec57600080fd5b806340aee041116200012057806340aee04114620001c357806342f5de9914620001da578063481c6a7514620001f1578063485cc955146200021757806354fd4d50146200022e5780635c39f467146200026257600080fd5b8063098eddb114620001625780630dfc574b146200017f578063260fc2b814620001985780632986c0e514620001af57806335c62bc214620001b9575b600080fd5b6200016c6200039b565b6040519081526020015b60405180910390f35b620001966200019036600462001721565b620003ae565b005b62000196620001a9366004620017c3565b6200052d565b6200016c60055481565b6200016c6200060e565b62000196620001d4366004620017c3565b62000679565b6200016c620001eb36600462001804565b62000759565b6000546001600160a01b03165b6040516001600160a01b03909116815260200162000176565b620001966200022836600462001824565b62000782565b62000253604051806040016040528060058152602001640312e302e360dc1b81525081565b604051620001769190620018bf565b620002796200027336600462001804565b620008df565b604051620001769190620018d4565b620002796200099d565b6200019662000a58565b620001fe7f000000000000000000000000000000000000000000000000000000000000000081565b620002db620002d536600462001804565b62000adf565b604051901515815260200162000176565b62000253620002fd36600462001824565b62000afc565b620001fe7f000000000000000000000000000000000000000000000000000000000000000081565b600154620001fe906001600160a01b031681565b620001966200035036600462001804565b62000c31565b620001966200036736600462001804565b62000cd7565b620001fe6200037e36600462001804565b62000dd8565b620001fe6200039536600462001933565b62000e3f565b6000620003a9600262000e5e565b905090565b33620003c26000546001600160a01b031690565b6001600160a01b031614620003f45760405162461bcd60e51b8152600401620003eb90620019e5565b60405180910390fd5b82518114620004465760405162461bcd60e51b815260206004820152601860248201527f6d69736d61746368696e67206172726179206c656e67746800000000000000006044820152606401620003eb565b60005b8351811015620005275783818151811062000468576200046862001a27565b60200260200101516001600160a01b0316634f1ef286600160009054906101000a90046001600160a01b0316858585818110620004a957620004a962001a27565b9050602002810190620004bd919062001a3d565b6040518463ffffffff1660e01b8152600401620004dd9392919062001a87565b600060405180830381600087803b158015620004f857600080fd5b505af11580156200050d573d6000803e3d6000fd5b5050505080806200051e9062001add565b91505062000449565b50505050565b33620005416000546001600160a01b031690565b6001600160a01b0316146200056a5760405162461bcd60e51b8152600401620003eb90620019e5565b60005b81518110156200060a578181815181106200058c576200058c62001a27565b6020908102919091010151604051638356ca4f60e01b8152600060048201526001600160a01b0390911690638356ca4f90602401600060405180830381600087803b158015620005db57600080fd5b505af1158015620005f0573d6000803e3d6000fd5b505050508080620006019062001add565b9150506200056d565b5050565b6000806200061b6200099d565b905060005b815181101562000674576200065182828151811062000643576200064362001a27565b602002602001015162000759565b6200065d908462001afb565b9250806200066b8162001add565b91505062000620565b505090565b336200068d6000546001600160a01b031690565b6001600160a01b031614620006b65760405162461bcd60e51b8152600401620003eb90620019e5565b60005b81518110156200060a57818181518110620006d857620006d862001a27565b6020908102919091010151600154604051631b2ce7f360e11b81526001600160a01b039182166004820152911690633659cfe690602401600060405180830381600087803b1580156200072a57600080fd5b505af11580156200073f573d6000803e3d6000fd5b505050508080620007509062001add565b915050620006b9565b6001600160a01b03811660009081526004602052604081206200077c9062000e5e565b92915050565b600054600160a81b900460ff1615808015620007ab57506000546001600160a01b90910460ff16105b80620007ce5750303b158015620007ce5750600054600160a01b900460ff166001145b620008335760405162461bcd60e51b815260206004820152602e60248201527f496e697469616c697a61626c653a20636f6e747261637420697320616c72656160448201526d191e481a5b9a5d1a585b1a5e995960921b6064820152608401620003eb565b6000805460ff60a01b1916600160a01b179055801562000861576000805460ff60a81b1916600160a81b1790555b600180546001600160a01b038086166001600160a01b03199283161790925560008054928516929091169190911790558015620008da576000805460ff60a81b19169055604051600181527f7f26b83ff96e1f2b6a682f133852f6798a09c465da95921460cefb38474024989060200160405180910390a15b505050565b60606000620008ee8362000759565b905060008167ffffffffffffffff8111156200090e576200090e6200162a565b60405190808252806020026020018201604052801562000938578160200160208202803683370190505b50905060005b82811015620009955762000953858262000e69565b82828151811062000968576200096862001a27565b6001600160a01b0390921660209283029190910190910152806200098c8162001add565b9150506200093e565b509392505050565b60606000620009ab6200039b565b905060008167ffffffffffffffff811115620009cb57620009cb6200162a565b604051908082528060200260200182016040528015620009f5578160200160208202803683370190505b50905060005b8281101562000a515762000a0f8162000e94565b82828151811062000a245762000a2462001a27565b6001600160a01b03909216602092830291909101909101528062000a488162001add565b915050620009fb565b5092915050565b3362000a6c6000546001600160a01b031690565b6001600160a01b03161462000a955760405162461bcd60e51b8152600401620003eb90620019e5565b600080546040516001600160a01b03909116907f8be0079c531659141344cd1fd0a4f28419497f9722a3daafe3b4186f6b6457e0908390a3600080546001600160a01b0319169055565b600062000aec8262000dd8565b6001600160a01b03161592915050565b60606000836001600160a01b03166395d89b416040518163ffffffff1660e01b8152600401600060405180830381865afa15801562000b3f573d6000803e3d6000fd5b505050506040513d6000823e601f3d908101601f1916820160405262000b69919081019062001b16565b90506000836001600160a01b03166395d89b416040518163ffffffff1660e01b8152600401600060405180830381865afa15801562000bac573d6000803e3d6000fd5b505050506040513d6000823e601f3d908101601f1916820160405262000bd6919081019062001b16565b905062000c2860405180604001604052806011815260200170029b834b7323632902b30bab63a102b189607d1b81525083604051806040016040528060018152602001602f60f81b8152508462000ea3565b95945050505050565b3362000c456000546001600160a01b031690565b6001600160a01b03161462000c6e5760405162461bcd60e51b8152600401620003eb90620019e5565b600154604080516001600160a01b03928316815291831660208301527f0617fd31aa5ab95ec80eefc1eb61a2c477aa419d1d761b4e46f5f077e47852aa910160405180910390a1600180546001600160a01b0319166001600160a01b0392909216919091179055565b3362000ceb6000546001600160a01b031690565b6001600160a01b03161462000d145760405162461bcd60e51b8152600401620003eb90620019e5565b6001600160a01b03811662000d7d5760405162461bcd60e51b815260206004820152602860248201527f4f776e61626c653a206e6577206d616e6167657220697320746865207a65726f604482015267206164647265737360c01b6064820152608401620003eb565b600080546040516001600160a01b03808516939216917f8be0079c531659141344cd1fd0a4f28419497f9722a3daafe3b4186f6b6457e091a3600080546001600160a01b0319166001600160a01b0392909216919091179055565b6000816001600160a01b0316633e47158c6040518163ffffffff1660e01b8152600401602060405180830381865afa15801562000e19573d6000803e3d6000fd5b505050506040513d601f19601f820116820180604052508101906200077c919062001bac565b600062000e528888888888888862000ed7565b98975050505050505050565b60006200077c825490565b6001600160a01b038216600090815260046020526040812062000e8d90836200103e565b9392505050565b60006200077c6002836200103e565b60608484848460405160200162000ebe949392919062001bcc565b6040516020818303038152906040529050949350505050565b600080606062000eeb8a8a8a88886200104c565b60055492955090935091506001600160a01b0384169063e25e15e390839062000f219062000f1b90600162001afb565b620012c5565b60405160200162000f33919062001c2b565b604051602081830303815290604052858a8a8a8e6040518863ffffffff1660e01b815260040162000f6b979695949392919062001c59565b600060405180830381600087803b15801562000f8657600080fd5b505af115801562000f9b573d6000803e3d6000fd5b5050505062000fb58760026200140a90919063ffffffff16565b506001600160a01b038716600090815260046020526040902062000fda90846200140a565b5060016005600082825462000ff0919062001afb565b90915550506040516001600160a01b0380851691898216918516907f9c5d829b9b23efc461f9aeef91979ec04bb903feb3bee4f26d22114abfc7335b90600090a45050979650505050505050565b600062000e8d838362001421565b6000806060600080620010608a8a6200144e565b6001546040519294509092506001600160a01b031690309062001083906200161c565b6001600160a01b03928316815291166020820152606060408201819052600090820152608001604051809103906000f080158015620010c6573d6000803e3d6000fd5b50604080518082018252600d81526c14dc1a5b991b194815985d5b1d609a1b6020820152905163bd30dfb960e01b81526001600160a01b038086166004830152841660248201529196509350309063bd30dfb990604401600060405180830381865afa9250505080156200115e57506040513d6000823e601f3d908101601f191682016040526200115b919081019062001b16565b60015b62001169576200116c565b92505b604051630b4c774160e11b81526001600160a01b038381166004830152828116602483015262ffffff8a1660448301527f00000000000000000000000000000000000000000000000000000000000000001690631698ee8290606401602060405180830381865afa158015620011e6573d6000803e3d6000fd5b505050506040513d601f19601f820116820180604052508101906200120c919062001bac565b93506001600160a01b038416620012665760405162461bcd60e51b815260206004820152601b60248201527f756e697377617020706f6f6c20646f6573206e6f7420657869737400000000006044820152606401620003eb565b620012738488886200151d565b620012b85760405162461bcd60e51b81526020600482015260146024820152730e8d2c6d6a6e0c2c6d2dcce40dad2e6dac2e8c6d60631b6044820152606401620003eb565b5050955095509592505050565b606081620012ea5750506040805180820190915260018152600360fc1b602082015290565b8160005b81156200131a5780620013018162001add565b9150620013129050600a8362001cda565b9150620012ee565b60008167ffffffffffffffff8111156200133857620013386200162a565b6040519080825280601f01601f19166020018201604052801562001363576020820181803683370190505b509050815b851562001401576200137c60018262001cf1565b905060006200138d600a8862001cda565b6200139a90600a62001d0b565b620013a6908862001cf1565b620013b390603062001d2d565b905060008160f81b905080848481518110620013d357620013d362001a27565b60200101906001600160f81b031916908160001a905350620013f7600a8962001cda565b9750505062001368565b50949350505050565b600062000e8d836001600160a01b038416620015ca565b60008260000182815481106200143b576200143b62001a27565b9060005260206000200154905092915050565b600080826001600160a01b0316846001600160a01b03161415620014a25760405162461bcd60e51b815260206004820152600a60248201526939b0b6b2903a37b5b2b760b11b6044820152606401620003eb565b826001600160a01b0316846001600160a01b031610620014c4578284620014c7565b83835b90925090506001600160a01b038216620015165760405162461bcd60e51b815260206004820152600f60248201526e6e6f2061646472657373207a65726f60881b6044820152606401620003eb565b9250929050565b600080846001600160a01b031663d0c93a7c6040518163ffffffff1660e01b8152600401602060405180830381865afa1580156200155f573d6000803e3d6000fd5b505050506040513d601f19601f8201168201806040525081019062001585919062001d55565b90508260020b8460020b128015620015a95750620015a4818562001d75565b60020b155b801562000c285750620015bd818462001d75565b60020b1595945050505050565b600081815260018301602052604081205462001613575081546001818101845560008481526020808220909301849055845484825282860190935260409020919091556200077c565b5060006200077c565b6109e38062001d9b83390190565b634e487b7160e01b600052604160045260246000fd5b604051601f8201601f1916810167ffffffffffffffff811182821017156200166c576200166c6200162a565b604052919050565b6001600160a01b03811681146200168a57600080fd5b50565b600082601f8301126200169f57600080fd5b8135602067ffffffffffffffff821115620016be57620016be6200162a565b8160051b620016cf82820162001640565b9283528481018201928281019087851115620016ea57600080fd5b83870192505b8483101562001716578235620017068162001674565b82529183019190830190620016f0565b979650505050505050565b6000806000604084860312156200173757600080fd5b833567ffffffffffffffff808211156200175057600080fd5b6200175e878388016200168d565b945060208601359150808211156200177557600080fd5b818601915086601f8301126200178a57600080fd5b8135818111156200179a57600080fd5b8760208260051b8501011115620017b057600080fd5b6020830194508093505050509250925092565b600060208284031215620017d657600080fd5b813567ffffffffffffffff811115620017ee57600080fd5b620017fc848285016200168d565b949350505050565b6000602082840312156200181757600080fd5b813562000e8d8162001674565b600080604083850312156200183857600080fd5b8235620018458162001674565b91506020830135620018578162001674565b809150509250929050565b60005b838110156200187f57818101518382015260200162001865565b83811115620005275750506000910152565b60008151808452620018ab81602086016020860162001862565b601f01601f19169290920160200192915050565b60208152600062000e8d602083018462001891565b6020808252825182820181905260009190848201906040850190845b81811015620019175783516001600160a01b031683529284019291840191600101620018f0565b50909695505050505050565b8060020b81146200168a57600080fd5b600080600080600080600060e0888a0312156200194f57600080fd5b87356200195c8162001674565b965060208801356200196e8162001674565b9550604088013562ffffff811681146200198757600080fd5b94506060880135620019998162001674565b9350608088013561ffff81168114620019b157600080fd5b925060a0880135620019c38162001923565b915060c0880135620019d58162001923565b8091505092959891949750929550565b60208082526022908201527f4f776e61626c653a2063616c6c6572206973206e6f7420746865206d616e616760408201526132b960f11b606082015260800190565b634e487b7160e01b600052603260045260246000fd5b6000808335601e1984360301811262001a5557600080fd5b83018035915067ffffffffffffffff82111562001a7157600080fd5b6020019150368190038213156200151657600080fd5b6001600160a01b03841681526040602082018190528101829052818360608301376000818301606090810191909152601f909201601f1916010192915050565b634e487b7160e01b600052601160045260246000fd5b600060001982141562001af45762001af462001ac7565b5060010190565b6000821982111562001b115762001b1162001ac7565b500190565b60006020828403121562001b2957600080fd5b815167ffffffffffffffff8082111562001b4257600080fd5b818401915084601f83011262001b5757600080fd5b81518181111562001b6c5762001b6c6200162a565b62001b81601f8201601f191660200162001640565b915080825285602082850101111562001b9957600080fd5b6200140181602084016020860162001862565b60006020828403121562001bbf57600080fd5b815162000e8d8162001674565b6000855162001be0818460208a0162001862565b85519083019062001bf6818360208a0162001862565b855191019062001c0b81836020890162001862565b845191019062001c2081836020880162001862565b019695505050505050565b63029a82b160e51b81526000825162001c4c81600485016020870162001862565b9190910160040192915050565b60e08152600062001c6e60e083018a62001891565b828103602084015262001c82818a62001891565b6001600160a01b03988916604085015261ffff9790971660608401525050600293840b60808201529190920b60a0820152921660c09092019190915292915050565b634e487b7160e01b600052601260045260246000fd5b60008262001cec5762001cec62001cc4565b500490565b60008282101562001d065762001d0662001ac7565b500390565b600081600019048311821515161562001d285762001d2862001ac7565b500290565b600060ff821660ff84168060ff0382111562001d4d5762001d4d62001ac7565b019392505050565b60006020828403121562001d6857600080fd5b815162000e8d8162001923565b60008260020b8062001d8b5762001d8b62001cc4565b808360020b079150509291505056fe6080604052604051620009e3380380620009e3833981016040819052610024916101ea565b61002e838261003f565b6100378261011b565b5050506102d6565b7f360894a13ba1a3210667c828492db98dca3e2076cc3735a920a3ca505d382bbc8054908390556040516001600160a01b0380851691908316907f5570d70a002632a7b0b3c9304cc89efb62d8da9eca0dbd7752c83b737906829690600090a3815115610116576000836001600160a01b0316836040516100c091906102ba565b600060405180830381855af49150503d80600081146100fb576040519150601f19603f3d011682016040523d82523d6000602084013e610100565b606091505b5050905080610114573d806000803e806000fd5b505b505050565b6000610134600080516020620009c38339815191525490565b905081600080516020620009c383398151915255816001600160a01b0316816001600160a01b03167fdf435d422321da6b195902d70fc417c06a32f88379c20dd8f2a8da07088cec2960405160405180910390a35050565b80516001600160a01b03811681146101a357600080fd5b919050565b634e487b7160e01b600052604160045260246000fd5b60005b838110156101d95781810151838201526020016101c1565b838111156101145750506000910152565b6000806000606084860312156101ff57600080fd5b6102088461018c565b92506102166020850161018c565b60408501519092506001600160401b038082111561023357600080fd5b818601915086601f83011261024757600080fd5b815181811115610259576102596101a8565b604051601f8201601f19908116603f01168101908382118183101715610281576102816101a8565b8160405282815289602084870101111561029a57600080fd5b6102ab8360208301602088016101be565b80955050505050509250925092565b600082516102cc8184602087016101be565b9190910192915050565b6106dd80620002e66000396000f3fe60806040526004361061004e5760003560e01c806301ffc9a71461009b5780633659cfe6146100d05780633e47158c146100f05780634f1ef2861461011d5780638356ca4f1461013057610091565b366100915760405162461bcd60e51b815260206004820152600e60248201526d115512115497d491529150d5115160921b60448201526064015b60405180910390fd5b610099610150565b005b3480156100a757600080fd5b506100bb6100b636600461051e565b61019b565b60405190151581526020015b60405180910390f35b3480156100dc57600080fd5b506100996100eb366004610564565b610293565b3480156100fc57600080fd5b506101056102ef565b6040516001600160a01b0390911681526020016100c7565b61009961012b36600461057f565b61030c565b34801561013c57600080fd5b5061009961014b366004610564565b610391565b7f360894a13ba1a3210667c828492db98dca3e2076cc3735a920a3ca505d382bbc5460003681823780813683855af491503d8082833e828015610191578183f35b8183fd5b50505050565b60006301ffc9a760e01b6001600160e01b0319831614806101cc57506307f5828d60e41b6001600160e01b03198316145b156101d957506001919050565b6001600160e01b031980831614156101f357506000919050565b7f360894a13ba1a3210667c828492db98dca3e2076cc3735a920a3ca505d382bbc546040516301ffc9a760e01b81526001600160e01b0319841660048201526001600160a01b038216906301ffc9a790602401602060405180830381865afa92505050801561027f575060408051601f3d908101601f1916820190925261027c91810190610602565b60015b61028c5750600092915050565b9392505050565b600080516020610688833981519152546001600160a01b0316336001600160a01b0316146102d35760405162461bcd60e51b815260040161008890610624565b6102ec81604051806020016040528060008152506103da565b50565b60006103076000805160206106888339815191525490565b905090565b600080516020610688833981519152546001600160a01b0316336001600160a01b03161461034c5760405162461bcd60e51b815260040161008890610624565b61038c8383838080601f0160208091040260200160405190810160405280939291908181526020018383808284376000920191909152506103da92505050565b505050565b600080516020610688833981519152546001600160a01b0316336001600160a01b0316146103d15760405162461bcd60e51b815260040161008890610624565b6102ec816104af565b7f360894a13ba1a3210667c828492db98dca3e2076cc3735a920a3ca505d382bbc8054908390556040516001600160a01b0380851691908316907f5570d70a002632a7b0b3c9304cc89efb62d8da9eca0dbd7752c83b737906829690600090a381511561038c576000836001600160a01b03168360405161045b919061064c565b600060405180830381855af49150503d8060008114610496576040519150601f19603f3d011682016040523d82523d6000602084013e61049b565b606091505b5050905080610195573d806000803e806000fd5b60006104c76000805160206106888339815191525490565b90508160008051602061068883398151915255816001600160a01b0316816001600160a01b03167fdf435d422321da6b195902d70fc417c06a32f88379c20dd8f2a8da07088cec2960405160405180910390a35050565b60006020828403121561053057600080fd5b81356001600160e01b03198116811461028c57600080fd5b80356001600160a01b038116811461055f57600080fd5b919050565b60006020828403121561057657600080fd5b61028c82610548565b60008060006040848603121561059457600080fd5b61059d84610548565b9250602084013567ffffffffffffffff808211156105ba57600080fd5b818601915086601f8301126105ce57600080fd5b8135818111156105dd57600080fd5b8760208285010111156105ef57600080fd5b6020830194508093505050509250925092565b60006020828403121561061457600080fd5b8151801515811461028c57600080fd5b6020808252600e908201526d1393d517d055551213d49256915160921b604082015260600190565b6000825160005b8181101561066d5760208186018101518583015201610653565b8181111561067c576000828501525b50919091019291505056feb53127684a568b3173ae13b9f8a6016e243e63b6e8ee1178d6a717850b5d6103a2646970667358221220189b37a0717ae4f101ad34db3beab99a5e527470361d2086befd354a4145ea9e64736f6c634300080a0033b53127684a568b3173ae13b9f8a6016e243e63b6e8ee1178d6a717850b5d6103a26469706673582212200eca8ddfe8d7ce0b4747252612df6e129ffe240d97dc8a05a8c81278f41a9b6b64736f6c634300080a0033",
    "linkReferences": {}
  },
  "methodIdentifiers": {
    "SpindleOracle()": "7da3e463",
    "deployVault(address,address,uint24,address,uint16,int24,int24)": "fef46b28",
    "factory()": "c45a0155",
    "getDeployers()": "607c12b5",
    "getPools(address)": "5c39f467",
    "getProxyAdmin(address)": "f3b7dead",
    "getTokenName(address,address)": "bd30dfb9",
    "index()": "2986c0e5",
    "initialize(address,address)": "485cc955",
    "isPoolImmutable(address)": "95d807f1",
    "makePoolsImmutable(address[])": "260fc2b8",
    "manager()": "481c6a75",
    "numDeployers()": "098eddb1",
    "numPools()": "35c62bc2",
    "numPools(address)": "42f5de99",
    "poolImplementation()": "cefa7799",
    "renounceOwnership()": "715018a6",
    "setPoolImplementation(address)": "d6f74898",
    "transferOwnership(address)": "f2fde38b",
    "upgradePools(address[])": "40aee041",
    "upgradePoolsAndCall(address[],bytes[])": "0dfc574b",
    "version()": "54fd4d50"
  },
  "id": 40
}