{
  "abi": [
    {
      "inputs": [
        {
          "internalType": "address",
          "name": "implementationAddress",
          "type": "address"
        },
        {
          "internalType": "address",
          "name": "adminAddress",
          "type": "address"
        },
        {
          "internalType": "bytes",
          "name": "data",
          "type": "bytes"
        }
      ],
      "stateMutability": "payable",
      "type": "constructor"
    },
    {
      "anonymous": false,
      "inputs": [
        {
          "indexed": true,
          "internalType": "address",
          "name": "previousAdmin",
          "type": "address"
        },
        {
          "indexed": true,
          "internalType": "address",
          "name": "newAdmin",
          "type": "address"
        }
      ],
      "name": "ProxyAdminTransferred",
      "type": "event"
    },
    {
      "anonymous": false,
      "inputs": [
        {
          "indexed": true,
          "internalType": "address",
          "name": "previousImplementation",
          "type": "address"
        },
        {
          "indexed": true,
          "internalType": "address",
          "name": "newImplementation",
          "type": "address"
        }
      ],
      "name": "ProxyImplementationUpdated",
      "type": "event"
    },
    {
      "stateMutability": "payable",
      "type": "fallback"
    },
    {
      "inputs": [],
      "name": "proxyAdmin",
      "outputs": [
        {
          "internalType": "address",
          "name": "",
          "type": "address"
        }
      ],
      "stateMutability": "view",
      "type": "function"
    },
    {
      "inputs": [
        {
          "internalType": "bytes4",
          "name": "id",
          "type": "bytes4"
        }
      ],
      "name": "supportsInterface",
      "outputs": [
        {
          "internalType": "bool",
          "name": "",
          "type": "bool"
        }
      ],
      "stateMutability": "view",
      "type": "function"
    },
    {
      "inputs": [
        {
          "internalType": "address",
          "name": "newAdmin",
          "type": "address"
        }
      ],
      "name": "transferProxyAdmin",
      "outputs": [],
      "stateMutability": "nonpayable",
      "type": "function"
    },
    {
      "inputs": [
        {
          "internalType": "address",
          "name": "newImplementation",
          "type": "address"
        }
      ],
      "name": "upgradeTo",
      "outputs": [],
      "stateMutability": "nonpayable",
      "type": "function"
    },
    {
      "inputs": [
        {
          "internalType": "address",
          "name": "newImplementation",
          "type": "address"
        },
        {
          "internalType": "bytes",
          "name": "data",
          "type": "bytes"
        }
      ],
      "name": "upgradeToAndCall",
      "outputs": [],
      "stateMutability": "payable",
      "type": "function"
    },
    {
      "stateMutability": "payable",
      "type": "receive"
    }
  ],
  "bytecode": {
    "object": "0x6080604052604051620009e3380380620009e3833981016040819052610024916101ea565b61002e838261003f565b6100378261011b565b5050506102d6565b7f360894a13ba1a3210667c828492db98dca3e2076cc3735a920a3ca505d382bbc8054908390556040516001600160a01b0380851691908316907f5570d70a002632a7b0b3c9304cc89efb62d8da9eca0dbd7752c83b737906829690600090a3815115610116576000836001600160a01b0316836040516100c091906102ba565b600060405180830381855af49150503d80600081146100fb576040519150601f19603f3d011682016040523d82523d6000602084013e610100565b606091505b5050905080610114573d806000803e806000fd5b505b505050565b6000610134600080516020620009c38339815191525490565b905081600080516020620009c383398151915255816001600160a01b0316816001600160a01b03167fdf435d422321da6b195902d70fc417c06a32f88379c20dd8f2a8da07088cec2960405160405180910390a35050565b80516001600160a01b03811681146101a357600080fd5b919050565b634e487b7160e01b600052604160045260246000fd5b60005b838110156101d95781810151838201526020016101c1565b838111156101145750506000910152565b6000806000606084860312156101ff57600080fd5b6102088461018c565b92506102166020850161018c565b60408501519092506001600160401b038082111561023357600080fd5b818601915086601f83011261024757600080fd5b815181811115610259576102596101a8565b604051601f8201601f19908116603f01168101908382118183101715610281576102816101a8565b8160405282815289602084870101111561029a57600080fd5b6102ab8360208301602088016101be565b80955050505050509250925092565b600082516102cc8184602087016101be565b9190910192915050565b6106dd80620002e66000396000f3fe60806040526004361061004e5760003560e01c806301ffc9a71461009b5780633659cfe6146100d05780633e47158c146100f05780634f1ef2861461011d5780638356ca4f1461013057610091565b366100915760405162461bcd60e51b815260206004820152600e60248201526d115512115497d491529150d5115160921b60448201526064015b60405180910390fd5b610099610150565b005b3480156100a757600080fd5b506100bb6100b636600461051e565b61019b565b60405190151581526020015b60405180910390f35b3480156100dc57600080fd5b506100996100eb366004610564565b610293565b3480156100fc57600080fd5b506101056102ef565b6040516001600160a01b0390911681526020016100c7565b61009961012b36600461057f565b61030c565b34801561013c57600080fd5b5061009961014b366004610564565b610391565b7f360894a13ba1a3210667c828492db98dca3e2076cc3735a920a3ca505d382bbc5460003681823780813683855af491503d8082833e828015610191578183f35b8183fd5b50505050565b60006301ffc9a760e01b6001600160e01b0319831614806101cc57506307f5828d60e41b6001600160e01b03198316145b156101d957506001919050565b6001600160e01b031980831614156101f357506000919050565b7f360894a13ba1a3210667c828492db98dca3e2076cc3735a920a3ca505d382bbc546040516301ffc9a760e01b81526001600160e01b0319841660048201526001600160a01b038216906301ffc9a790602401602060405180830381865afa92505050801561027f575060408051601f3d908101601f1916820190925261027c91810190610602565b60015b61028c5750600092915050565b9392505050565b600080516020610688833981519152546001600160a01b0316336001600160a01b0316146102d35760405162461bcd60e51b815260040161008890610624565b6102ec81604051806020016040528060008152506103da565b50565b60006103076000805160206106888339815191525490565b905090565b600080516020610688833981519152546001600160a01b0316336001600160a01b03161461034c5760405162461bcd60e51b815260040161008890610624565b61038c8383838080601f0160208091040260200160405190810160405280939291908181526020018383808284376000920191909152506103da92505050565b505050565b600080516020610688833981519152546001600160a01b0316336001600160a01b0316146103d15760405162461bcd60e51b815260040161008890610624565b6102ec816104af565b7f360894a13ba1a3210667c828492db98dca3e2076cc3735a920a3ca505d382bbc8054908390556040516001600160a01b0380851691908316907f5570d70a002632a7b0b3c9304cc89efb62d8da9eca0dbd7752c83b737906829690600090a381511561038c576000836001600160a01b03168360405161045b919061064c565b600060405180830381855af49150503d8060008114610496576040519150601f19603f3d011682016040523d82523d6000602084013e61049b565b606091505b5050905080610195573d806000803e806000fd5b60006104c76000805160206106888339815191525490565b90508160008051602061068883398151915255816001600160a01b0316816001600160a01b03167fdf435d422321da6b195902d70fc417c06a32f88379c20dd8f2a8da07088cec2960405160405180910390a35050565b60006020828403121561053057600080fd5b81356001600160e01b03198116811461028c57600080fd5b80356001600160a01b038116811461055f57600080fd5b919050565b60006020828403121561057657600080fd5b61028c82610548565b60008060006040848603121561059457600080fd5b61059d84610548565b9250602084013567ffffffffffffffff808211156105ba57600080fd5b818601915086601f8301126105ce57600080fd5b8135818111156105dd57600080fd5b8760208285010111156105ef57600080fd5b6020830194508093505050509250925092565b60006020828403121561061457600080fd5b8151801515811461028c57600080fd5b6020808252600e908201526d1393d517d055551213d49256915160921b604082015260600190565b6000825160005b8181101561066d5760208186018101518583015201610653565b8181111561067c576000828501525b50919091019291505056feb53127684a568b3173ae13b9f8a6016e243e63b6e8ee1178d6a717850b5d6103a2646970667358221220189b37a0717ae4f101ad34db3beab99a5e527470361d2086befd354a4145ea9e64736f6c634300080a0033b53127684a568b3173ae13b9f8a6016e243e63b6e8ee1178d6a717850b5d6103",
    "linkReferences": {}
  },
  "methodIdentifiers": {
    "proxyAdmin()": "3e47158c",
    "supportsInterface(bytes4)": "01ffc9a7",
    "transferProxyAdmin(address)": "8356ca4f",
    "upgradeTo(address)": "3659cfe6",
    "upgradeToAndCall(address,bytes)": "4f1ef286"
  },
  "id": 60
}