{
  "abi": [
    {
      "anonymous": false,
      "inputs": [
        {
          "indexed": true,
          "internalType": "address",
          "name": "owner",
          "type": "address"
        },
        {
          "indexed": true,
          "internalType": "address",
          "name": "spender",
          "type": "address"
        },
        {
          "indexed": false,
          "internalType": "uint256",
          "name": "value",
          "type": "uint256"
        }
      ],
      "name": "Approval",
      "type": "event"
    },
    {
      "anonymous": false,
      "inputs": [
        {
          "indexed": false,
          "internalType": "address",
          "name": "receiver",
          "type": "address"
        },
        {
          "indexed": false,
          "internalType": "uint256",
          "name": "burnAmount",
          "type": "uint256"
        },
        {
          "indexed": false,
          "internalType": "uint256",
          "name": "amount0Out",
          "type": "uint256"
        },
        {
          "indexed": false,
          "internalType": "uint256",
          "name": "amount1Out",
          "type": "uint256"
        },
        {
          "indexed": false,
          "internalType": "uint128",
          "name": "liquidityBurned",
          "type": "uint128"
        }
      ],
      "name": "Burned",
      "type": "event"
    },
    {
      "anonymous": false,
      "inputs": [
        {
          "indexed": false,
          "internalType": "uint256",
          "name": "feesEarned0",
          "type": "uint256"
        },
        {
          "indexed": false,
          "internalType": "uint256",
          "name": "feesEarned1",
          "type": "uint256"
        }
      ],
      "name": "FeesEarned",
      "type": "event"
    },
    {
      "anonymous": false,
      "inputs": [
        {
          "indexed": false,
          "internalType": "uint8",
          "name": "version",
          "type": "uint8"
        }
      ],
      "name": "Initialized",
      "type": "event"
    },
    {
      "anonymous": false,
      "inputs": [
        {
          "indexed": false,
          "internalType": "address",
          "name": "receiver",
          "type": "address"
        },
        {
          "indexed": false,
          "internalType": "uint256",
          "name": "mintAmount",
          "type": "uint256"
        },
        {
          "indexed": false,
          "internalType": "uint256",
          "name": "amount0In",
          "type": "uint256"
        },
        {
          "indexed": false,
          "internalType": "uint256",
          "name": "amount1In",
          "type": "uint256"
        },
        {
          "indexed": false,
          "internalType": "uint128",
          "name": "liquidityMinted",
          "type": "uint128"
        }
      ],
      "name": "Minted",
      "type": "event"
    },
    {
      "anonymous": false,
      "inputs": [
        {
          "indexed": true,
          "internalType": "address",
          "name": "previousManager",
          "type": "address"
        },
        {
          "indexed": true,
          "internalType": "address",
          "name": "newManager",
          "type": "address"
        }
      ],
      "name": "OwnershipTransferred",
      "type": "event"
    },
    {
      "anonymous": false,
      "inputs": [
        {
          "indexed": false,
          "internalType": "enum SpindleVault.AuctionType",
          "name": "auctionType",
          "type": "uint8"
        },
        {
          "indexed": false,
          "internalType": "uint256",
          "name": "auctionTriggerTime",
          "type": "uint256"
        },
        {
          "indexed": false,
          "internalType": "int24",
          "name": "lowerTick_",
          "type": "int24"
        },
        {
          "indexed": false,
          "internalType": "int24",
          "name": "upperTick_",
          "type": "int24"
        },
        {
          "indexed": false,
          "internalType": "uint256",
          "name": "amount0Exchanged",
          "type": "uint256"
        },
        {
          "indexed": false,
          "internalType": "uint256",
          "name": "amount1Exchanged",
          "type": "uint256"
        },
        {
          "indexed": false,
          "internalType": "bool",
          "name": "zeroForOne",
          "type": "bool"
        }
      ],
      "name": "Recenter",
      "type": "event"
    },
    {
      "anonymous": false,
      "inputs": [
        {
          "indexed": false,
          "internalType": "int24",
          "name": "lowerTick_",
          "type": "int24"
        },
        {
          "indexed": false,
          "internalType": "int24",
          "name": "upperTick_",
          "type": "int24"
        },
        {
          "indexed": false,
          "internalType": "uint128",
          "name": "liquidityBefore",
          "type": "uint128"
        },
        {
          "indexed": false,
          "internalType": "uint128",
          "name": "liquidityAfter",
          "type": "uint128"
        }
      ],
      "name": "Reinvest",
      "type": "event"
    },
    {
      "anonymous": false,
      "inputs": [
        {
          "indexed": true,
          "internalType": "address",
          "name": "from",
          "type": "address"
        },
        {
          "indexed": true,
          "internalType": "address",
          "name": "to",
          "type": "address"
        },
        {
          "indexed": false,
          "internalType": "uint256",
          "name": "value",
          "type": "uint256"
        }
      ],
      "name": "Transfer",
      "type": "event"
    },
    {
      "anonymous": false,
      "inputs": [
        {
          "indexed": false,
          "internalType": "uint16",
          "name": "managerFeeBPS",
          "type": "uint16"
        },
        {
          "indexed": false,
          "internalType": "address",
          "name": "managerTreasury",
          "type": "address"
        },
        {
          "indexed": false,
          "internalType": "uint16",
          "name": "reinvestBPS",
          "type": "uint16"
        },
        {
          "indexed": false,
          "internalType": "uint24",
          "name": "minTickThreshold",
          "type": "uint24"
        },
        {
          "indexed": false,
          "internalType": "uint24",
          "name": "tickThreshold",
          "type": "uint24"
        },
        {
          "indexed": false,
          "internalType": "uint16",
          "name": "ivThresholdBPS",
          "type": "uint16"
        },
        {
          "indexed": false,
          "internalType": "uint32",
          "name": "timeThreshold",
          "type": "uint32"
        },
        {
          "indexed": false,
          "internalType": "uint16",
          "name": "stdBPS",
          "type": "uint16"
        }
      ],
      "name": "UpdateManagerParams",
      "type": "event"
    },
    {
      "inputs": [],
      "name": "A",
      "outputs": [
        {
          "internalType": "uint256",
          "name": "",
          "type": "uint256"
        }
      ],
      "stateMutability": "view",
      "type": "function"
    },
    {
      "inputs": [],
      "name": "AUCTION_TIME",
      "outputs": [
        {
          "internalType": "uint16",
          "name": "",
          "type": "uint16"
        }
      ],
      "stateMutability": "view",
      "type": "function"
    },
    {
      "inputs": [],
      "name": "B",
      "outputs": [
        {
          "internalType": "uint256",
          "name": "",
          "type": "uint256"
        }
      ],
      "stateMutability": "view",
      "type": "function"
    },
    {
      "inputs": [],
      "name": "C",
      "outputs": [
        {
          "internalType": "uint256",
          "name": "",
          "type": "uint256"
        }
      ],
      "stateMutability": "view",
      "type": "function"
    },
    {
      "inputs": [],
      "name": "MAX_PRICE_MULTIPLIER_BPS",
      "outputs": [
        {
          "internalType": "uint16",
          "name": "",
          "type": "uint16"
        }
      ],
      "stateMutability": "view",
      "type": "function"
    },
    {
      "inputs": [],
      "name": "MAX_TICK",
      "outputs": [
        {
          "internalType": "int24",
          "name": "",
          "type": "int24"
        }
      ],
      "stateMutability": "view",
      "type": "function"
    },
    {
      "inputs": [],
      "name": "MAX_WIDTH",
      "outputs": [
        {
          "internalType": "int24",
          "name": "",
          "type": "int24"
        }
      ],
      "stateMutability": "view",
      "type": "function"
    },
    {
      "inputs": [],
      "name": "MIN_PRICE_MULTIPLIER_BPS",
      "outputs": [
        {
          "internalType": "uint16",
          "name": "",
          "type": "uint16"
        }
      ],
      "stateMutability": "view",
      "type": "function"
    },
    {
      "inputs": [],
      "name": "MIN_TICK",
      "outputs": [
        {
          "internalType": "int24",
          "name": "",
          "type": "int24"
        }
      ],
      "stateMutability": "view",
      "type": "function"
    },
    {
      "inputs": [],
      "name": "MIN_WIDTH",
      "outputs": [
        {
          "internalType": "int24",
          "name": "",
          "type": "int24"
        }
      ],
      "stateMutability": "view",
      "type": "function"
    },
    {
      "inputs": [],
      "name": "SpindleOracle",
      "outputs": [
        {
          "internalType": "contract ISpindleOracle",
          "name": "",
          "type": "address"
        }
      ],
      "stateMutability": "view",
      "type": "function"
    },
    {
      "inputs": [],
      "name": "TICK_SPACING",
      "outputs": [
        {
          "internalType": "int24",
          "name": "",
          "type": "int24"
        }
      ],
      "stateMutability": "view",
      "type": "function"
    },
    {
      "inputs": [],
      "name": "TWAP_PERIOD",
      "outputs": [
        {
          "internalType": "uint32",
          "name": "",
          "type": "uint32"
        }
      ],
      "stateMutability": "view",
      "type": "function"
    },
    {
      "inputs": [
        {
          "internalType": "address",
          "name": "owner",
          "type": "address"
        },
        {
          "internalType": "address",
          "name": "spender",
          "type": "address"
        }
      ],
      "name": "allowance",
      "outputs": [
        {
          "internalType": "uint256",
          "name": "",
          "type": "uint256"
        }
      ],
      "stateMutability": "view",
      "type": "function"
    },
    {
      "inputs": [
        {
          "internalType": "address",
          "name": "spender",
          "type": "address"
        },
        {
          "internalType": "uint256",
          "name": "amount",
          "type": "uint256"
        }
      ],
      "name": "approve",
      "outputs": [
        {
          "internalType": "bool",
          "name": "",
          "type": "bool"
        }
      ],
      "stateMutability": "nonpayable",
      "type": "function"
    },
    {
      "inputs": [
        {
          "internalType": "address",
          "name": "account",
          "type": "address"
        }
      ],
      "name": "balanceOf",
      "outputs": [
        {
          "internalType": "uint256",
          "name": "",
          "type": "uint256"
        }
      ],
      "stateMutability": "view",
      "type": "function"
    },
    {
      "inputs": [
        {
          "internalType": "uint256",
          "name": "burnAmount",
          "type": "uint256"
        },
        {
          "internalType": "address",
          "name": "receiver",
          "type": "address"
        }
      ],
      "name": "burn",
      "outputs": [
        {
          "internalType": "uint256",
          "name": "amount0",
          "type": "uint256"
        },
        {
          "internalType": "uint256",
          "name": "amount1",
          "type": "uint256"
        },
        {
          "internalType": "uint128",
          "name": "liquidityBurned",
          "type": "uint128"
        }
      ],
      "stateMutability": "nonpayable",
      "type": "function"
    },
    {
      "inputs": [],
      "name": "decimals",
      "outputs": [
        {
          "internalType": "uint8",
          "name": "",
          "type": "uint8"
        }
      ],
      "stateMutability": "view",
      "type": "function"
    },
    {
      "inputs": [
        {
          "internalType": "address",
          "name": "spender",
          "type": "address"
        },
        {
          "internalType": "uint256",
          "name": "subtractedValue",
          "type": "uint256"
        }
      ],
      "name": "decreaseAllowance",
      "outputs": [
        {
          "internalType": "bool",
          "name": "",
          "type": "bool"
        }
      ],
      "stateMutability": "nonpayable",
      "type": "function"
    },
    {
      "inputs": [
        {
          "internalType": "uint256",
          "name": "amount0Max",
          "type": "uint256"
        },
        {
          "internalType": "uint256",
          "name": "amount1Max",
          "type": "uint256"
        }
      ],
      "name": "getMintAmounts",
      "outputs": [
        {
          "internalType": "uint256",
          "name": "amount0",
          "type": "uint256"
        },
        {
          "internalType": "uint256",
          "name": "amount1",
          "type": "uint256"
        },
        {
          "internalType": "uint256",
          "name": "mintAmount",
          "type": "uint256"
        }
      ],
      "stateMutability": "nonpayable",
      "type": "function"
    },
    {
      "inputs": [],
      "name": "getUnderlyingBalances",
      "outputs": [
        {
          "internalType": "uint256",
          "name": "amount0Current",
          "type": "uint256"
        },
        {
          "internalType": "uint256",
          "name": "amount1Current",
          "type": "uint256"
        }
      ],
      "stateMutability": "nonpayable",
      "type": "function"
    },
    {
      "inputs": [
        {
          "internalType": "uint160",
          "name": "sqrtRatioX96",
          "type": "uint160"
        }
      ],
      "name": "getUnderlyingBalancesAtPrice",
      "outputs": [
        {
          "internalType": "uint256",
          "name": "amount0Current",
          "type": "uint256"
        },
        {
          "internalType": "uint256",
          "name": "amount1Current",
          "type": "uint256"
        }
      ],
      "stateMutability": "nonpayable",
      "type": "function"
    },
    {
      "inputs": [
        {
          "internalType": "address",
          "name": "spender",
          "type": "address"
        },
        {
          "internalType": "uint256",
          "name": "addedValue",
          "type": "uint256"
        }
      ],
      "name": "increaseAllowance",
      "outputs": [
        {
          "internalType": "bool",
          "name": "",
          "type": "bool"
        }
      ],
      "stateMutability": "nonpayable",
      "type": "function"
    },
    {
      "inputs": [
        {
          "internalType": "string",
          "name": "_name",
          "type": "string"
        },
        {
          "internalType": "string",
          "name": "_symbol",
          "type": "string"
        },
        {
          "internalType": "address",
          "name": "_pool",
          "type": "address"
        },
        {
          "internalType": "uint16",
          "name": "_managerFeeBPS",
          "type": "uint16"
        },
        {
          "internalType": "int24",
          "name": "_lowerTick",
          "type": "int24"
        },
        {
          "internalType": "int24",
          "name": "_upperTick",
          "type": "int24"
        },
        {
          "internalType": "address",
          "name": "_manager_",
          "type": "address"
        }
      ],
      "name": "initialize",
      "outputs": [],
      "stateMutability": "nonpayable",
      "type": "function"
    },
    {
      "inputs": [],
      "name": "ivAtLastRecenter",
      "outputs": [
        {
          "internalType": "uint256",
          "name": "",
          "type": "uint256"
        }
      ],
      "stateMutability": "view",
      "type": "function"
    },
    {
      "inputs": [
        {
          "internalType": "uint256",
          "name": "amount0Min",
          "type": "uint256"
        },
        {
          "internalType": "uint256",
          "name": "amount1Min",
          "type": "uint256"
        }
      ],
      "name": "ivRecenter",
      "outputs": [],
      "stateMutability": "nonpayable",
      "type": "function"
    },
    {
      "inputs": [],
      "name": "ivThresholdBPS",
      "outputs": [
        {
          "internalType": "uint16",
          "name": "",
          "type": "uint16"
        }
      ],
      "stateMutability": "view",
      "type": "function"
    },
    {
      "inputs": [],
      "name": "manager",
      "outputs": [
        {
          "internalType": "address",
          "name": "",
          "type": "address"
        }
      ],
      "stateMutability": "view",
      "type": "function"
    },
    {
      "inputs": [],
      "name": "managerBalance0",
      "outputs": [
        {
          "internalType": "uint256",
          "name": "",
          "type": "uint256"
        }
      ],
      "stateMutability": "view",
      "type": "function"
    },
    {
      "inputs": [],
      "name": "managerBalance1",
      "outputs": [
        {
          "internalType": "uint256",
          "name": "",
          "type": "uint256"
        }
      ],
      "stateMutability": "view",
      "type": "function"
    },
    {
      "inputs": [],
      "name": "managerFeeBPS",
      "outputs": [
        {
          "internalType": "uint16",
          "name": "",
          "type": "uint16"
        }
      ],
      "stateMutability": "view",
      "type": "function"
    },
    {
      "inputs": [],
      "name": "managerTreasury",
      "outputs": [
        {
          "internalType": "address",
          "name": "",
          "type": "address"
        }
      ],
      "stateMutability": "view",
      "type": "function"
    },
    {
      "inputs": [],
      "name": "minTickThreshold",
      "outputs": [
        {
          "internalType": "uint24",
          "name": "",
          "type": "uint24"
        }
      ],
      "stateMutability": "view",
      "type": "function"
    },
    {
      "inputs": [
        {
          "internalType": "uint256",
          "name": "mintAmount",
          "type": "uint256"
        },
        {
          "internalType": "address",
          "name": "receiver",
          "type": "address"
        }
      ],
      "name": "mint",
      "outputs": [
        {
          "internalType": "uint256",
          "name": "amount0",
          "type": "uint256"
        },
        {
          "internalType": "uint256",
          "name": "amount1",
          "type": "uint256"
        },
        {
          "internalType": "uint128",
          "name": "liquidityMinted",
          "type": "uint128"
        }
      ],
      "stateMutability": "nonpayable",
      "type": "function"
    },
    {
      "inputs": [],
      "name": "name",
      "outputs": [
        {
          "internalType": "string",
          "name": "",
          "type": "string"
        }
      ],
      "stateMutability": "view",
      "type": "function"
    },
    {
      "inputs": [],
      "name": "packedSlot",
      "outputs": [
        {
          "internalType": "int24",
          "name": "primaryLower",
          "type": "int24"
        },
        {
          "internalType": "int24",
          "name": "primaryUpper",
          "type": "int24"
        },
        {
          "internalType": "int24",
          "name": "limitLower",
          "type": "int24"
        },
        {
          "internalType": "int24",
          "name": "limitUpper",
          "type": "int24"
        },
        {
          "internalType": "bool",
          "name": "locked",
          "type": "bool"
        }
      ],
      "stateMutability": "view",
      "type": "function"
    },
    {
      "inputs": [],
      "name": "pool",
      "outputs": [
        {
          "internalType": "contract IUniswapV3Pool",
          "name": "",
          "type": "address"
        }
      ],
      "stateMutability": "view",
      "type": "function"
    },
    {
      "inputs": [],
      "name": "reinvest",
      "outputs": [],
      "stateMutability": "nonpayable",
      "type": "function"
    },
    {
      "inputs": [],
      "name": "reinvestBPS",
      "outputs": [
        {
          "internalType": "uint16",
          "name": "",
          "type": "uint16"
        }
      ],
      "stateMutability": "view",
      "type": "function"
    },
    {
      "inputs": [],
      "name": "renounceOwnership",
      "outputs": [],
      "stateMutability": "nonpayable",
      "type": "function"
    },
    {
      "inputs": [],
      "name": "symbol",
      "outputs": [
        {
          "internalType": "string",
          "name": "",
          "type": "string"
        }
      ],
      "stateMutability": "view",
      "type": "function"
    },
    {
      "inputs": [],
      "name": "tickAtLastRecenter",
      "outputs": [
        {
          "internalType": "int24",
          "name": "",
          "type": "int24"
        }
      ],
      "stateMutability": "view",
      "type": "function"
    },
    {
      "inputs": [
        {
          "internalType": "uint256",
          "name": "auctionTriggerTime",
          "type": "uint256"
        },
        {
          "internalType": "uint256",
          "name": "amount0Min",
          "type": "uint256"
        },
        {
          "internalType": "uint256",
          "name": "amount1Min",
          "type": "uint256"
        }
      ],
      "name": "tickRecenter",
      "outputs": [],
      "stateMutability": "nonpayable",
      "type": "function"
    },
    {
      "inputs": [],
      "name": "tickThreshold",
      "outputs": [
        {
          "internalType": "uint24",
          "name": "",
          "type": "uint24"
        }
      ],
      "stateMutability": "view",
      "type": "function"
    },
    {
      "inputs": [],
      "name": "timeAtLastRecenter",
      "outputs": [
        {
          "internalType": "uint256",
          "name": "",
          "type": "uint256"
        }
      ],
      "stateMutability": "view",
      "type": "function"
    },
    {
      "inputs": [
        {
          "internalType": "uint256",
          "name": "amount0Min",
          "type": "uint256"
        },
        {
          "internalType": "uint256",
          "name": "amount1Min",
          "type": "uint256"
        }
      ],
      "name": "timeRecenter",
      "outputs": [],
      "stateMutability": "nonpayable",
      "type": "function"
    },
    {
      "inputs": [],
      "name": "timeThreshold",
      "outputs": [
        {
          "internalType": "uint32",
          "name": "",
          "type": "uint32"
        }
      ],
      "stateMutability": "view",
      "type": "function"
    },
    {
      "inputs": [],
      "name": "token0",
      "outputs": [
        {
          "internalType": "contract IERC20",
          "name": "",
          "type": "address"
        }
      ],
      "stateMutability": "view",
      "type": "function"
    },
    {
      "inputs": [],
      "name": "token1",
      "outputs": [
        {
          "internalType": "contract IERC20",
          "name": "",
          "type": "address"
        }
      ],
      "stateMutability": "view",
      "type": "function"
    },
    {
      "inputs": [],
      "name": "totalSupply",
      "outputs": [
        {
          "internalType": "uint256",
          "name": "",
          "type": "uint256"
        }
      ],
      "stateMutability": "view",
      "type": "function"
    },
    {
      "inputs": [
        {
          "internalType": "address",
          "name": "to",
          "type": "address"
        },
        {
          "internalType": "uint256",
          "name": "amount",
          "type": "uint256"
        }
      ],
      "name": "transfer",
      "outputs": [
        {
          "internalType": "bool",
          "name": "",
          "type": "bool"
        }
      ],
      "stateMutability": "nonpayable",
      "type": "function"
    },
    {
      "inputs": [
        {
          "internalType": "address",
          "name": "from",
          "type": "address"
        },
        {
          "internalType": "address",
          "name": "to",
          "type": "address"
        },
        {
          "internalType": "uint256",
          "name": "amount",
          "type": "uint256"
        }
      ],
      "name": "transferFrom",
      "outputs": [
        {
          "internalType": "bool",
          "name": "",
          "type": "bool"
        }
      ],
      "stateMutability": "nonpayable",
      "type": "function"
    },
    {
      "inputs": [
        {
          "internalType": "address",
          "name": "newOwner",
          "type": "address"
        }
      ],
      "name": "transferOwnership",
      "outputs": [],
      "stateMutability": "nonpayable",
      "type": "function"
    },
    {
      "inputs": [
        {
          "internalType": "uint256",
          "name": "amount0Owed",
          "type": "uint256"
        },
        {
          "internalType": "uint256",
          "name": "amount1Owed",
          "type": "uint256"
        },
        {
          "internalType": "bytes",
          "name": "",
          "type": "bytes"
        }
      ],
      "name": "uniswapV3MintCallback",
      "outputs": [],
      "stateMutability": "nonpayable",
      "type": "function"
    },
    {
      "inputs": [
        {
          "internalType": "int16",
          "name": "newManagerFeeBPS",
          "type": "int16"
        },
        {
          "internalType": "address",
          "name": "newManagerTreasury",
          "type": "address"
        },
        {
          "internalType": "int16",
          "name": "newReinvestBPS",
          "type": "int16"
        },
        {
          "internalType": "int24",
          "name": "newMinTickThreshold",
          "type": "int24"
        },
        {
          "internalType": "int24",
          "name": "newTickThreshold",
          "type": "int24"
        },
        {
          "internalType": "int16",
          "name": "newIVThresholdBPS",
          "type": "int16"
        },
        {
          "internalType": "int32",
          "name": "newTimeThreshold",
          "type": "int32"
        },
        {
          "internalType": "int16",
          "name": "newZScoreBPS",
          "type": "int16"
        }
      ],
      "name": "updateManagerParams",
      "outputs": [],
      "stateMutability": "nonpayable",
      "type": "function"
    },
    {
      "inputs": [],
      "name": "version",
      "outputs": [
        {
          "internalType": "string",
          "name": "",
          "type": "string"
        }
      ],
      "stateMutability": "view",
      "type": "function"
    },
    {
      "inputs": [],
      "name": "withdrawManagerBalance",
      "outputs": [],
      "stateMutability": "nonpayable",
      "type": "function"
    }
  ],
  "bytecode": {
    "object": "0x608060405234801561001057600080fd5b50615c1880620000216000396000f3fe608060405234801561001057600080fd5b50600436106103835760003560e01c80637da3e463116101de578063cc95353e1161010f578063e25e15e3116100ad578063f2fde38b1161007c578063f2fde38b14610832578063f446c1d014610845578063fcd3533c1461084e578063fdb5a03e1461086157600080fd5b8063e25e15e3146107f0578063e592301a14610803578063ea299ee11461080c578063efa5a1dd1461081f57600080fd5b8063d3487997116100e9578063d348799714610753578063da0c6a4314610766578063da3848db1461076f578063dd62ed3e146107dd57600080fd5b8063cc95353e14610719578063ccdf7a0214610732578063d21220a71461074057600080fd5b80639894f21a1161017c578063a9059cbb11610156578063a9059cbb146106d5578063b420684b146106e8578063b670ed7d146106fd578063c620033f1461071057600080fd5b80639894f21a14610680578063a1634b14146106ae578063a457c2d7146106c257600080fd5b806383dfe5fd116101b857806383dfe5fd14610628578063874794871461063157806394bf804d1461064157806395d89b411461067857600080fd5b80637da3e463146106045780637ecd67171461061757806383db382d1461061f57600080fd5b806342fb9d44116102b8578063642f10a211610256578063715018a611610230578063715018a6146105c157806375c7b115146105c9578063778d9010146105de5780637ca25184146105e757600080fd5b8063642f10a21461057b5780636882a8881461058457806370a082311461059857600080fd5b8063481c6a7511610292578063481c6a751461051d57806351b7937d1461052e57806354fd4d501461054157806358a392a41461056557600080fd5b806342fb9d44146104c35780634524c4ab146104cc57806346ca626b146104f657600080fd5b806318160ddd116103255780633111a6ec116102ff5780633111a6ec1461048f578063313ce5671461049857806332e7c5bf146104a757806339509351146104b057600080fd5b806318160ddd1461044c57806323b872dd146104545780632b7d950a1461046757600080fd5b8063095ea7b311610361578063095ea7b3146103ce5780630dfe1681146103f15780631322d9541461041c57806316f0115b1461043957600080fd5b806303cdfa9c14610388578063065756db1461039d57806306fdde03146103b9575b600080fd5b61039b6103963660046150bf565b610869565b005b6103a6606a5481565b6040519081526020015b60405180910390f35b6103c1610b94565b6040516103b09190615190565b6103e16103dc3660046151c3565b610c26565b60405190151581526020016103b0565b606d54610404906001600160a01b031681565b6040516001600160a01b0390911681526020016103b0565b610424610c40565b604080519283526020830191909152016103b0565b606c54610404906001600160a01b031681565b6035546103a6565b6103e16104623660046151ef565b610ceb565b60655461047c90600160a01b900461ffff1681565b60405161ffff90911681526020016103b0565b6103a660675481565b604051601281526020016103b0565b6103a660705481565b6103e16104be3660046151c3565b610d11565b6103a6606b5481565b6065546104e290600160c81b900462ffffff1681565b60405162ffffff90911681526020016103b0565b606e5461050a90600160a01b900460020b81565b60405160029190910b81526020016103b0565b6065546001600160a01b0316610404565b61039b61053c366004615230565b610d33565b6103c1604051806040016040528060058152602001640312e302e360dc1b81525081565b6065546104e290600160b01b900462ffffff1681565b6103a660685481565b606e5461050a90600160d01b900460020b81565b6103a66105a6366004615252565b6001600160a01b031660009081526033602052604090205490565b61039b610e52565b60655461047c90600160e01b900461ffff1681565b61047c61251c81565b6105ef60b481565b60405163ffffffff90911681526020016103b0565b607254610404906001600160a01b031681565b61039b610eaf565b61050a61019281565b6103a660715481565b6066546105ef9063ffffffff1681565b61065461064f36600461526f565b610f19565b6040805193845260208401929092526001600160801b0316908201526060016103b0565b6103c16111bd565b61069361068e366004615230565b6111cc565b604080519384526020840192909252908201526060016103b0565b606e5461050a90600160b81b900460020b81565b6103e16106d03660046151c3565b6112cb565b6103e16106e33660046151c3565b611351565b60665461050a90640100000000900460020b81565b61042461070b366004615252565b61135f565b61050a616c5081565b606954610404906201000090046001600160a01b031681565b60695461047c9061ffff1681565b606e54610404906001600160a01b031681565b61039b61076136600461529f565b61137c565b61047c61290481565b6073546107a890600281810b9163010000008104820b91600160301b8204810b91600160481b810490910b90600160601b900460ff1685565b60408051600296870b815294860b602086015292850b9284019290925290920b6060820152901515608082015260a0016103b0565b6103a66107eb36600461531f565b611402565b61039b6107fe366004615400565b61142d565b61047c61025881565b61039b61081a366004615230565b611835565b61039b61082d3660046154c3565b61196a565b61039b610840366004615252565b611b24565b6103a6606f5481565b61065461085c36600461526f565b611c20565b61039b611fa1565b3361087c6065546001600160a01b031690565b6001600160a01b0316146108ab5760405162461bcd60e51b81526004016108a2906154ef565b60405180910390fd5b6127108660010b13156108d05760405162461bcd60e51b81526004016108a290615531565b6127108860010b13156108f55760405162461bcd60e51b81526004016108a290615531565b60008860010b12610912576069805461ffff191661ffff8a161790555b6001600160a01b03871615610944576069805462010000600160b01b031916620100006001600160a01b038a16021790555b60008660010b1261096a576065805461ffff60a01b1916600160a01b61ffff8916021790555b60008560020b12610992576065805462ffffff60b01b1916600160b01b62ffffff8816021790555b60008460020b126109ba576065805462ffffff60c81b1916600160c81b62ffffff8716021790555b60008360010b126109e0576065805461ffff60e01b1916600160e01b61ffff8616021790555b60008260030b12610a01576066805463ffffffff191663ffffffff84161790555b60008160010b12158015610a19575060008260030b12155b15610a9b576064610a4862015180610a3963ffffffff8616612710615564565b610a439190615599565b612321565b610a569061ffff8416615564565b610a609190615599565b6070819055610a71906101926123bf565b67ffffffffffffffff16606f55607054610a8d90616c506123bf565b67ffffffffffffffff166071555b60655460695461271091610abd9161ffff600160a01b909204821691166155ad565b61ffff161115610adf5760405162461bcd60e51b81526004016108a290615531565b6069546065546066546040805161ffff8086168252620100009095046001600160a01b03166020820152600160a01b8404851691810191909152600160b01b830462ffffff9081166060830152600160c81b8404166080820152600160e01b909204831660a083015263ffffffff1660c082015290821660e08201527fbcd4d3e49408df8630829e5943ceb11875f295e43e0b3d3009e9ffd83ff4fcd190610100015b60405180910390a15050505050505050565b606060368054610ba3906155d3565b80601f0160208091040260200160405190810160405280929190818152602001828054610bcf906155d3565b8015610c1c5780601f10610bf157610100808354040283529160200191610c1c565b820191906000526020600020905b815481529060010190602001808311610bff57829003601f168201915b5050505050905090565b600033610c34818585612434565b60019150505b92915050565b600080600080610c4e612558565b915091506000606c60009054906101000a90046001600160a01b03166001600160a01b0316633850c7bd6040518163ffffffff1660e01b815260040160e060405180830381865afa158015610ca7573d6000803e3d6000fd5b505050506040513d601f19601f82011682018060405250810190610ccb919061561e565b5050505050509050610cde83838361264e565b5090969095509350505050565b600033610cf9858285612886565b610d048585856128fa565b60019150505b9392505050565b600033610c34818585610d248383611402565b610d2e91906156bb565b612434565b606654606854600091610d4e9163ffffffff909116906156bb565b905080421015610da05760405162461bcd60e51b815260206004820152601a60248201527f74696d65207468726573686f6c64206e6f74207265616368656400000000000060448201526064016108a2565b606c54600090610db8906001600160a01b0316612aa5565b9050606560169054906101000a900462ffffff1660020b610df2826040015160020b606660049054906101000a900460020b60020b612bde565b1315610e405760405162461bcd60e51b815260206004820152601d60248201527f7469636b44656c7461203c3d206d696e5469636b5468726573686f6c6400000060448201526064016108a2565b610e4c82858584612c00565b50505050565b33610e656065546001600160a01b031690565b6001600160a01b031614610e8b5760405162461bcd60e51b81526004016108a2906154ef565b606980546001600160b01b03191690556000606a819055606b55610ead6130d6565b565b606a8054606b8054600093849055929055908115610eeb57606954606d54610eeb916001600160a01b0391821691620100009091041684613159565b8015610f1557606954606e54610f15916001600160a01b0391821691620100009091041683613159565b5050565b6000806000808511610f565760405162461bcd60e51b815260206004820152600660248201526506d696e7420360d41b60448201526064016108a2565b6000610f6160355490565b9050600080610f6e612558565b6073805460ff60601b1916600160601b179055606c5460408051633850c7bd60e01b815290519395509193506000926001600160a01b0390911691633850c7bd9160048083019260e09291908290030181865afa158015610fd3573d6000803e3d6000fd5b505050506040513d601f19601f82011682018060405250810190610ff7919061561e565b505050505050905060008061100a614fbc565b86156110415761101b86868661264e565b9194509250905061102d838d896131c1565b995061103a828d896131c1565b985061105c565b6110568461104e8e613201565b88919061326e565b909a5098505b891561107a57606d5461107a906001600160a01b031633308d6132a1565b881561109857606e54611098906001600160a01b031633308c6132a1565b60608101516001600160801b0316156111395780516110b8908d896131c1565b815260208101516110ca908d896131c1565b6020820181905281516110e091879187916132d9565b97506110ec858961330a565b602083015280825261111c908590611104908d6156d3565b6020840151611113908d6156d3565b899291906132d9565b61112690896156ea565b9750611132868961330a565b5050611154565b61114586858c8c6132d9565b9750611151868961330a565b50505b61115e8b8d6133cd565b7f55801cfe493000b734571da1694b21e7f66b11e8ce9fdaa0524ecb59105e73e78b8d8c8c8c60405161119595949392919061570c565b60405180910390a150506073805460ff60601b19169055509598949750929550929350505050565b606060378054610ba3906155d3565b6000806000806111db60355490565b905080156111fa576111ee81878761348e565b919550935091506112c3565b6000611204612558565b5090506000606c60009054906101000a90046001600160a01b03166001600160a01b0316633850c7bd6040518163ffffffff1660e01b815260040160e060405180830381865afa15801561125c573d6000803e3d6000fd5b505050506040513d601f19601f82011682018060405250810190611280919061561e565b505050505050905060006112a1828a8a866132d9909392919063ffffffff16565b6001600160801b038116955090506112ba83838361326e565b90975095505050505b509250925092565b600033816112d98286611402565b9050838110156113395760405162461bcd60e51b815260206004820152602560248201527f45524332303a2064656372656173656420616c6c6f77616e63652062656c6f77604482015264207a65726f60d81b60648201526084016108a2565b6113468286868403612434565b506001949350505050565b600033610c348185856128fa565b60008060008061136d612558565b91509150610cde82828761264e565b606c546001600160a01b031633146113c85760405162461bcd60e51b815260206004820152600f60248201526e31b0b6363130b1b59031b0b63632b960891b60448201526064016108a2565b83156113e557606d546113e5906001600160a01b03163386613159565b8215610e4c57606e54610e4c906001600160a01b03163385613159565b6001600160a01b03918216600090815260346020908152604080832093909416825291909152205490565b600054610100900460ff161580801561144d5750600054600160ff909116105b806114675750303b158015611467575060005460ff166001145b6114ca5760405162461bcd60e51b815260206004820152602e60248201527f496e697469616c697a61626c653a20636f6e747261637420697320616c72656160448201526d191e481a5b9a5d1a585b1a5e995960921b60648201526084016108a2565b6000805460ff1916600117905580156114ed576000805461ff0019166101001790555b606c80546001600160a01b0319166001600160a01b03881690811790915560408051630dfe168160e01b81529051630dfe1681916004808201926020929091908290030181865afa158015611546573d6000803e3d6000fd5b505050506040513d601f19601f8201168201806040525081019061156a9190615743565b606d80546001600160a01b0319166001600160a01b03928316179055606c546040805163d21220a760e01b81529051919092169163d21220a79160048083019260209291908290030181865afa1580156115c8573d6000803e3d6000fd5b505050506040513d601f19601f820116820180604052508101906115ec9190615743565b606e80546001600160a01b0319166001600160a01b03928316179055606c54604080516334324e9f60e21b81529051919092169163d0c93a7c9160048083019260209291908290030181865afa15801561164a573d6000803e3d6000fd5b505050506040513d601f19601f8201168201806040525081019061166e9190615760565b606e805462ffffff60a01b1916600160a01b62ffffff93909316830217908190556116a291620d89e719910460020b6135b6565b606e805462ffffff92909216600160b81b0262ffffff60b81b199092169190911790556116e76116d5620d89e71961577d565b606e54600160a01b900460020b6135e5565b606e601a6101000a81548162ffffff021916908360020b62ffffff160217905550336001600160a01b0316637da3e4636040518163ffffffff1660e01b8152600401602060405180830381865afa158015611746573d6000803e3d6000fd5b505050506040513d601f19601f8201168201806040525081019061176a9190615743565b607280546001600160a01b039283166001600160a01b031990911617905560658054606980549386166201000081026001600160b01b031995861661ffff8c1617179091556073805462ffffff89811663010000000265ffffffffffff19909216908b16171790559216909117601960a31b1790556117e98888613611565b801561182b576000805461ff0019169055604051600181527f7f26b83ff96e1f2b6a682f133852f6798a09c465da95921460cefb384740249890602001610b82565b5050505050505050565b60665460685461184b9163ffffffff16906156bb565b42101561189a5760405162461bcd60e51b815260206004820152601a60248201527f74696d65207468726573686f6c64206e6f74207265616368656400000000000060448201526064016108a2565b606c546000906118b2906001600160a01b0316612aa5565b905060006118fa6127106067548460600151116118e05783606001516067546118db91906156d3565b6118f2565b60675484606001516118f291906156d3565b606754613642565b606554909150600160e01b900461ffff168110156119535760405162461bcd60e51b81526020600482015260166024820152751a5d91195b1d18480f8f481a5d951a1c995cda1bdb1960521b60448201526064016108a2565b610e4c611962610258426156bb565b858585612c00565b4283116119ca5760405162461bcd60e51b815260206004820152602860248201527f61756374696f6e5472696767657254696d65203e2074696d6541744c617374526044820152676562616c616e636560c01b60648201526084016108a2565b60006119d684426156d3565b607254606c549192506000916001600160a01b039182169163539183369116611a0060b4866157a0565b6040516001600160e01b031960e085901b1681526001600160a01b03909216600483015263ffffffff908116602483015285166044820152606401602060405180830381865afa158015611a58573d6000803e3d6000fd5b505050506040513d601f19601f82011682018060405250810190611a7c9190615760565b606c54909150600090611a97906001600160a01b0316612aa5565b9050606560199054906101000a900462ffffff1660020b611ac2826040015160020b8460020b612bde565b1215611b105760405162461bcd60e51b815260206004820152601a60248201527f7469636b44656c7461203e3d207469636b5468726573686f6c6400000000000060448201526064016108a2565b611b1c86868684612c00565b505050505050565b33611b376065546001600160a01b031690565b6001600160a01b031614611b5d5760405162461bcd60e51b81526004016108a2906154ef565b6001600160a01b038116611bc45760405162461bcd60e51b815260206004820152602860248201527f4f776e61626c653a206e6577206d616e6167657220697320746865207a65726f604482015267206164647265737360c01b60648201526084016108a2565b6065546040516001600160a01b038084169216907f8be0079c531659141344cd1fd0a4f28419497f9722a3daafe3b4186f6b6457e090600090a3606580546001600160a01b0319166001600160a01b0392909216919091179055565b6000806000808511611c5d5760405162461bcd60e51b815260206004820152600660248201526506275726e20360d41b60448201526064016108a2565b6000611c6860355490565b9050600080611c75612558565b6073805460ff60601b1916600160601b17905590925090506000611c988361372c565b505050509050611ca8338a613814565b611cd36040518060800160405280600081526020016000815260200160008152602001600081525090565b6000611ce98b846001600160801b031688613642565b9050611cf481613201565b9650611d008588613948565b606086015260408086019190915260208086019290925291845285015190850151600291820b910b14611dac57611d368461372c565b50929550611d5392508d9150506001600160801b03851688613642565b9050611d5e81613201565b611d6890886156ea565b9650600080611d77868a613948565b5050915091508184600001818151611d8f91906156bb565b905250602084018051829190611da69083906156bb565b90525050505b611dbe82604001518360600151613ab4565b611dd082604001518360600151613b22565b606084018190526040808501839052517fc28ad1de9c0c32e5394ba60323e44d8d9536312236a47231772e448a3e49de4292611e1492908252602082015260400190565b60405180910390a1606a548251606d546040516370a0823160e01b8152306004820152611ead9392916001600160a01b0316906370a08231906024015b602060405180830381865afa158015611e6e573d6000803e3d6000fd5b505050506040513d601f19601f82011682018060405250810190611e9291906157bf565b611e9c91906156d3565b611ea691906156d3565b8c88613642565b8251611eb991906156bb565b606b546020840151606e546040516370a0823160e01b8152306004820152939c50611ef8936001600160a01b03909116906370a0823190602401611e51565b8260200151611f0791906156bb565b97508815611f2657606d54611f26906001600160a01b03168b8b613159565b8715611f4357606e54611f43906001600160a01b03168b8a613159565b7f7239dff1718b550db7f36cbf69c665cfeb56d0e96b4fb76a5cba712961b655098a8c8b8b8b604051611f7a95949392919061570c565b60405180910390a150506073805460ff60601b191690555094979396509194509192505050565b600080611fac612558565b6073805460ff60601b1916600160601b17905590925090506000611fcf8361372c565b505050509050600080836040015160020b846020015160020b14612133576000611ff88561372c565b505050509050600080612014838861394890919063ffffffff16565b5050606a54606d546040516370a0823160e01b8152306004820152939550919350849290916001600160a01b0316906370a0823190602401602060405180830381865afa158015612069573d6000803e3d6000fd5b505050506040513d601f19601f8201168201806040525081019061208d91906157bf565b61209791906156d3565b6120a191906156d3565b606b54606e546040516370a0823160e01b815230600482015292975083926001600160a01b03909116906370a0823190602401602060405180830381865afa1580156120f1573d6000803e3d6000fd5b505050506040513d601f19601f8201168201806040525081019061211591906157bf565b61211f91906156d3565b61212991906156d3565b935050505061222d565b606a54606d546040516370a0823160e01b81523060048201526001600160a01b03909116906370a0823190602401602060405180830381865afa15801561217e573d6000803e3d6000fd5b505050506040513d601f19601f820116820180604052508101906121a291906157bf565b6121ac91906156d3565b606b54606e546040516370a0823160e01b815230600482015292945090916001600160a01b03909116906370a0823190602401602060405180830381865afa1580156121fc573d6000803e3d6000fd5b505050506040513d601f19601f8201168201806040525081019061222091906157bf565b61222a91906156d3565b90505b61223a8585858585613b90565b60006122458661372c565b505050509050836001600160801b0316816001600160801b0316116122ac5760405162461bcd60e51b815260206004820152601760248201527f6c6971756964697479206d75737420696e63726561736500000000000000000060448201526064016108a2565b6020868101516040808901518151600293840b8152920b928201929092526001600160801b03868116828401528316606082015290517f1de83c9f2274bb6e2f9e967f7286f9a66ddf025ea00e97d26a6d3ecfd4d67ed29181900360800190a150506073805460ff60601b1916905550505050565b60b581600160881b811061233a5760409190911b9060801c5b600160481b81106123505760209190911b9060401c5b6501000000000081106123685760109190911b9060201c5b6301000000811061237e5760089190911b9060101c5b62010000010260121c80820401600190811c80830401811c80830401811c80830401811c80830401811c80830401811c80830401901c908190048111900390565b6000806123f4670de0b6b3a7640000600160601b6123e66123e16002886157d8565b613e22565b6001600160a01b0316613642565b9050600061240b8283670de0b6b3a7640000613642565b905061242b61271061242583670de0b6b3a76400006156d3565b87613642565b95945050505050565b6001600160a01b0383166124965760405162461bcd60e51b8152602060048201526024808201527f45524332303a20617070726f76652066726f6d20746865207a65726f206164646044820152637265737360e01b60648201526084016108a2565b6001600160a01b0382166124f75760405162461bcd60e51b815260206004820152602260248201527f45524332303a20617070726f766520746f20746865207a65726f206164647265604482015261737360f01b60648201526084016108a2565b6001600160a01b0383811660008181526034602090815260408083209487168084529482529182902085905590518481527f8c5be1e5ebec7d5bd14f71427d1e84f3dd0314c0f7b2291e5b200ac8c7c3b925910160405180910390a3505050565b604080516060810182526000808252602082018190529181019190915260408051606081018252600080825260208201819052918101919091526040805160a081018252607354600281810b835263010000008204810b6020840152600160301b8204810b93830193909352600160481b810490920b6060820152600160601b90910460ff1615801560808301526125ef57600080fd5b6040805160608082018352606c546001600160a01b03168083528451600290810b60208086019190915286810151820b858701528551808501875292835286860151820b90830152949091015190930b91830191909152939092509050565b600080612659614fbc565b61266286614168565b60008060006126708961372c565b6001600160801b03851660408a018190529497509095509350612698928c92508a915061326e565b8096508197505050876020015160020b886040015160020b14612738576000806126c18a61372c565b6001600160801b0390941660608b018190529095509293506126e8928d92508c915061326e565b6020880152808752612704906001600160801b038416906156bb565b61270e90896156bb565b9750806001600160801b0316866020015161272991906156bb565b61273390886156bb565b965050505b6001600160801b038083169082166127508282613b22565b606a54606d546040516370a0823160e01b8152306004820152939550919350916001600160a01b03909116906370a0823190602401602060405180830381865afa1580156127a2573d6000803e3d6000fd5b505050506040513d601f19601f820116820180604052508101906127c691906157bf565b6127d090846156bb565b6127da91906156d3565b6127e490896156bb565b606b54606e546040516370a0823160e01b8152306004820152929a5090916001600160a01b03909116906370a0823190602401602060405180830381865afa158015612834573d6000803e3d6000fd5b505050506040513d601f19601f8201168201806040525081019061285891906157bf565b61286290836156bb565b61286c91906156d3565b61287690886156bb565b9650505050505093509350939050565b60006128928484611402565b90506000198114610e4c57818110156128ed5760405162461bcd60e51b815260206004820152601d60248201527f45524332303a20696e73756666696369656e7420616c6c6f77616e636500000060448201526064016108a2565b610e4c8484848403612434565b6001600160a01b03831661295e5760405162461bcd60e51b815260206004820152602560248201527f45524332303a207472616e736665722066726f6d20746865207a65726f206164604482015264647265737360d81b60648201526084016108a2565b6001600160a01b0382166129c05760405162461bcd60e51b815260206004820152602360248201527f45524332303a207472616e7366657220746f20746865207a65726f206164647260448201526265737360e81b60648201526084016108a2565b6001600160a01b03831660009081526033602052604090205481811015612a385760405162461bcd60e51b815260206004820152602660248201527f45524332303a207472616e7366657220616d6f756e7420657863656564732062604482015265616c616e636560d01b60648201526084016108a2565b6001600160a01b0380851660008181526033602052604080822086860390559286168082529083902080548601905591517fddf252ad1be2c89b69c2b068fc378daa952ba7f163c4a11628f55a4df523b3ef90612a989086815260200190565b60405180910390a3610e4c565b604080516080810182526000808252602082018190529181018290526060810191909152816001600160a01b0316633850c7bd6040518163ffffffff1660e01b815260040160e060405180830381865afa158015612b07573d6000803e3d6000fd5b505050506040513d601f19601f82011682018060405250810190612b2b919061561e565b5050505060029190910b6040840152506001600160a01b0316808252612b569080600160601b613642565b6001600160e01b0316602082015260725460405163b168197d60e01b81526001600160a01b0384811660048301529091169063b168197d906024016020604051808303816000875af1158015612bb0573d6000803e3d6000fd5b505050506040513d601f19601f82011682018060405250810190612bd491906157bf565b6060820152919050565b6000818313612bf657612bf18383615812565b610d0a565b610d0a8284615812565b600080612c0b612558565b6073805460ff60601b1916600160601b17905560408101516020820151929450909250600291820b910b14612c64576000612c458261372c565b505050509050612c5e818361394890919063ffffffff16565b50505050505b6000612c6f8361372c565b505050509050600080612c8b838661394890919063ffffffff16565b935093505050612c9b8282613ab4565b612ca58282613b22565b60408051838152602081018390529294509092507fc28ad1de9c0c32e5394ba60323e44d8d9536312236a47231772e448a3e49de42910160405180910390a16000612cf3876060015161422b565b6040880151606e54600292830b60011d9350612d1d929184900391600160a01b909104900b6135e5565b600290810b60208801526040880151606e54612d469291840191600160a01b909104900b6135b6565b600290810b6040880152606e546020880151600160b81b909104820b910b1215612d7d57606e54600160b81b900460020b60208701525b606e546040870151600160d01b909104600290810b91900b1315612dae57606e54600160d01b900460020b60408701525b6000806000612dbe898b8f614291565b9250925092508015612e47578b831015612e135760405162461bcd60e51b8152602060048201526016602482015275185b5bdd5b9d0c135a5b881b9bdd081c995858da195960521b60448201526064016108a2565b606d54612e2a906001600160a01b03163385613159565b606e54612e42906001600160a01b03163330856132a1565b612ebf565b8a821015612e905760405162461bcd60e51b8152602060048201526016602482015275185b5bdd5b9d0c535a5b881b9bdd081c995858da195960521b60448201526064016108a2565b606e54612ea7906001600160a01b03163384613159565b606d54612ebf906001600160a01b03163330866132a1565b8951606a54606d546040516370a0823160e01b8152306004820152612fcf93612fc893909290916001600160a01b03909116906370a0823190602401602060405180830381865afa158015612f18573d6000803e3d6000fd5b505050506040513d601f19601f82011682018060405250810190612f3c91906157bf565b612f4691906156d3565b606b54606e546040516370a0823160e01b81523060048201526001600160a01b03909116906370a0823190602401602060405180830381865afa158015612f91573d6000803e3d6000fd5b505050506040513d601f19601f82011682018060405250810190612fb591906157bf565b612fbf91906156d3565b8d9291906132d9565b8a9061330a565b50507ec24065589fd0add7f86688319979da2ca61b15b576eb1c030e28adde2447f060008e8b602001518c604001518787876040516130149796959493929190615851565b60405180910390a150506040805160a081018252602089810151600281810b84529a840151808c0b83850152918a0151808c0b848601529990930151998a900b606083015260006080909201919091526073805462ffffff93841665ffffffffffff1990911617630100000092841692909202919091176bffffffffffff0000000000001916600160301b9883169890980262ffffff60481b191697909717600160481b91909816029690961760ff60601b1916909455505050505050505050565b336130e96065546001600160a01b031690565b6001600160a01b03161461310f5760405162461bcd60e51b81526004016108a2906154ef565b6065546040516000916001600160a01b0316907f8be0079c531659141344cd1fd0a4f28419497f9722a3daafe3b4186f6b6457e0908390a3606580546001600160a01b0319169055565b6040516001600160a01b0383166024820152604481018290526131bc90849063a9059cbb60e01b906064015b60408051601f198184030181529190526020810180516001600160e01b03166001600160e01b031990931692909217909152614508565b505050565b60006131ce848484613642565b9050600082806131e0576131e0615583565b8486091115610d0a5760001981106131f757600080fd5b8061242b816158a9565b60006001600160801b0382111561326a5760405162461bcd60e51b815260206004820152602760248201527f53616665436173743a2076616c756520646f65736e27742066697420696e20316044820152663238206269747360c81b60648201526084016108a2565b5090565b600080613295846132828760200151613e22565b61328f8860400151613e22565b866145da565b91509150935093915050565b6040516001600160a01b0380851660248301528316604482015260648101829052610e4c9085906323b872dd60e01b90608401613185565b6000613300846132ec8760200151613e22565b6132f98860400151613e22565b8686614676565b5095945050505050565b6000806001600160801b038316156133c657835160208501516040808701519051633c8a7d8d60e01b8152306004820152600292830b6024820152910b60448201526001600160801b038516606482015260a06084820152600060a48201526001600160a01b0390911690633c8a7d8d9060c40160408051808303816000875af115801561339c573d6000803e3d6000fd5b505050506040513d601f19601f820116820180604052508101906133c091906158c4565b90925090505b9250929050565b6001600160a01b0382166134235760405162461bcd60e51b815260206004820152601f60248201527f45524332303a206d696e7420746f20746865207a65726f20616464726573730060448201526064016108a2565b806035600082825461343591906156bb565b90915550506001600160a01b0382166000818152603360209081526040808320805486019055518481527fddf252ad1be2c89b69c2b068fc378daa952ba7f163c4a11628f55a4df523b3ef910160405180910390a35050565b600080600080600061349e610c40565b915091508160001480156134b25750600081115b156134c9576134c2868983613642565b9250613591565b801580156134d75750600082115b156134e7576134c2878984613642565b811580156134f3575080155b1561351a5760405162461bcd60e51b815260206004820152600060248201526044016108a2565b6000613527888a85613642565b90506000613536888b85613642565b90506000821180156135485750600081115b61357d5760405162461bcd60e51b815260206004820152600660248201526506d696e7420360d41b60448201526064016108a2565b80821061358a578061358c565b815b945050505b61359c83838a6131c1565b94506135a983828a6131c1565b9350505093509350939050565b6000806135c383856158e8565b905060008160020b13156135dc57830382019050610c3a565b90920392915050565b6000806135f283856158e8565b905060008160020b126136085783039050610c3a565b90920303919050565b600054610100900460ff166136385760405162461bcd60e51b81526004016108a29061590a565b610f158282614747565b60008161367e5760405162461bcd60e51b815260206004820152600a602482015269044656e6f6d20213d20360b41b60448201526064016108a2565b60008060001985870985870292508281108382030391505080600014156136b757600084116136ac57600080fd5b508290049050610d0a565b8084116136c357600080fd5b60008486880960026001871981018816978890046003810283188082028403028082028403028082028403028082028403028082028403029081029092039091026000889003889004909101858311909403939093029303949094049190911702949350505050565b600080600080600085600001516001600160a01b031663514ea4bf308860200151896040015160405160200161378d9392919060609390931b6bffffffffffffffffffffffff1916835260e891821b6014840152901b6017820152601a0190565b604051602081830303815290604052805190602001206040518263ffffffff1660e01b81526004016137c191815260200190565b60a060405180830381865afa1580156137de573d6000803e3d6000fd5b505050506040513d601f19601f82011682018060405250810190613802919061596c565b939a9299509097509550909350915050565b6001600160a01b0382166138745760405162461bcd60e51b815260206004820152602160248201527f45524332303a206275726e2066726f6d20746865207a65726f206164647265736044820152607360f81b60648201526084016108a2565b6001600160a01b038216600090815260336020526040902054818110156138e85760405162461bcd60e51b815260206004820152602260248201527f45524332303a206275726e20616d6f756e7420657863656564732062616c616e604482015261636560f01b60648201526084016108a2565b6001600160a01b03831660008181526033602090815260408083208686039055603580548790039055518581529192917fddf252ad1be2c89b69c2b068fc378daa952ba7f163c4a11628f55a4df523b3ef910160405180910390a3505050565b60008080806001600160801b038516156139f25785516020870151604080890151905163a34123a760e01b8152600292830b6004820152910b60248201526001600160801b03871660448201526001600160a01b039091169063a34123a79060640160408051808303816000875af11580156139c8573d6000803e3d6000fd5b505050506040513d601f19601f820116820180604052508101906139ec91906158c4565b90945092505b8551602087015160408089015190516309e3d67b60e31b8152306004820152600292830b6024820152910b60448201526001600160801b0360648201819052608482015260009182916001600160a01b0390911690634f1eb3d89060a40160408051808303816000875af1158015613a6e573d6000803e3d6000fd5b505050506040513d601f19601f82011682018060405250810190613a9291906159c3565b96999598506001600160801b039081168a900397509095168790039450505050565b60695461271090613ac99061ffff1684615564565b613ad39190615599565b606a6000828254613ae491906156bb565b909155505060695461271090613afe9061ffff1683615564565b613b089190615599565b606b6000828254613b1991906156bb565b90915550505050565b6069546000908190819061271090613b3e9061ffff1687615564565b613b489190615599565b60695490915060009061271090613b639061ffff1687615564565b613b6d9190615599565b9050613b7982876156d3565b9350613b8581866156d3565b925050509250929050565b600080613b9d8786613948565b935093505050613bad8282613ab4565b613bb78282613b22565b60408051838152602081018390529294509092507fc28ad1de9c0c32e5394ba60323e44d8d9536312236a47231772e448a3e49de42910160405180910390a1613c0084836156bb565b9150613c0c83826156bb565b606554909150613c4e90339061271090613c3190600160a01b900461ffff1686615564565b613c3b9190615599565b606d546001600160a01b03169190613159565b606554613c8d90339061271090613c7090600160a01b900461ffff1685615564565b613c7a9190615599565b606e546001600160a01b03169190613159565b606a54606d546040516370a0823160e01b81523060048201526001600160a01b03909116906370a0823190602401602060405180830381865afa158015613cd8573d6000803e3d6000fd5b505050506040513d601f19601f82011682018060405250810190613cfc91906157bf565b613d0691906156d3565b606b54606e546040516370a0823160e01b815230600482015292965090916001600160a01b03909116906370a0823190602401602060405180830381865afa158015613d56573d6000803e3d6000fd5b505050506040513d601f19601f82011682018060405250810190613d7a91906157bf565b613d8491906156d3565b9250600080606c60009054906101000a90046001600160a01b03166001600160a01b0316633850c7bd6040518163ffffffff1660e01b815260040160e060405180830381865afa158015613ddc573d6000803e3d6000fd5b505050506040513d601f19601f82011682018060405250810190613e00919061561e565b505050505091509150613e17898988888686614795565b505050505050505050565b60008060008360020b12613e39578260020b613e46565b8260020b613e46906159f6565b9050613e55620d89e71961577d565b62ffffff16811115613e8d5760405162461bcd60e51b81526020600482015260016024820152601560fa1b60448201526064016108a2565b600060018216613ea157600160801b613eb3565b6ffffcb933bd6fad37aa2d162d1a5940015b70ffffffffffffffffffffffffffffffffff1690506002821615613ee7576ffff97272373d413259a46990580e213a0260801c5b6004821615613f06576ffff2e50f5f656932ef12357cf3c7fdcc0260801c5b6008821615613f25576fffe5caca7e10e4e61c3624eaa0941cd00260801c5b6010821615613f44576fffcb9843d60f6159c9db58835c9266440260801c5b6020821615613f63576fff973b41fa98c081472e6896dfb254c00260801c5b6040821615613f82576fff2ea16466c96a3843ec78b326b528610260801c5b6080821615613fa1576ffe5dee046a99a2a811c461f1969c30530260801c5b610100821615613fc1576ffcbe86c7900a88aedcffc83b479aa3a40260801c5b610200821615613fe1576ff987a7253ac413176f2b074cf7815e540260801c5b610400821615614001576ff3392b0822b70005940c7a398e4b70f30260801c5b610800821615614021576fe7159475a2c29b7443b29c7fa6e889d90260801c5b611000821615614041576fd097f3bdfd2022b8845ad8f792aa58250260801c5b612000821615614061576fa9f746462d870fdf8a65dc1f90e061e50260801c5b614000821615614081576f70d869a156d2a1b890bb3df62baf32f70260801c5b6180008216156140a1576f31be135f97d08fd981231505542fcfa60260801c5b620100008216156140c2576f09aa508b5b7a84e1c677de54f3e99bc90260801c5b620200008216156140e2576e5d6af8dedb81196699c329225ee6040260801c5b62040000821615614101576d2216e584f5fa1ea926041bedfe980260801c5b6208000082161561411e576b048a170391f7dc42444e8fa20260801c5b60008460020b131561413f57806000198161413b5761413b615583565b0490505b640100000000810615614153576001614156565b60005b60ff16602082901c0192505050919050565b806040015160020b816020015160020b14156141815750565b600061418c8261372c565b505050509050806001600160801b0316600014610f155781516020830151604080850151905163a34123a760e01b8152600292830b6004820152910b6024820152600060448201526001600160a01b039091169063a34123a79060640160408051808303816000875af1158015614207573d6000803e3d6000fd5b505050506040513d601f19601f82011682018060405250810190610e4c91906158c4565b6000606f54821161423f5750610192919050565b60715482106142515750616c50919050565b60705461425e9083615564565b91506000670de0b6b3a76400008390036503782dace9d960721b8161428557614285615583565b049050610d0a8161490c565b606a54606d546040516370a0823160e01b8152306004820152600092839283928392916001600160a01b0316906370a0823190602401602060405180830381865afa1580156142e4573d6000803e3d6000fd5b505050506040513d601f19601f8201168201806040525081019061430891906157bf565b61431291906156d3565b606b54606e546040516370a0823160e01b81523060048201529293506000926001600160a01b03909116906370a0823190602401602060405180830381865afa158015614363573d6000803e3d6000fd5b505050506040513d601f19601f8201168201806040525081019061438791906157bf565b61439191906156d3565b875190915060009081906143a8908b908686614c46565b8a5191935091506143bb908b908461326e565b909750955060006102586143cf8a426156d3565b101561440d576143fc6143e28a426156d3565b6143f061251c612904615a13565b61ffff16610258613642565b61440890612904615a13565b614411565b6129045b905060008083156144915761443a8c602001516001600160e01b03166127108561ffff16613642565b91506144616127108b6144528c600160601b87613642565b61445c908e6156bb565b613642565b90506144796144708a886156d3565b82612710613642565b985061448a89600160601b84613642565b99506144f8565b600197506144b38c602001516001600160e01b03168461ffff16612710613642565b91506144d56127108a6144cb8d86600160601b613642565b61445c908d6156bb565b90506144e46144708b896156d3565b99506144f58a83600160601b613642565b98505b5050505050505093509350939050565b600061455d826040518060400160405280602081526020017f5361666545524332303a206c6f772d6c6576656c2063616c6c206661696c6564815250856001600160a01b0316614c7b9092919063ffffffff16565b8051909150156131bc578080602001905181019061457b9190615a36565b6131bc5760405162461bcd60e51b815260206004820152602a60248201527f5361666545524332303a204552433230206f7065726174696f6e20646964206e6044820152691bdd081cdd58d8d9595960b21b60648201526084016108a2565b600080836001600160a01b0316856001600160a01b031611156145fb579293925b846001600160a01b0316866001600160a01b0316116146265761461f858585614c92565b915061466d565b836001600160a01b0316866001600160a01b0316101561465f5761464b868585614c92565b9150614658858785614d05565b905061466d565b61466a858585614d05565b90505b94509492505050565b600080846001600160a01b0316866001600160a01b03161115614697579394935b856001600160a01b0316876001600160a01b0316116146c6576146bb868686614d4f565b91506001905061473d565b846001600160a01b0316876001600160a01b0316101561472f5760006146ed888787614d4f565b905060006146fc888a87614dab565b9050806001600160801b0316826001600160801b031610156147245781935060019250614728565b8093505b505061473d565b61473a868685614dab565b91505b9550959350505050565b600054610100900460ff1661476e5760405162461bcd60e51b81526004016108a29061590a565b8151614781906036906020850190614ff6565b5080516131bc906037906020840190614ff6565b6000806147a488858888614c46565b91509150816001600160801b03166000146147e6576000806147c68a8561330a565b90925090506147d582896156d3565b97506147e181886156d3565b965050505b60006001600160801b0383166147fe57858711614801565b81155b9050801561486757606e54614821908590600160a01b900460020b6135b6565b600290810b60208a01819052606e5461484492600160a01b909104900b90615a51565b60020b60408901526148606148598989614de1565b899061330a565b50506148ba565b606e5461487f908590600160a01b900460020b6135e5565b600290810b60408a01819052606e546148a292600160a01b909104900b90615a98565b60020b60208901526148b76148598988614e06565b50505b50505060208501516073805460409097015162ffffff908116600160481b0262ffffff60481b1991909316600160301b02166bffffffffffff0000000000001990971696909617179094555050505050565b60006401000276a36001600160a01b03831610801590614948575073fffd8963efd1fc6a506488495d951d5263988d266001600160a01b038316105b6149785760405162461bcd60e51b81526020600482015260016024820152602960f91b60448201526064016108a2565b640100000000600160c01b03602083901b166001600160801b03811160071b81811c67ffffffffffffffff811160061b90811c63ffffffff811160051b90811c61ffff811160041b90811c60ff8111600390811b91821c600f811160021b90811c918211600190811b92831c97908811961790941790921717909117171760808110614a1357614a09607f826156d3565b83901c9150614a24565b614a1e81607f6156d3565b83901b91505b60006040614a33608084615812565b901b9050828302607f1c92508260801c80603f1b8217915083811c935050828302607f1c92508260801c80603e1b8217915083811c935050828302607f1c92508260801c80603d1b8217915083811c935050828302607f1c92508260801c80603c1b8217915083811c935050828302607f1c92508260801c80603b1b8217915083811c935050828302607f1c92508260801c80603a1b8217915083811c935050828302607f1c92508260801c8060391b8217915083811c935050828302607f1c92508260801c8060381b8217915083811c935050828302607f1c92508260801c8060371b8217915083811c935050828302607f1c92508260801c8060361b8217915083811c935050828302607f1c92508260801c8060351b8217915083811c935050828302607f1c92508260801c8060341b8217915083811c935050828302607f1c92508260801c8060331b8217915083811c935050828302607f1c92508260801c8060321b8217915050600081693627a301d71055774c85614bb69190615ae0565b905060006080614bd66f028f6481ab7f045a5af012a19d003aaa84615812565b901d905060006080614bf8846fdb2df09e81959a81455e260799a0632f615b65565b901d90508060020b8260020b14614c3757886001600160a01b0316614c1c82613e22565b6001600160a01b03161115614c315781614c39565b80614c39565b815b9998505050505050505050565b600080614c6e85614c5a8860200151613e22565b614c678960400151613e22565b8787614676565b9150915094509492505050565b6060614c8a8484600085614e2b565b949350505050565b6000826001600160a01b0316846001600160a01b03161115614cb2579192915b6001600160a01b038416614cfb6fffffffffffffffffffffffffffffffff60601b606085901b16614ce38787615ba6565b6001600160a01b0316866001600160a01b0316613642565b614c8a9190615599565b6000826001600160a01b0316846001600160a01b03161115614d25579192915b614c8a6001600160801b038316614d3c8686615ba6565b6001600160a01b0316600160601b613642565b6000826001600160a01b0316846001600160a01b03161115614d6f579192915b6000614d92856001600160a01b0316856001600160a01b0316600160601b613642565b905061242b614da684836123e68989615ba6565b614f06565b6000826001600160a01b0316846001600160a01b03161115614dcb579192915b614c8a614da683600160601b6123e68888615ba6565b6000610d0a614df38460200151613e22565b614e008560400151613e22565b84614d4f565b6000610d0a614e188460200151613e22565b614e258560400151613e22565b84614dab565b606082471015614e8c5760405162461bcd60e51b815260206004820152602660248201527f416464726573733a20696e73756666696369656e742062616c616e636520666f6044820152651c8818d85b1b60d21b60648201526084016108a2565b600080866001600160a01b03168587604051614ea89190615bc6565b60006040518083038185875af1925050503d8060008114614ee5576040519150601f19603f3d011682016040523d82523d6000602084013e614eea565b606091505b5091509150614efb87838387614f21565b979650505050505050565b806001600160801b0381168114614f1c57600080fd5b919050565b60608315614f8d578251614f86576001600160a01b0385163b614f865760405162461bcd60e51b815260206004820152601d60248201527f416464726573733a2063616c6c20746f206e6f6e2d636f6e747261637400000060448201526064016108a2565b5081614c8a565b614c8a8383815115614fa25781518083602001fd5b8060405162461bcd60e51b81526004016108a29190615190565b6040518060800160405280600081526020016000815260200160006001600160801b0316815260200160006001600160801b031681525090565b828054615002906155d3565b90600052602060002090601f016020900481019282615024576000855561506a565b82601f1061503d57805160ff191683800117855561506a565b8280016001018555821561506a579182015b8281111561506a57825182559160200191906001019061504f565b5061326a9291505b8082111561326a5760008155600101615072565b8035600181900b8114614f1c57600080fd5b6001600160a01b03811681146150ad57600080fd5b50565b8060020b81146150ad57600080fd5b600080600080600080600080610100898b0312156150dc57600080fd5b6150e589615086565b975060208901356150f581615098565b965061510360408a01615086565b95506060890135615113816150b0565b94506080890135615123816150b0565b935061513160a08a01615086565b925060c08901358060030b811461514757600080fd5b915061515560e08a01615086565b90509295985092959890939650565b60005b8381101561517f578181015183820152602001615167565b83811115610e4c5750506000910152565b60208152600082518060208401526151af816040850160208701615164565b601f01601f19169190910160400192915050565b600080604083850312156151d657600080fd5b82356151e181615098565b946020939093013593505050565b60008060006060848603121561520457600080fd5b833561520f81615098565b9250602084013561521f81615098565b929592945050506040919091013590565b6000806040838503121561524357600080fd5b50508035926020909101359150565b60006020828403121561526457600080fd5b8135610d0a81615098565b6000806040838503121561528257600080fd5b82359150602083013561529481615098565b809150509250929050565b600080600080606085870312156152b557600080fd5b8435935060208501359250604085013567ffffffffffffffff808211156152db57600080fd5b818701915087601f8301126152ef57600080fd5b8135818111156152fe57600080fd5b88602082850101111561531057600080fd5b95989497505060200194505050565b6000806040838503121561533257600080fd5b823561533d81615098565b9150602083013561529481615098565b634e487b7160e01b600052604160045260246000fd5b600082601f83011261537457600080fd5b813567ffffffffffffffff8082111561538f5761538f61534d565b604051601f8301601f19908116603f011681019082821181831017156153b7576153b761534d565b816040528381528660208588010111156153d057600080fd5b836020870160208301376000602085830101528094505050505092915050565b61ffff811681146150ad57600080fd5b600080600080600080600060e0888a03121561541b57600080fd5b873567ffffffffffffffff8082111561543357600080fd5b61543f8b838c01615363565b985060208a013591508082111561545557600080fd5b506154628a828b01615363565b965050604088013561547381615098565b94506060880135615483816153f0565b93506080880135615493816150b0565b925060a08801356154a3816150b0565b915060c08801356154b381615098565b8091505092959891949750929550565b6000806000606084860312156154d857600080fd5b505081359360208301359350604090920135919050565b60208082526022908201527f4f776e61626c653a2063616c6c6572206973206e6f7420746865206d616e616760408201526132b960f11b606082015260800190565b60208082526003908201526242505360e81b604082015260600190565b634e487b7160e01b600052601160045260246000fd5b600081600019048311821515161561557e5761557e61554e565b500290565b634e487b7160e01b600052601260045260246000fd5b6000826155a8576155a8615583565b500490565b600061ffff8083168185168083038211156155ca576155ca61554e565b01949350505050565b600181811c908216806155e757607f821691505b6020821081141561560857634e487b7160e01b600052602260045260246000fd5b50919050565b80518015158114614f1c57600080fd5b600080600080600080600060e0888a03121561563957600080fd5b875161564481615098565b6020890151909750615655816150b0565b6040890151909650615666816153f0565b6060890151909550615677816153f0565b6080890151909450615688816153f0565b60a089015190935060ff8116811461569f57600080fd5b91506156ad60c0890161560e565b905092959891949750929550565b600082198211156156ce576156ce61554e565b500190565b6000828210156156e5576156e561554e565b500390565b60006001600160801b038083168185168083038211156155ca576155ca61554e565b6001600160a01b039590951685526020850193909352604084019190915260608301526001600160801b0316608082015260a00190565b60006020828403121561575557600080fd5b8151610d0a81615098565b60006020828403121561577257600080fd5b8151610d0a816150b0565b60008160020b627fffff198114156157975761579761554e565b60000392915050565b600063ffffffff8083168185168083038211156155ca576155ca61554e565b6000602082840312156157d157600080fd5b5051919050565b60008160020b8360020b806157ef576157ef615583565b627fffff198214600019821416156158095761580961554e565b90059392505050565b60008083128015600160ff1b8501841216156158305761583061554e565b6001600160ff1b038401831381161561584b5761584b61554e565b50500390565b60e081016003891061587357634e487b7160e01b600052602160045260246000fd5b9781526020810196909652600294850b60408701529290930b6060850152608084015260a0830191909152151560c09091015290565b60006000198214156158bd576158bd61554e565b5060010190565b600080604083850312156158d757600080fd5b505080516020909101519092909150565b60008260020b806158fb576158fb615583565b808360020b0791505092915050565b6020808252602b908201527f496e697469616c697a61626c653a20636f6e7472616374206973206e6f74206960408201526a6e697469616c697a696e6760a81b606082015260800190565b80516001600160801b0381168114614f1c57600080fd5b600080600080600060a0868803121561598457600080fd5b61598d86615955565b945060208601519350604086015192506159a960608701615955565b91506159b760808701615955565b90509295509295909350565b600080604083850312156159d657600080fd5b6159df83615955565b91506159ed60208401615955565b90509250929050565b6000600160ff1b821415615a0c57615a0c61554e565b5060000390565b600061ffff83811690831681811015615a2e57615a2e61554e565b039392505050565b600060208284031215615a4857600080fd5b610d0a8261560e565b60008160020b8360020b6000821282627fffff03821381151615615a7757615a7761554e565b82627fffff19038212811615615a8f57615a8f61554e565b50019392505050565b60008160020b8360020b6000811281627fffff1901831281151615615abf57615abf61554e565b81627fffff018313811615615ad657615ad661554e565b5090039392505050565b60006001600160ff1b0381841382841380821686840486111615615b0657615b0661554e565b600160ff1b6000871282811687830589121615615b2557615b2561554e565b60008712925087820587128484161615615b4157615b4161554e565b87850587128184161615615b5757615b5761554e565b505050929093029392505050565b600080821280156001600160ff1b0384900385131615615b8757615b8761554e565b600160ff1b8390038412811615615ba057615ba061554e565b50500190565b60006001600160a01b0383811690831681811015615a2e57615a2e61554e565b60008251615bd8818460208701615164565b919091019291505056fea26469706673582212206cd6492b691787e58b0797ca90b620d948fe3e161942fe2db9a91adc5066453464736f6c634300080a0033",
    "linkReferences": {}
  },
  "methodIdentifiers": {
    "A()": "f446c1d0",
    "AUCTION_TIME()": "e592301a",
    "B()": "32e7c5bf",
    "C()": "83dfe5fd",
    "MAX_PRICE_MULTIPLIER_BPS()": "da0c6a43",
    "MAX_TICK()": "6882a888",
    "MAX_WIDTH()": "c620033f",
    "MIN_PRICE_MULTIPLIER_BPS()": "778d9010",
    "MIN_TICK()": "a1634b14",
    "MIN_WIDTH()": "83db382d",
    "SpindleOracle()": "7da3e463",
    "TICK_SPACING()": "46ca626b",
    "TWAP_PERIOD()": "7ca25184",
    "allowance(address,address)": "dd62ed3e",
    "approve(address,uint256)": "095ea7b3",
    "balanceOf(address)": "70a08231",
    "burn(uint256,address)": "fcd3533c",
    "decimals()": "313ce567",
    "decreaseAllowance(address,uint256)": "a457c2d7",
    "getMintAmounts(uint256,uint256)": "9894f21a",
    "getUnderlyingBalances()": "1322d954",
    "getUnderlyingBalancesAtPrice(uint160)": "b670ed7d",
    "increaseAllowance(address,uint256)": "39509351",
    "initialize(string,string,address,uint16,int24,int24,address)": "e25e15e3",
    "ivAtLastRecenter()": "3111a6ec",
    "ivRecenter(uint256,uint256)": "ea299ee1",
    "ivThresholdBPS()": "75c7b115",
    "manager()": "481c6a75",
    "managerBalance0()": "065756db",
    "managerBalance1()": "42fb9d44",
    "managerFeeBPS()": "ccdf7a02",
    "managerTreasury()": "cc95353e",
    "minTickThreshold()": "58a392a4",
    "mint(uint256,address)": "94bf804d",
    "name()": "06fdde03",
    "packedSlot()": "da3848db",
    "pool()": "16f0115b",
    "reinvest()": "fdb5a03e",
    "reinvestBPS()": "2b7d950a",
    "renounceOwnership()": "715018a6",
    "symbol()": "95d89b41",
    "tickAtLastRecenter()": "b420684b",
    "tickRecenter(uint256,uint256,uint256)": "efa5a1dd",
    "tickThreshold()": "4524c4ab",
    "timeAtLastRecenter()": "642f10a2",
    "timeRecenter(uint256,uint256)": "51b7937d",
    "timeThreshold()": "87479487",
    "token0()": "0dfe1681",
    "token1()": "d21220a7",
    "totalSupply()": "18160ddd",
    "transfer(address,uint256)": "a9059cbb",
    "transferFrom(address,address,uint256)": "23b872dd",
    "transferOwnership(address)": "f2fde38b",
    "uniswapV3MintCallback(uint256,uint256,bytes)": "d3487997",
    "updateManagerParams(int16,address,int16,int24,int24,int16,int32,int16)": "03cdfa9c",
    "version()": "54fd4d50",
    "withdrawManagerBalance()": "7ecd6717"
  },
  "id": 42
}