{
  "abi": [
    {
      "inputs": [
        {
          "internalType": "address",
          "name": "_uniswapV3Factory",
          "type": "address"
        },
        {
          "internalType": "contract ISpindleOracle",
          "name": "_SpindleOracle",
          "type": "address"
        }
      ],
      "stateMutability": "nonpayable",
      "type": "constructor"
    },
    {
      "anonymous": false,
      "inputs": [
        {
          "indexed": false,
          "internalType": "uint8",
          "name": "version",
          "type": "uint8"
        }
      ],
      "name": "Initialized",
      "type": "event"
    },
    {
      "anonymous": false,
      "inputs": [
        {
          "indexed": true,
          "internalType": "address",
          "name": "previousManager",
          "type": "address"
        },
        {
          "indexed": true,
          "internalType": "address",
          "name": "newManager",
          "type": "address"
        }
      ],
      "name": "OwnershipTransferred",
      "type": "event"
    },
    {
      "anonymous": false,
      "inputs": [
        {
          "indexed": false,
          "internalType": "address",
          "name": "previousImplementation",
          "type": "address"
        },
        {
          "indexed": false,
          "internalType": "address",
          "name": "newImplementation",
          "type": "address"
        }
      ],
      "name": "UpdatePoolImplementation",
      "type": "event"
    },
    {
      "inputs": [],
      "name": "SpindleOracle",
      "outputs": [
        {
          "internalType": "contract ISpindleOracle",
          "name": "",
          "type": "address"
        }
      ],
      "stateMutability": "view",
      "type": "function"
    },
    {
      "inputs": [],
      "name": "factory",
      "outputs": [
        {
          "internalType": "address",
          "name": "",
          "type": "address"
        }
      ],
      "stateMutability": "view",
      "type": "function"
    },
    {
      "inputs": [],
      "name": "index",
      "outputs": [
        {
          "internalType": "uint256",
          "name": "",
          "type": "uint256"
        }
      ],
      "stateMutability": "view",
      "type": "function"
    },
    {
      "inputs": [
        {
          "internalType": "address",
          "name": "_implementation",
          "type": "address"
        },
        {
          "internalType": "address",
          "name": "_manager_",
          "type": "address"
        }
      ],
      "name": "initialize",
      "outputs": [],
      "stateMutability": "nonpayable",
      "type": "function"
    },
    {
      "inputs": [],
      "name": "manager",
      "outputs": [
        {
          "internalType": "address",
          "name": "",
          "type": "address"
        }
      ],
      "stateMutability": "view",
      "type": "function"
    },
    {
      "inputs": [],
      "name": "poolImplementation",
      "outputs": [
        {
          "internalType": "address",
          "name": "",
          "type": "address"
        }
      ],
      "stateMutability": "view",
      "type": "function"
    },
    {
      "inputs": [],
      "name": "renounceOwnership",
      "outputs": [],
      "stateMutability": "nonpayable",
      "type": "function"
    },
    {
      "inputs": [
        {
          "internalType": "address",
          "name": "nextImplementation",
          "type": "address"
        }
      ],
      "name": "setPoolImplementation",
      "outputs": [],
      "stateMutability": "nonpayable",
      "type": "function"
    },
    {
      "inputs": [
        {
          "internalType": "address",
          "name": "newOwner",
          "type": "address"
        }
      ],
      "name": "transferOwnership",
      "outputs": [],
      "stateMutability": "nonpayable",
      "type": "function"
    },
    {
      "inputs": [],
      "name": "version",
      "outputs": [
        {
          "internalType": "string",
          "name": "",
          "type": "string"
        }
      ],
      "stateMutability": "view",
      "type": "function"
    }
  ],
  "bytecode": {
    "object": "0x60c060405234801561001057600080fd5b5060405161072838038061072883398101604081905261002f9161005e565b6001600160a01b039182166080521660a052610098565b6001600160a01b038116811461005b57600080fd5b50565b6000806040838503121561007157600080fd5b825161007c81610046565b602084015190925061008d81610046565b809150509250929050565b60805160a05161066b6100bd60003960006101370152600061015e015261066b6000f3fe608060405234801561001057600080fd5b506004361061009e5760003560e01c80637da3e463116100665780637da3e46314610132578063c45a015514610159578063cefa779914610180578063d6f7489814610193578063f2fde38b146101a657600080fd5b80632986c0e5146100a3578063481c6a75146100bf578063485cc955146100e457806354fd4d50146100f9578063715018a61461012a575b600080fd5b6100ac60055481565b6040519081526020015b60405180910390f35b6000546001600160a01b03165b6040516001600160a01b0390911681526020016100b6565b6100f76100f2366004610550565b6101b9565b005b61011d604051806040016040528060058152602001640312e302e360dc1b81525081565b6040516100b69190610583565b6100f7610314565b6100cc7f000000000000000000000000000000000000000000000000000000000000000081565b6100cc7f000000000000000000000000000000000000000000000000000000000000000081565b6001546100cc906001600160a01b031681565b6100f76101a13660046105d1565b610397565b6100f76101b43660046105d1565b610439565b600054600160a81b900460ff16158080156101e157506000546001600160a01b90910460ff16105b806102025750303b1580156102025750600054600160a01b900460ff166001145b61026a5760405162461bcd60e51b815260206004820152602e60248201527f496e697469616c697a61626c653a20636f6e747261637420697320616c72656160448201526d191e481a5b9a5d1a585b1a5e995960921b60648201526084015b60405180910390fd5b6000805460ff60a01b1916600160a01b1790558015610297576000805460ff60a81b1916600160a81b1790555b600180546001600160a01b038086166001600160a01b0319928316179092556000805492851692909116919091179055801561030f576000805460ff60a81b19169055604051600181527f7f26b83ff96e1f2b6a682f133852f6798a09c465da95921460cefb38474024989060200160405180910390a15b505050565b336103276000546001600160a01b031690565b6001600160a01b03161461034d5760405162461bcd60e51b8152600401610261906105f3565b600080546040516001600160a01b03909116907f8be0079c531659141344cd1fd0a4f28419497f9722a3daafe3b4186f6b6457e0908390a3600080546001600160a01b0319169055565b336103aa6000546001600160a01b031690565b6001600160a01b0316146103d05760405162461bcd60e51b8152600401610261906105f3565b600154604080516001600160a01b03928316815291831660208301527f0617fd31aa5ab95ec80eefc1eb61a2c477aa419d1d761b4e46f5f077e47852aa910160405180910390a1600180546001600160a01b0319166001600160a01b0392909216919091179055565b3361044c6000546001600160a01b031690565b6001600160a01b0316146104725760405162461bcd60e51b8152600401610261906105f3565b6001600160a01b0381166104d95760405162461bcd60e51b815260206004820152602860248201527f4f776e61626c653a206e6577206d616e6167657220697320746865207a65726f604482015267206164647265737360c01b6064820152608401610261565b600080546040516001600160a01b03808516939216917f8be0079c531659141344cd1fd0a4f28419497f9722a3daafe3b4186f6b6457e091a3600080546001600160a01b0319166001600160a01b0392909216919091179055565b80356001600160a01b038116811461054b57600080fd5b919050565b6000806040838503121561056357600080fd5b61056c83610534565b915061057a60208401610534565b90509250929050565b600060208083528351808285015260005b818110156105b057858101830151858201604001528201610594565b506000604082860101526040601f19601f8301168501019250505092915050565b6000602082840312156105e357600080fd5b6105ec82610534565b9392505050565b60208082526022908201527f4f776e61626c653a2063616c6c6572206973206e6f7420746865206d616e616760408201526132b960f11b60608201526080019056fea26469706673582212203ce3e484164c605d109fd2fd98fa7267bee56f2989baf7c06e5674a30c5101d264736f6c63430008110033",
    "linkReferences": {}
  },
  "methodIdentifiers": {
    "SpindleOracle()": "7da3e463",
    "factory()": "c45a0155",
    "index()": "2986c0e5",
    "initialize(address,address)": "485cc955",
    "manager()": "481c6a75",
    "poolImplementation()": "cefa7799",
    "renounceOwnership()": "715018a6",
    "setPoolImplementation(address)": "d6f74898",
    "transferOwnership(address)": "f2fde38b",
    "version()": "54fd4d50"
  },
  "id": 19
}