{
  "abi": [
    {
      "anonymous": false,
      "inputs": [
        {
          "indexed": true,
          "internalType": "address",
          "name": "owner",
          "type": "address"
        },
        {
          "indexed": true,
          "internalType": "address",
          "name": "spender",
          "type": "address"
        },
        {
          "indexed": false,
          "internalType": "uint256",
          "name": "value",
          "type": "uint256"
        }
      ],
      "name": "Approval",
      "type": "event"
    },
    {
      "anonymous": false,
      "inputs": [
        {
          "indexed": false,
          "internalType": "address",
          "name": "receiver",
          "type": "address"
        },
        {
          "indexed": false,
          "internalType": "uint256",
          "name": "burnAmount",
          "type": "uint256"
        },
        {
          "indexed": false,
          "internalType": "uint256",
          "name": "amount0Out",
          "type": "uint256"
        },
        {
          "indexed": false,
          "internalType": "uint256",
          "name": "amount1Out",
          "type": "uint256"
        },
        {
          "indexed": false,
          "internalType": "uint128",
          "name": "liquidityBurned",
          "type": "uint128"
        }
      ],
      "name": "Burned",
      "type": "event"
    },
    {
      "anonymous": false,
      "inputs": [
        {
          "indexed": false,
          "internalType": "uint256",
          "name": "feesEarned0",
          "type": "uint256"
        },
        {
          "indexed": false,
          "internalType": "uint256",
          "name": "feesEarned1",
          "type": "uint256"
        }
      ],
      "name": "FeesEarned",
      "type": "event"
    },
    {
      "anonymous": false,
      "inputs": [
        {
          "indexed": false,
          "internalType": "uint8",
          "name": "version",
          "type": "uint8"
        }
      ],
      "name": "Initialized",
      "type": "event"
    },
    {
      "anonymous": false,
      "inputs": [
        {
          "indexed": false,
          "internalType": "address",
          "name": "receiver",
          "type": "address"
        },
        {
          "indexed": false,
          "internalType": "uint256",
          "name": "mintAmount",
          "type": "uint256"
        },
        {
          "indexed": false,
          "internalType": "uint256",
          "name": "amount0In",
          "type": "uint256"
        },
        {
          "indexed": false,
          "internalType": "uint256",
          "name": "amount1In",
          "type": "uint256"
        },
        {
          "indexed": false,
          "internalType": "uint128",
          "name": "liquidityMinted",
          "type": "uint128"
        }
      ],
      "name": "Minted",
      "type": "event"
    },
    {
      "anonymous": false,
      "inputs": [
        {
          "indexed": true,
          "internalType": "address",
          "name": "previousManager",
          "type": "address"
        },
        {
          "indexed": true,
          "internalType": "address",
          "name": "newManager",
          "type": "address"
        }
      ],
      "name": "OwnershipTransferred",
      "type": "event"
    },
    {
      "anonymous": false,
      "inputs": [
        {
          "indexed": false,
          "internalType": "enum SSUniVault.AuctionType",
          "name": "auctionType",
          "type": "uint8"
        },
        {
          "indexed": false,
          "internalType": "uint256",
          "name": "auctionTriggerTime",
          "type": "uint256"
        },
        {
          "indexed": false,
          "internalType": "int24",
          "name": "lowerTick_",
          "type": "int24"
        },
        {
          "indexed": false,
          "internalType": "int24",
          "name": "upperTick_",
          "type": "int24"
        },
        {
          "indexed": false,
          "internalType": "uint256",
          "name": "amount0Exchanged",
          "type": "uint256"
        },
        {
          "indexed": false,
          "internalType": "uint256",
          "name": "amount1Exchanged",
          "type": "uint256"
        },
        {
          "indexed": false,
          "internalType": "bool",
          "name": "zeroForOne",
          "type": "bool"
        }
      ],
      "name": "Recenter",
      "type": "event"
    },
    {
      "anonymous": false,
      "inputs": [
        {
          "indexed": false,
          "internalType": "int24",
          "name": "lowerTick_",
          "type": "int24"
        },
        {
          "indexed": false,
          "internalType": "int24",
          "name": "upperTick_",
          "type": "int24"
        },
        {
          "indexed": false,
          "internalType": "uint128",
          "name": "liquidityBefore",
          "type": "uint128"
        },
        {
          "indexed": false,
          "internalType": "uint128",
          "name": "liquidityAfter",
          "type": "uint128"
        }
      ],
      "name": "Reinvest",
      "type": "event"
    },
    {
      "anonymous": false,
      "inputs": [
        {
          "indexed": true,
          "internalType": "address",
          "name": "from",
          "type": "address"
        },
        {
          "indexed": true,
          "internalType": "address",
          "name": "to",
          "type": "address"
        },
        {
          "indexed": false,
          "internalType": "uint256",
          "name": "value",
          "type": "uint256"
        }
      ],
      "name": "Transfer",
      "type": "event"
    },
    {
      "anonymous": false,
      "inputs": [
        {
          "indexed": false,
          "internalType": "uint16",
          "name": "managerFeeBPS",
          "type": "uint16"
        },
        {
          "indexed": false,
          "internalType": "address",
          "name": "managerTreasury",
          "type": "address"
        },
        {
          "indexed": false,
          "internalType": "uint16",
          "name": "reinvestBPS",
          "type": "uint16"
        },
        {
          "indexed": false,
          "internalType": "uint24",
          "name": "minTickThreshold",
          "type": "uint24"
        },
        {
          "indexed": false,
          "internalType": "uint24",
          "name": "tickThreshold",
          "type": "uint24"
        },
        {
          "indexed": false,
          "internalType": "uint16",
          "name": "ivThresholdBPS",
          "type": "uint16"
        },
        {
          "indexed": false,
          "internalType": "uint32",
          "name": "timeThreshold",
          "type": "uint32"
        },
        {
          "indexed": false,
          "internalType": "uint16",
          "name": "stdBPS",
          "type": "uint16"
        }
      ],
      "name": "UpdateManagerParams",
      "type": "event"
    },
    {
      "inputs": [],
      "name": "A",
      "outputs": [
        {
          "internalType": "uint64",
          "name": "",
          "type": "uint64"
        }
      ],
      "stateMutability": "view",
      "type": "function"
    },
    {
      "inputs": [],
      "name": "AUCTION_TIME",
      "outputs": [
        {
          "internalType": "uint16",
          "name": "",
          "type": "uint16"
        }
      ],
      "stateMutability": "view",
      "type": "function"
    },
    {
      "inputs": [],
      "name": "B",
      "outputs": [
        {
          "internalType": "uint16",
          "name": "",
          "type": "uint16"
        }
      ],
      "stateMutability": "view",
      "type": "function"
    },
    {
      "inputs": [],
      "name": "C",
      "outputs": [
        {
          "internalType": "uint64",
          "name": "",
          "type": "uint64"
        }
      ],
      "stateMutability": "view",
      "type": "function"
    },
    {
      "inputs": [],
      "name": "MAX_PRICE_MULTIPLIER_BPS",
      "outputs": [
        {
          "internalType": "uint16",
          "name": "",
          "type": "uint16"
        }
      ],
      "stateMutability": "view",
      "type": "function"
    },
    {
      "inputs": [],
      "name": "MAX_TICK",
      "outputs": [
        {
          "internalType": "int24",
          "name": "",
          "type": "int24"
        }
      ],
      "stateMutability": "view",
      "type": "function"
    },
    {
      "inputs": [],
      "name": "MAX_WIDTH",
      "outputs": [
        {
          "internalType": "int24",
          "name": "",
          "type": "int24"
        }
      ],
      "stateMutability": "view",
      "type": "function"
    },
    {
      "inputs": [],
      "name": "MIN_PRICE_MULTIPLIER_BPS",
      "outputs": [
        {
          "internalType": "uint16",
          "name": "",
          "type": "uint16"
        }
      ],
      "stateMutability": "view",
      "type": "function"
    },
    {
      "inputs": [],
      "name": "MIN_TICK",
      "outputs": [
        {
          "internalType": "int24",
          "name": "",
          "type": "int24"
        }
      ],
      "stateMutability": "view",
      "type": "function"
    },
    {
      "inputs": [],
      "name": "MIN_WIDTH",
      "outputs": [
        {
          "internalType": "int24",
          "name": "",
          "type": "int24"
        }
      ],
      "stateMutability": "view",
      "type": "function"
    },
    {
      "inputs": [],
      "name": "SpindleOracle",
      "outputs": [
        {
          "internalType": "contract ISpindleOracle",
          "name": "",
          "type": "address"
        }
      ],
      "stateMutability": "view",
      "type": "function"
    },
    {
      "inputs": [],
      "name": "TICK_SPACING",
      "outputs": [
        {
          "internalType": "int24",
          "name": "",
          "type": "int24"
        }
      ],
      "stateMutability": "view",
      "type": "function"
    },
    {
      "inputs": [],
      "name": "TWAP_PERIOD",
      "outputs": [
        {
          "internalType": "uint32",
          "name": "",
          "type": "uint32"
        }
      ],
      "stateMutability": "view",
      "type": "function"
    },
    {
      "inputs": [
        {
          "internalType": "address",
          "name": "owner",
          "type": "address"
        },
        {
          "internalType": "address",
          "name": "spender",
          "type": "address"
        }
      ],
      "name": "allowance",
      "outputs": [
        {
          "internalType": "uint256",
          "name": "",
          "type": "uint256"
        }
      ],
      "stateMutability": "view",
      "type": "function"
    },
    {
      "inputs": [
        {
          "internalType": "address",
          "name": "spender",
          "type": "address"
        },
        {
          "internalType": "uint256",
          "name": "amount",
          "type": "uint256"
        }
      ],
      "name": "approve",
      "outputs": [
        {
          "internalType": "bool",
          "name": "",
          "type": "bool"
        }
      ],
      "stateMutability": "nonpayable",
      "type": "function"
    },
    {
      "inputs": [
        {
          "internalType": "address",
          "name": "account",
          "type": "address"
        }
      ],
      "name": "balanceOf",
      "outputs": [
        {
          "internalType": "uint256",
          "name": "",
          "type": "uint256"
        }
      ],
      "stateMutability": "view",
      "type": "function"
    },
    {
      "inputs": [
        {
          "internalType": "uint256",
          "name": "burnAmount",
          "type": "uint256"
        },
        {
          "internalType": "address",
          "name": "receiver",
          "type": "address"
        }
      ],
      "name": "burn",
      "outputs": [
        {
          "internalType": "uint256",
          "name": "amount0",
          "type": "uint256"
        },
        {
          "internalType": "uint256",
          "name": "amount1",
          "type": "uint256"
        },
        {
          "internalType": "uint128",
          "name": "liquidityBurned",
          "type": "uint128"
        }
      ],
      "stateMutability": "nonpayable",
      "type": "function"
    },
    {
      "inputs": [],
      "name": "decimals",
      "outputs": [
        {
          "internalType": "uint8",
          "name": "",
          "type": "uint8"
        }
      ],
      "stateMutability": "view",
      "type": "function"
    },
    {
      "inputs": [
        {
          "internalType": "address",
          "name": "spender",
          "type": "address"
        },
        {
          "internalType": "uint256",
          "name": "subtractedValue",
          "type": "uint256"
        }
      ],
      "name": "decreaseAllowance",
      "outputs": [
        {
          "internalType": "bool",
          "name": "",
          "type": "bool"
        }
      ],
      "stateMutability": "nonpayable",
      "type": "function"
    },
    {
      "inputs": [
        {
          "internalType": "uint256",
          "name": "amount0Max",
          "type": "uint256"
        },
        {
          "internalType": "uint256",
          "name": "amount1Max",
          "type": "uint256"
        }
      ],
      "name": "getMintAmounts",
      "outputs": [
        {
          "internalType": "uint256",
          "name": "amount0",
          "type": "uint256"
        },
        {
          "internalType": "uint256",
          "name": "amount1",
          "type": "uint256"
        },
        {
          "internalType": "uint256",
          "name": "mintAmount",
          "type": "uint256"
        }
      ],
      "stateMutability": "nonpayable",
      "type": "function"
    },
    {
      "inputs": [],
      "name": "getUnderlyingBalances",
      "outputs": [
        {
          "internalType": "uint256",
          "name": "amount0Current",
          "type": "uint256"
        },
        {
          "internalType": "uint256",
          "name": "amount1Current",
          "type": "uint256"
        }
      ],
      "stateMutability": "nonpayable",
      "type": "function"
    },
    {
      "inputs": [
        {
          "internalType": "uint160",
          "name": "sqrtRatioX96",
          "type": "uint160"
        }
      ],
      "name": "getUnderlyingBalancesAtPrice",
      "outputs": [
        {
          "internalType": "uint256",
          "name": "amount0Current",
          "type": "uint256"
        },
        {
          "internalType": "uint256",
          "name": "amount1Current",
          "type": "uint256"
        }
      ],
      "stateMutability": "nonpayable",
      "type": "function"
    },
    {
      "inputs": [
        {
          "internalType": "address",
          "name": "spender",
          "type": "address"
        },
        {
          "internalType": "uint256",
          "name": "addedValue",
          "type": "uint256"
        }
      ],
      "name": "increaseAllowance",
      "outputs": [
        {
          "internalType": "bool",
          "name": "",
          "type": "bool"
        }
      ],
      "stateMutability": "nonpayable",
      "type": "function"
    },
    {
      "inputs": [
        {
          "internalType": "string",
          "name": "_name",
          "type": "string"
        },
        {
          "internalType": "string",
          "name": "_symbol",
          "type": "string"
        },
        {
          "internalType": "address",
          "name": "_pool",
          "type": "address"
        },
        {
          "internalType": "uint16",
          "name": "_managerFeeBPS",
          "type": "uint16"
        },
        {
          "internalType": "int24",
          "name": "_lowerTick",
          "type": "int24"
        },
        {
          "internalType": "int24",
          "name": "_upperTick",
          "type": "int24"
        },
        {
          "internalType": "address",
          "name": "_manager_",
          "type": "address"
        }
      ],
      "name": "initialize",
      "outputs": [],
      "stateMutability": "nonpayable",
      "type": "function"
    },
    {
      "inputs": [],
      "name": "ivAtLastRecenter",
      "outputs": [
        {
          "internalType": "uint256",
          "name": "",
          "type": "uint256"
        }
      ],
      "stateMutability": "view",
      "type": "function"
    },
    {
      "inputs": [
        {
          "internalType": "uint256",
          "name": "amount0Min",
          "type": "uint256"
        },
        {
          "internalType": "uint256",
          "name": "amount1Min",
          "type": "uint256"
        }
      ],
      "name": "ivRecenter",
      "outputs": [],
      "stateMutability": "nonpayable",
      "type": "function"
    },
    {
      "inputs": [],
      "name": "ivThresholdBPS",
      "outputs": [
        {
          "internalType": "uint16",
          "name": "",
          "type": "uint16"
        }
      ],
      "stateMutability": "view",
      "type": "function"
    },
    {
      "inputs": [],
      "name": "manager",
      "outputs": [
        {
          "internalType": "address",
          "name": "",
          "type": "address"
        }
      ],
      "stateMutability": "view",
      "type": "function"
    },
    {
      "inputs": [],
      "name": "managerBalance0",
      "outputs": [
        {
          "internalType": "uint256",
          "name": "",
          "type": "uint256"
        }
      ],
      "stateMutability": "view",
      "type": "function"
    },
    {
      "inputs": [],
      "name": "managerBalance1",
      "outputs": [
        {
          "internalType": "uint256",
          "name": "",
          "type": "uint256"
        }
      ],
      "stateMutability": "view",
      "type": "function"
    },
    {
      "inputs": [],
      "name": "managerFeeBPS",
      "outputs": [
        {
          "internalType": "uint16",
          "name": "",
          "type": "uint16"
        }
      ],
      "stateMutability": "view",
      "type": "function"
    },
    {
      "inputs": [],
      "name": "managerTreasury",
      "outputs": [
        {
          "internalType": "address",
          "name": "",
          "type": "address"
        }
      ],
      "stateMutability": "view",
      "type": "function"
    },
    {
      "inputs": [],
      "name": "minTickThreshold",
      "outputs": [
        {
          "internalType": "uint24",
          "name": "",
          "type": "uint24"
        }
      ],
      "stateMutability": "view",
      "type": "function"
    },
    {
      "inputs": [
        {
          "internalType": "uint256",
          "name": "mintAmount",
          "type": "uint256"
        },
        {
          "internalType": "address",
          "name": "receiver",
          "type": "address"
        }
      ],
      "name": "mint",
      "outputs": [
        {
          "internalType": "uint256",
          "name": "amount0",
          "type": "uint256"
        },
        {
          "internalType": "uint256",
          "name": "amount1",
          "type": "uint256"
        },
        {
          "internalType": "uint128",
          "name": "liquidityMinted",
          "type": "uint128"
        }
      ],
      "stateMutability": "nonpayable",
      "type": "function"
    },
    {
      "inputs": [],
      "name": "name",
      "outputs": [
        {
          "internalType": "string",
          "name": "",
          "type": "string"
        }
      ],
      "stateMutability": "view",
      "type": "function"
    },
    {
      "inputs": [],
      "name": "packedSlot",
      "outputs": [
        {
          "internalType": "int24",
          "name": "primaryLower",
          "type": "int24"
        },
        {
          "internalType": "int24",
          "name": "primaryUpper",
          "type": "int24"
        },
        {
          "internalType": "int24",
          "name": "limitLower",
          "type": "int24"
        },
        {
          "internalType": "int24",
          "name": "limitUpper",
          "type": "int24"
        },
        {
          "internalType": "bool",
          "name": "locked",
          "type": "bool"
        }
      ],
      "stateMutability": "view",
      "type": "function"
    },
    {
      "inputs": [],
      "name": "pool",
      "outputs": [
        {
          "internalType": "contract IUniswapV3Pool",
          "name": "",
          "type": "address"
        }
      ],
      "stateMutability": "view",
      "type": "function"
    },
    {
      "inputs": [],
      "name": "reinvest",
      "outputs": [],
      "stateMutability": "nonpayable",
      "type": "function"
    },
    {
      "inputs": [],
      "name": "reinvestBPS",
      "outputs": [
        {
          "internalType": "uint16",
          "name": "",
          "type": "uint16"
        }
      ],
      "stateMutability": "view",
      "type": "function"
    },
    {
      "inputs": [],
      "name": "renounceOwnership",
      "outputs": [],
      "stateMutability": "nonpayable",
      "type": "function"
    },
    {
      "inputs": [],
      "name": "symbol",
      "outputs": [
        {
          "internalType": "string",
          "name": "",
          "type": "string"
        }
      ],
      "stateMutability": "view",
      "type": "function"
    },
    {
      "inputs": [],
      "name": "tickAtLastRecenter",
      "outputs": [
        {
          "internalType": "int24",
          "name": "",
          "type": "int24"
        }
      ],
      "stateMutability": "view",
      "type": "function"
    },
    {
      "inputs": [
        {
          "internalType": "uint256",
          "name": "auctionTriggerTime",
          "type": "uint256"
        },
        {
          "internalType": "uint256",
          "name": "amount0Min",
          "type": "uint256"
        },
        {
          "internalType": "uint256",
          "name": "amount1Min",
          "type": "uint256"
        }
      ],
      "name": "tickRecenter",
      "outputs": [],
      "stateMutability": "nonpayable",
      "type": "function"
    },
    {
      "inputs": [],
      "name": "tickThreshold",
      "outputs": [
        {
          "internalType": "uint24",
          "name": "",
          "type": "uint24"
        }
      ],
      "stateMutability": "view",
      "type": "function"
    },
    {
      "inputs": [],
      "name": "timeAtLastRecenter",
      "outputs": [
        {
          "internalType": "uint256",
          "name": "",
          "type": "uint256"
        }
      ],
      "stateMutability": "view",
      "type": "function"
    },
    {
      "inputs": [
        {
          "internalType": "uint256",
          "name": "amount0Min",
          "type": "uint256"
        },
        {
          "internalType": "uint256",
          "name": "amount1Min",
          "type": "uint256"
        }
      ],
      "name": "timeRecenter",
      "outputs": [],
      "stateMutability": "nonpayable",
      "type": "function"
    },
    {
      "inputs": [],
      "name": "timeThreshold",
      "outputs": [
        {
          "internalType": "uint32",
          "name": "",
          "type": "uint32"
        }
      ],
      "stateMutability": "view",
      "type": "function"
    },
    {
      "inputs": [],
      "name": "token0",
      "outputs": [
        {
          "internalType": "contract IERC20",
          "name": "",
          "type": "address"
        }
      ],
      "stateMutability": "view",
      "type": "function"
    },
    {
      "inputs": [],
      "name": "token1",
      "outputs": [
        {
          "internalType": "contract IERC20",
          "name": "",
          "type": "address"
        }
      ],
      "stateMutability": "view",
      "type": "function"
    },
    {
      "inputs": [],
      "name": "totalSupply",
      "outputs": [
        {
          "internalType": "uint256",
          "name": "",
          "type": "uint256"
        }
      ],
      "stateMutability": "view",
      "type": "function"
    },
    {
      "inputs": [
        {
          "internalType": "address",
          "name": "to",
          "type": "address"
        },
        {
          "internalType": "uint256",
          "name": "amount",
          "type": "uint256"
        }
      ],
      "name": "transfer",
      "outputs": [
        {
          "internalType": "bool",
          "name": "",
          "type": "bool"
        }
      ],
      "stateMutability": "nonpayable",
      "type": "function"
    },
    {
      "inputs": [
        {
          "internalType": "address",
          "name": "from",
          "type": "address"
        },
        {
          "internalType": "address",
          "name": "to",
          "type": "address"
        },
        {
          "internalType": "uint256",
          "name": "amount",
          "type": "uint256"
        }
      ],
      "name": "transferFrom",
      "outputs": [
        {
          "internalType": "bool",
          "name": "",
          "type": "bool"
        }
      ],
      "stateMutability": "nonpayable",
      "type": "function"
    },
    {
      "inputs": [
        {
          "internalType": "address",
          "name": "newOwner",
          "type": "address"
        }
      ],
      "name": "transferOwnership",
      "outputs": [],
      "stateMutability": "nonpayable",
      "type": "function"
    },
    {
      "inputs": [
        {
          "internalType": "uint256",
          "name": "amount0Owed",
          "type": "uint256"
        },
        {
          "internalType": "uint256",
          "name": "amount1Owed",
          "type": "uint256"
        },
        {
          "internalType": "bytes",
          "name": "",
          "type": "bytes"
        }
      ],
      "name": "uniswapV3MintCallback",
      "outputs": [],
      "stateMutability": "nonpayable",
      "type": "function"
    },
    {
      "inputs": [
        {
          "internalType": "int16",
          "name": "newManagerFeeBPS",
          "type": "int16"
        },
        {
          "internalType": "address",
          "name": "newManagerTreasury",
          "type": "address"
        },
        {
          "internalType": "int16",
          "name": "newReinvestBPS",
          "type": "int16"
        },
        {
          "internalType": "int24",
          "name": "newMinTickThreshold",
          "type": "int24"
        },
        {
          "internalType": "int24",
          "name": "newTickThreshold",
          "type": "int24"
        },
        {
          "internalType": "int16",
          "name": "newIVThresholdBPS",
          "type": "int16"
        },
        {
          "internalType": "int32",
          "name": "newTimeThreshold",
          "type": "int32"
        },
        {
          "internalType": "int16",
          "name": "newStdBPS",
          "type": "int16"
        }
      ],
      "name": "updateManagerParams",
      "outputs": [],
      "stateMutability": "nonpayable",
      "type": "function"
    },
    {
      "inputs": [],
      "name": "version",
      "outputs": [
        {
          "internalType": "string",
          "name": "",
          "type": "string"
        }
      ],
      "stateMutability": "view",
      "type": "function"
    },
    {
      "inputs": [],
      "name": "withdrawManagerBalance",
      "outputs": [],
      "stateMutability": "nonpayable",
      "type": "function"
    }
  ],
  "bytecode": {
    "object": "0x608060405234801561001057600080fd5b50615d7680620000216000396000f3fe608060405234801561001057600080fd5b50600436106103835760003560e01c80637da3e463116101de578063cc95353e1161010f578063e25e15e3116100ad578063f2fde38b1161007c578063f2fde38b14610867578063f446c1d01461087a578063fcd3533c1461088d578063fdb5a03e146108a057600080fd5b8063e25e15e314610825578063e592301a14610838578063ea299ee114610841578063efa5a1dd1461085457600080fd5b8063d3487997116100e9578063d348799714610788578063da0c6a431461079b578063da3848db146107a4578063dd62ed3e1461081257600080fd5b8063cc95353e1461074e578063ccdf7a0214610767578063d21220a71461077557600080fd5b80639894f21a1161017c578063a9059cbb11610156578063a9059cbb1461070a578063b420684b1461071d578063b670ed7d14610732578063c620033f1461074557600080fd5b80639894f21a146106b5578063a1634b14146106e3578063a457c2d7146106f757600080fd5b806383dfe5fd116101b857806383dfe5fd14610634578063874794871461066657806394bf804d1461067657806395d89b41146106ad57600080fd5b80637da3e463146106105780637ecd67171461062357806383db382d1461062b57600080fd5b806342fb9d44116102b8578063642f10a211610256578063715018a611610230578063715018a6146105cd57806375c7b115146105d5578063778d9010146105ea5780637ca25184146105f357600080fd5b8063642f10a2146105875780636882a8881461059057806370a08231146105a457600080fd5b8063481c6a7511610292578063481c6a751461052957806351b7937d1461053a57806354fd4d501461054d57806358a392a41461057157600080fd5b806342fb9d44146104cf5780634524c4ab146104d857806346ca626b1461050257600080fd5b806318160ddd116103255780633111a6ec116102ff5780633111a6ec1461048f578063313ce5671461049857806332e7c5bf146104a757806339509351146104bc57600080fd5b806318160ddd1461044c57806323b872dd146104545780632b7d950a1461046757600080fd5b8063095ea7b311610361578063095ea7b3146103ce5780630dfe1681146103f15780631322d9541461041c57806316f0115b1461043957600080fd5b806303cdfa9c14610388578063065756db1461039d57806306fdde03146103b9575b600080fd5b61039b610396366004615234565b6108a8565b005b6103a6606a5481565b6040519081526020015b60405180910390f35b6103c1610c85565b6040516103b09190615305565b6103e16103dc366004615338565b610d17565b60405190151581526020016103b0565b606d54610404906001600160a01b031681565b6040516001600160a01b0390911681526020016103b0565b610424610d31565b604080519283526020830191909152016103b0565b606c54610404906001600160a01b031681565b6035546103a6565b6103e1610462366004615364565b610ddc565b60655461047c90600160a01b900461ffff1681565b60405161ffff90911681526020016103b0565b6103a660675481565b604051601281526020016103b0565b606f5461047c90600160401b900461ffff1681565b6103e16104ca366004615338565b610e02565b6103a6606b5481565b6065546104ee90600160c81b900462ffffff1681565b60405162ffffff90911681526020016103b0565b606e5461051690600160a01b900460020b81565b60405160029190910b81526020016103b0565b6065546001600160a01b0316610404565b61039b6105483660046153a5565b610e24565b6103c1604051806040016040528060058152602001640312e302e360dc1b81525081565b6065546104ee90600160b01b900462ffffff1681565b6103a660685481565b606e5461051690600160d01b900460020b81565b6103a66105b23660046153c7565b6001600160a01b031660009081526033602052604090205490565b61039b610f43565b60655461047c90600160e01b900461ffff1681565b61047c61251c81565b6105fb60b481565b60405163ffffffff90911681526020016103b0565b607054610404906001600160a01b031681565b61039b610fa0565b61051661019281565b606f5461064e90600160501b90046001600160401b031681565b6040516001600160401b0390911681526020016103b0565b6066546105fb9063ffffffff1681565b6106896106843660046153e4565b61100a565b6040805193845260208401929092526001600160801b0316908201526060016103b0565b6103c16112ae565b6106c86106c33660046153a5565b6112bd565b604080519384526020840192909252908201526060016103b0565b606e5461051690600160b81b900460020b81565b6103e1610705366004615338565b6113bc565b6103e1610718366004615338565b611442565b60665461051690640100000000900460020b81565b6104246107403660046153c7565b611450565b610516616c5081565b606954610404906201000090046001600160a01b031681565b60695461047c9061ffff1681565b606e54610404906001600160a01b031681565b61039b610796366004615414565b61146d565b61047c61290481565b6071546107dd90600281810b9163010000008104820b91600160301b8204810b91600160481b810490910b90600160601b900460ff1685565b60408051600296870b815294860b602086015292850b9284019290925290920b6060820152901515608082015260a0016103b0565b6103a6610820366004615493565b6114f3565b61039b610833366004615573565b61151e565b61047c61025881565b61039b61084f3660046153a5565b611926565b61039b610862366004615635565b611a5b565b61039b6108753660046153c7565b611c15565b606f5461064e906001600160401b031681565b61068961089b3660046153e4565b611d11565b61039b612092565b336108bb6065546001600160a01b031690565b6001600160a01b0316146108ea5760405162461bcd60e51b81526004016108e190615661565b60405180910390fd5b6127108660010b13156109255760405162461bcd60e51b815260206004820152600360248201526242505360e81b60448201526064016108e1565b6127108860010b13156109605760405162461bcd60e51b815260206004820152600360248201526242505360e81b60448201526064016108e1565b60008860010b1261097d576069805461ffff191661ffff8a161790555b6001600160a01b038716156109af576069805462010000600160b01b031916620100006001600160a01b038a16021790555b60008660010b126109d5576065805461ffff60a01b1916600160a01b61ffff8916021790555b60008560020b126109fd576065805462ffffff60b01b1916600160b01b62ffffff8816021790555b60008460020b12610a25576065805462ffffff60c81b1916600160c81b62ffffff8716021790555b60008360010b12610a4b576065805461ffff60e01b1916600160e01b61ffff8616021790555b60008260030b12610a6c576066805463ffffffff191663ffffffff84161790555b60008160010b12158015610a84575060008260030b12155b15610bd057622cdc60610a9c8363ffffffff16612412565b610aaa9061ffff84166156b9565b610ab491906156ee565b606f805461ffff92909216600160401b0269ffff000000000000000019909216919091179055610af9612711610aed6002610192615702565b62ffffff1660016124b0565b610b0490600161573c565b606f54610b2490600160401b900461ffff16670de0b6b3a7640000615753565b6001600160401b0316610b3791906156b9565b606f805467ffffffffffffffff19166001600160401b0392909216919091179055610b6b612711610aed6002616c50615702565b610b7690600161573c565b606f54610b9690600160401b900461ffff16670de0b6b3a7640000615753565b6001600160401b0316610ba991906156b9565b606f600a6101000a8154816001600160401b0302191690836001600160401b031602179055505b6069546065546066546040805161ffff8086168252620100009095046001600160a01b03166020820152600160a01b8404851691810191909152600160b01b830462ffffff9081166060830152600160c81b8404166080820152600160e01b909204831660a083015263ffffffff1660c082015290821660e08201527fbcd4d3e49408df8630829e5943ceb11875f295e43e0b3d3009e9ffd83ff4fcd190610100015b60405180910390a15050505050505050565b606060368054610c9490615779565b80601f0160208091040260200160405190810160405280929190818152602001828054610cc090615779565b8015610d0d5780601f10610ce257610100808354040283529160200191610d0d565b820191906000526020600020905b815481529060010190602001808311610cf057829003601f168201915b5050505050905090565b600033610d2581858561256e565b60019150505b92915050565b600080600080610d3f612692565b915091506000606c60009054906101000a90046001600160a01b03166001600160a01b0316633850c7bd6040518163ffffffff1660e01b815260040160e060405180830381865afa158015610d98573d6000803e3d6000fd5b505050506040513d601f19601f82011682018060405250810190610dbc91906157c4565b5050505050509050610dcf838383612788565b5090969095509350505050565b600033610dea8582856129c0565b610df5858585612a34565b60019150505b9392505050565b600033610d25818585610e1583836114f3565b610e1f9190615861565b61256e565b606654606854600091610e3f9163ffffffff90911690615861565b905080421015610e915760405162461bcd60e51b815260206004820152601a60248201527f74696d65207468726573686f6c64206e6f74207265616368656400000000000060448201526064016108e1565b606c54600090610ea9906001600160a01b0316612bdf565b9050606560169054906101000a900462ffffff1660020b610ee3826040015160020b606660049054906101000a900460020b60020b612d18565b1315610f315760405162461bcd60e51b815260206004820152601d60248201527f7469636b44656c7461203c3d206d696e5469636b5468726573686f6c6400000060448201526064016108e1565b610f3d82858584612d3a565b50505050565b33610f566065546001600160a01b031690565b6001600160a01b031614610f7c5760405162461bcd60e51b81526004016108e190615661565b606980546001600160b01b03191690556000606a819055606b55610f9e613210565b565b606a8054606b8054600093849055929055908115610fdc57606954606d54610fdc916001600160a01b0391821691620100009091041684613293565b801561100657606954606e54611006916001600160a01b0391821691620100009091041683613293565b5050565b60008060008085116110475760405162461bcd60e51b815260206004820152600660248201526506d696e7420360d41b60448201526064016108e1565b600061105260355490565b905060008061105f612692565b6071805460ff60601b1916600160601b179055606c5460408051633850c7bd60e01b815290519395509193506000926001600160a01b0390911691633850c7bd9160048083019260e09291908290030181865afa1580156110c4573d6000803e3d6000fd5b505050506040513d601f19601f820116820180604052508101906110e891906157c4565b50505050505090506000806110fb615131565b86156111325761110c868686612788565b9194509250905061111e838d896132fb565b995061112b828d896132fb565b985061114d565b6111478461113f8e613344565b8891906133b1565b909a5098505b891561116b57606d5461116b906001600160a01b031633308d6133e4565b881561118957606e54611189906001600160a01b031633308c6133e4565b60608101516001600160801b03161561122a5780516111a9908d896132fb565b815260208101516111bb908d896132fb565b6020820181905281516111d1918791879161341c565b97506111dd858961344d565b602083015280825261120d9085906111f5908d61573c565b6020840151611204908d61573c565b8992919061341c565b6112179089615879565b9750611223868961344d565b5050611245565b61123686858c8c61341c565b9750611242868961344d565b50505b61124f8b8d613510565b7f55801cfe493000b734571da1694b21e7f66b11e8ce9fdaa0524ecb59105e73e78b8d8c8c8c6040516112869594939291906158a4565b60405180910390a150506071805460ff60601b19169055509598949750929550929350505050565b606060378054610c9490615779565b6000806000806112cc60355490565b905080156112eb576112df8187876135d1565b919550935091506113b4565b60006112f5612692565b5090506000606c60009054906101000a90046001600160a01b03166001600160a01b0316633850c7bd6040518163ffffffff1660e01b815260040160e060405180830381865afa15801561134d573d6000803e3d6000fd5b505050506040513d601f19601f8201168201806040525081019061137191906157c4565b50505050505090506000611392828a8a8661341c909392919063ffffffff16565b6001600160801b038116955090506113ab8383836133b1565b90975095505050505b509250925092565b600033816113ca82866114f3565b90508381101561142a5760405162461bcd60e51b815260206004820152602560248201527f45524332303a2064656372656173656420616c6c6f77616e63652062656c6f77604482015264207a65726f60d81b60648201526084016108e1565b611437828686840361256e565b506001949350505050565b600033610d25818585612a34565b60008060008061145e612692565b91509150610dcf828287612788565b606c546001600160a01b031633146114b95760405162461bcd60e51b815260206004820152600f60248201526e31b0b6363130b1b59031b0b63632b960891b60448201526064016108e1565b83156114d657606d546114d6906001600160a01b03163386613293565b8215610f3d57606e54610f3d906001600160a01b03163385613293565b6001600160a01b03918216600090815260346020908152604080832093909416825291909152205490565b600054610100900460ff161580801561153e5750600054600160ff909116105b806115585750303b158015611558575060005460ff166001145b6115bb5760405162461bcd60e51b815260206004820152602e60248201527f496e697469616c697a61626c653a20636f6e747261637420697320616c72656160448201526d191e481a5b9a5d1a585b1a5e995960921b60648201526084016108e1565b6000805460ff1916600117905580156115de576000805461ff0019166101001790555b606c80546001600160a01b0319166001600160a01b03881690811790915560408051630dfe168160e01b81529051630dfe1681916004808201926020929091908290030181865afa158015611637573d6000803e3d6000fd5b505050506040513d601f19601f8201168201806040525081019061165b91906158db565b606d80546001600160a01b0319166001600160a01b03928316179055606c546040805163d21220a760e01b81529051919092169163d21220a79160048083019260209291908290030181865afa1580156116b9573d6000803e3d6000fd5b505050506040513d601f19601f820116820180604052508101906116dd91906158db565b606e80546001600160a01b0319166001600160a01b03928316179055606c54604080516334324e9f60e21b81529051919092169163d0c93a7c9160048083019260209291908290030181865afa15801561173b573d6000803e3d6000fd5b505050506040513d601f19601f8201168201806040525081019061175f91906158f8565b606e805462ffffff60a01b1916600160a01b62ffffff939093168302179081905561179391620d89e719910460020b6136f9565b606e805462ffffff92909216600160b81b0262ffffff60b81b199092169190911790556117d86117c6620d89e719615915565b606e54600160a01b900460020b613728565b606e601a6101000a81548162ffffff021916908360020b62ffffff160217905550336001600160a01b0316637da3e4636040518163ffffffff1660e01b8152600401602060405180830381865afa158015611837573d6000803e3d6000fd5b505050506040513d601f19601f8201168201806040525081019061185b91906158db565b607080546001600160a01b039283166001600160a01b031990911617905560658054606980549386166201000081026001600160b01b031995861661ffff8c1617179091556071805462ffffff89811663010000000265ffffffffffff19909216908b16171790559216909117601960a31b1790556118da8888613754565b801561191c576000805461ff0019169055604051600181527f7f26b83ff96e1f2b6a682f133852f6798a09c465da95921460cefb384740249890602001610c73565b5050505050505050565b60665460685461193c9163ffffffff1690615861565b42101561198b5760405162461bcd60e51b815260206004820152601a60248201527f74696d65207468726573686f6c64206e6f74207265616368656400000000000060448201526064016108e1565b606c546000906119a3906001600160a01b0316612bdf565b905060006119eb6127106067548460600151116119d15783606001516067546119cc919061573c565b6119e3565b60675484606001516119e3919061573c565b606754613785565b606554909150600160e01b900461ffff16811015611a445760405162461bcd60e51b81526020600482015260166024820152751a5d91195b1d18480f8f481a5d951a1c995cda1bdb1960521b60448201526064016108e1565b610f3d611a5361025842615861565b858585612d3a565b428311611abb5760405162461bcd60e51b815260206004820152602860248201527f61756374696f6e5472696767657254696d65203e2074696d6541744c617374526044820152676562616c616e636560c01b60648201526084016108e1565b6000611ac7844261573c565b607054606c549192506000916001600160a01b039182169163539183369116611af160b486615938565b6040516001600160e01b031960e085901b1681526001600160a01b03909216600483015263ffffffff908116602483015285166044820152606401602060405180830381865afa158015611b49573d6000803e3d6000fd5b505050506040513d601f19601f82011682018060405250810190611b6d91906158f8565b606c54909150600090611b88906001600160a01b0316612bdf565b9050606560199054906101000a900462ffffff1660020b611bb3826040015160020b8460020b612d18565b1215611c015760405162461bcd60e51b815260206004820152601a60248201527f7469636b44656c7461203e3d207469636b5468726573686f6c6400000000000060448201526064016108e1565b611c0d86868684612d3a565b505050505050565b33611c286065546001600160a01b031690565b6001600160a01b031614611c4e5760405162461bcd60e51b81526004016108e190615661565b6001600160a01b038116611cb55760405162461bcd60e51b815260206004820152602860248201527f4f776e61626c653a206e6577206d616e6167657220697320746865207a65726f604482015267206164647265737360c01b60648201526084016108e1565b6065546040516001600160a01b038084169216907f8be0079c531659141344cd1fd0a4f28419497f9722a3daafe3b4186f6b6457e090600090a3606580546001600160a01b0319166001600160a01b0392909216919091179055565b6000806000808511611d4e5760405162461bcd60e51b815260206004820152600660248201526506275726e20360d41b60448201526064016108e1565b6000611d5960355490565b9050600080611d66612692565b6071805460ff60601b1916600160601b17905590925090506000611d898361386f565b505050509050611d99338a613957565b611dc46040518060800160405280600081526020016000815260200160008152602001600081525090565b6000611dda8b846001600160801b031688613785565b9050611de581613344565b9650611df18588613a8b565b606086015260408086019190915260208086019290925291845285015190850151600291820b910b14611e9d57611e278461386f565b50929550611e4492508d9150506001600160801b03851688613785565b9050611e4f81613344565b611e599088615879565b9650600080611e68868a613a8b565b5050915091508184600001818151611e809190615861565b905250602084018051829190611e97908390615861565b90525050505b611eaf82604001518360600151613bf7565b611ec182604001518360600151613c65565b606084018190526040808501839052517fc28ad1de9c0c32e5394ba60323e44d8d9536312236a47231772e448a3e49de4292611f0592908252602082015260400190565b60405180910390a1606a548251606d546040516370a0823160e01b8152306004820152611f9e9392916001600160a01b0316906370a08231906024015b602060405180830381865afa158015611f5f573d6000803e3d6000fd5b505050506040513d601f19601f82011682018060405250810190611f839190615957565b611f8d919061573c565b611f97919061573c565b8c88613785565b8251611faa9190615861565b606b546020840151606e546040516370a0823160e01b8152306004820152939c50611fe9936001600160a01b03909116906370a0823190602401611f42565b8260200151611ff89190615861565b9750881561201757606d54612017906001600160a01b03168b8b613293565b871561203457606e54612034906001600160a01b03168b8a613293565b7f7239dff1718b550db7f36cbf69c665cfeb56d0e96b4fb76a5cba712961b655098a8c8b8b8b60405161206b9594939291906158a4565b60405180910390a150506071805460ff60601b191690555094979396509194509192505050565b60008061209d612692565b6071805460ff60601b1916600160601b179055909250905060006120c08361386f565b505050509050600080836040015160020b846020015160020b146122245760006120e98561386f565b5050505090506000806121058388613a8b90919063ffffffff16565b5050606a54606d546040516370a0823160e01b8152306004820152939550919350849290916001600160a01b0316906370a0823190602401602060405180830381865afa15801561215a573d6000803e3d6000fd5b505050506040513d601f19601f8201168201806040525081019061217e9190615957565b612188919061573c565b612192919061573c565b606b54606e546040516370a0823160e01b815230600482015292975083926001600160a01b03909116906370a0823190602401602060405180830381865afa1580156121e2573d6000803e3d6000fd5b505050506040513d601f19601f820116820180604052508101906122069190615957565b612210919061573c565b61221a919061573c565b935050505061231e565b606a54606d546040516370a0823160e01b81523060048201526001600160a01b03909116906370a0823190602401602060405180830381865afa15801561226f573d6000803e3d6000fd5b505050506040513d601f19601f820116820180604052508101906122939190615957565b61229d919061573c565b606b54606e546040516370a0823160e01b815230600482015292945090916001600160a01b03909116906370a0823190602401602060405180830381865afa1580156122ed573d6000803e3d6000fd5b505050506040513d601f19601f820116820180604052508101906123119190615957565b61231b919061573c565b90505b61232b8585858585613cd3565b60006123368661386f565b505050509050836001600160801b0316816001600160801b03161161239d5760405162461bcd60e51b815260206004820152601760248201527f6c6971756964697479206d75737420696e63726561736500000000000000000060448201526064016108e1565b6020868101516040808901518151600293840b8152920b928201929092526001600160801b03868116828401528316606082015290517f1de83c9f2274bb6e2f9e967f7286f9a66ddf025ea00e97d26a6d3ecfd4d67ed29181900360800190a150506071805460ff60601b1916905550505050565b60b581600160881b811061242b5760409190911b9060801c5b600160481b81106124415760209190911b9060401c5b6501000000000081106124595760109190911b9060201c5b6301000000811061246f5760089190911b9060101c5b62010000010260121c80820401600190811c80830401811c80830401811c80830401811c80830401811c80830401811c80830401901c908190048111900390565b6000838015612550576001841680156124cb578592506124cf565b8392505b508260011c8460011c94505b841561254a578560801c156124ef57600080fd5b8586028181018181101561250257600080fd5b859004965050600185161561253f57858302838782041461252857861561252857600080fd5b8181018181101561253857600080fd5b8590049350505b8460011c94506124db565b50612566565b8380156125605760009250612564565b8392505b505b509392505050565b6001600160a01b0383166125d05760405162461bcd60e51b8152602060048201526024808201527f45524332303a20617070726f76652066726f6d20746865207a65726f206164646044820152637265737360e01b60648201526084016108e1565b6001600160a01b0382166126315760405162461bcd60e51b815260206004820152602260248201527f45524332303a20617070726f766520746f20746865207a65726f206164647265604482015261737360f01b60648201526084016108e1565b6001600160a01b0383811660008181526034602090815260408083209487168084529482529182902085905590518481527f8c5be1e5ebec7d5bd14f71427d1e84f3dd0314c0f7b2291e5b200ac8c7c3b925910160405180910390a3505050565b604080516060810182526000808252602082018190529181019190915260408051606081018252600080825260208201819052918101919091526040805160a081018252607154600281810b835263010000008204810b6020840152600160301b8204810b93830193909352600160481b810490920b6060820152600160601b90910460ff16158015608083015261272957600080fd5b6040805160608082018352606c546001600160a01b03168083528451600290810b60208086019190915286810151820b858701528551808501875292835286860151820b90830152949091015190930b91830191909152939092509050565b600080612793615131565b61279c86613f65565b60008060006127aa8961386f565b6001600160801b03851660408a0181905294975090955093506127d2928c92508a91506133b1565b8096508197505050876020015160020b886040015160020b14612872576000806127fb8a61386f565b6001600160801b0390941660608b01819052909550929350612822928d92508c91506133b1565b602088015280875261283e906001600160801b03841690615861565b6128489089615861565b9750806001600160801b031686602001516128639190615861565b61286d9088615861565b965050505b6001600160801b0380831690821661288a8282613c65565b606a54606d546040516370a0823160e01b8152306004820152939550919350916001600160a01b03909116906370a0823190602401602060405180830381865afa1580156128dc573d6000803e3d6000fd5b505050506040513d601f19601f820116820180604052508101906129009190615957565b61290a9084615861565b612914919061573c565b61291e9089615861565b606b54606e546040516370a0823160e01b8152306004820152929a5090916001600160a01b03909116906370a0823190602401602060405180830381865afa15801561296e573d6000803e3d6000fd5b505050506040513d601f19601f820116820180604052508101906129929190615957565b61299c9083615861565b6129a6919061573c565b6129b09088615861565b9650505050505093509350939050565b60006129cc84846114f3565b90506000198114610f3d5781811015612a275760405162461bcd60e51b815260206004820152601d60248201527f45524332303a20696e73756666696369656e7420616c6c6f77616e636500000060448201526064016108e1565b610f3d848484840361256e565b6001600160a01b038316612a985760405162461bcd60e51b815260206004820152602560248201527f45524332303a207472616e736665722066726f6d20746865207a65726f206164604482015264647265737360d81b60648201526084016108e1565b6001600160a01b038216612afa5760405162461bcd60e51b815260206004820152602360248201527f45524332303a207472616e7366657220746f20746865207a65726f206164647260448201526265737360e81b60648201526084016108e1565b6001600160a01b03831660009081526033602052604090205481811015612b725760405162461bcd60e51b815260206004820152602660248201527f45524332303a207472616e7366657220616d6f756e7420657863656564732062604482015265616c616e636560d01b60648201526084016108e1565b6001600160a01b0380851660008181526033602052604080822086860390559286168082529083902080548601905591517fddf252ad1be2c89b69c2b068fc378daa952ba7f163c4a11628f55a4df523b3ef90612bd29086815260200190565b60405180910390a3610f3d565b604080516080810182526000808252602082018190529181018290526060810191909152816001600160a01b0316633850c7bd6040518163ffffffff1660e01b815260040160e060405180830381865afa158015612c41573d6000803e3d6000fd5b505050506040513d601f19601f82011682018060405250810190612c6591906157c4565b5050505060029190910b6040840152506001600160a01b0316808252612c909080600160601b613785565b6001600160e01b0316602082015260705460405163b168197d60e01b81526001600160a01b0384811660048301529091169063b168197d906024016020604051808303816000875af1158015612cea573d6000803e3d6000fd5b505050506040513d601f19601f82011682018060405250810190612d0e9190615957565b6060820152919050565b6000818313612d3057612d2b8383615970565b610dfb565b610dfb8284615970565b600080612d45612692565b6071805460ff60601b1916600160601b17905560408101516020820151929450909250600291820b910b14612d9e576000612d7f8261386f565b505050509050612d988183613a8b90919063ffffffff16565b50505050505b6000612da98361386f565b505050509050600080612dc58386613a8b90919063ffffffff16565b935093505050612dd58282613bf7565b612ddf8282613c65565b60408051838152602081018390529294509092507fc28ad1de9c0c32e5394ba60323e44d8d9536312236a47231772e448a3e49de42910160405180910390a16000612e2d8760600151614028565b6040880151606e54600292830b60011d9350612e57929184900391600160a01b909104900b613728565b600290810b60208801526040880151606e54612e809291840191600160a01b909104900b6136f9565b600290810b6040880152606e546020880151600160b81b909104820b910b1215612eb757606e54600160b81b900460020b60208701525b606e546040870151600160d01b909104600290810b91900b1315612ee857606e54600160d01b900460020b60408701525b6000806000612ef8898b8f6140b3565b9250925092508015612f81578b831015612f4d5760405162461bcd60e51b8152602060048201526016602482015275185b5bdd5b9d0c135a5b881b9bdd081c995858da195960521b60448201526064016108e1565b606d54612f64906001600160a01b03163385613293565b606e54612f7c906001600160a01b03163330856133e4565b612ff9565b8a821015612fca5760405162461bcd60e51b8152602060048201526016602482015275185b5bdd5b9d0c535a5b881b9bdd081c995858da195960521b60448201526064016108e1565b606e54612fe1906001600160a01b03163384613293565b606d54612ff9906001600160a01b03163330866133e4565b8951606a54606d546040516370a0823160e01b81523060048201526131099361310293909290916001600160a01b03909116906370a0823190602401602060405180830381865afa158015613052573d6000803e3d6000fd5b505050506040513d601f19601f820116820180604052508101906130769190615957565b613080919061573c565b606b54606e546040516370a0823160e01b81523060048201526001600160a01b03909116906370a0823190602401602060405180830381865afa1580156130cb573d6000803e3d6000fd5b505050506040513d601f19601f820116820180604052508101906130ef9190615957565b6130f9919061573c565b8d92919061341c565b8a9061344d565b50507ec24065589fd0add7f86688319979da2ca61b15b576eb1c030e28adde2447f060008e8b602001518c6040015187878760405161314e97969594939291906159af565b60405180910390a150506040805160a081018252602089810151600281810b84529a840151808c0b83850152918a0151808c0b848601529990930151998a900b606083015260006080909201919091526071805462ffffff93841665ffffffffffff1990911617630100000092841692909202919091176bffffffffffff0000000000001916600160301b9883169890980262ffffff60481b191697909717600160481b91909816029690961760ff60601b1916909455505050505050505050565b336132236065546001600160a01b031690565b6001600160a01b0316146132495760405162461bcd60e51b81526004016108e190615661565b6065546040516000916001600160a01b0316907f8be0079c531659141344cd1fd0a4f28419497f9722a3daafe3b4186f6b6457e0908390a3606580546001600160a01b0319169055565b6040516001600160a01b0383166024820152604481018290526132f690849063a9059cbb60e01b906064015b60408051601f198184030181529190526020810180516001600160e01b03166001600160e01b03199093169290921790915261432a565b505050565b6000613308848484613785565b90506000828061331a5761331a6156d8565b8486091115610dfb57600019811061333157600080fd5b8061333b81615a07565b95945050505050565b60006001600160801b038211156133ad5760405162461bcd60e51b815260206004820152602760248201527f53616665436173743a2076616c756520646f65736e27742066697420696e20316044820152663238206269747360c81b60648201526084016108e1565b5090565b6000806133d8846133c587602001516143fc565b6133d288604001516143fc565b86614742565b91509150935093915050565b6040516001600160a01b0380851660248301528316604482015260648101829052610f3d9085906323b872dd60e01b906084016132bf565b60006134438461342f87602001516143fc565b61343c88604001516143fc565b86866147de565b5095945050505050565b6000806001600160801b0383161561350957835160208501516040808701519051633c8a7d8d60e01b8152306004820152600292830b6024820152910b60448201526001600160801b038516606482015260a06084820152600060a48201526001600160a01b0390911690633c8a7d8d9060c40160408051808303816000875af11580156134df573d6000803e3d6000fd5b505050506040513d601f19601f820116820180604052508101906135039190615a22565b90925090505b9250929050565b6001600160a01b0382166135665760405162461bcd60e51b815260206004820152601f60248201527f45524332303a206d696e7420746f20746865207a65726f20616464726573730060448201526064016108e1565b80603560008282546135789190615861565b90915550506001600160a01b0382166000818152603360209081526040808320805486019055518481527fddf252ad1be2c89b69c2b068fc378daa952ba7f163c4a11628f55a4df523b3ef910160405180910390a35050565b60008060008060006135e1610d31565b915091508160001480156135f55750600081115b1561360c57613605868983613785565b92506136d4565b8015801561361a5750600082115b1561362a57613605878984613785565b81158015613636575080155b1561365d5760405162461bcd60e51b815260206004820152600060248201526044016108e1565b600061366a888a85613785565b90506000613679888b85613785565b905060008211801561368b5750600081115b6136c05760405162461bcd60e51b815260206004820152600660248201526506d696e7420360d41b60448201526064016108e1565b8082106136cd57806136cf565b815b945050505b6136df83838a6132fb565b94506136ec83828a6132fb565b9350505093509350939050565b6000806137068385615a46565b905060008160020b131561371f57830382019050610d2b565b90920392915050565b6000806137358385615a46565b905060008160020b1261374b5783039050610d2b565b90920303919050565b600054610100900460ff1661377b5760405162461bcd60e51b81526004016108e190615a68565b61100682826148af565b6000816137c15760405162461bcd60e51b815260206004820152600a602482015269044656e6f6d20213d20360b41b60448201526064016108e1565b60008060001985870985870292508281108382030391505080600014156137fa57600084116137ef57600080fd5b508290049050610dfb565b80841161380657600080fd5b60008486880960026001871981018816978890046003810283188082028403028082028403028082028403028082028403028082028403029081029092039091026000889003889004909101858311909403939093029303949094049190911702949350505050565b600080600080600085600001516001600160a01b031663514ea4bf30886020015189604001516040516020016138d09392919060609390931b6bffffffffffffffffffffffff1916835260e891821b6014840152901b6017820152601a0190565b604051602081830303815290604052805190602001206040518263ffffffff1660e01b815260040161390491815260200190565b60a060405180830381865afa158015613921573d6000803e3d6000fd5b505050506040513d601f19601f820116820180604052508101906139459190615aca565b939a9299509097509550909350915050565b6001600160a01b0382166139b75760405162461bcd60e51b815260206004820152602160248201527f45524332303a206275726e2066726f6d20746865207a65726f206164647265736044820152607360f81b60648201526084016108e1565b6001600160a01b03821660009081526033602052604090205481811015613a2b5760405162461bcd60e51b815260206004820152602260248201527f45524332303a206275726e20616d6f756e7420657863656564732062616c616e604482015261636560f01b60648201526084016108e1565b6001600160a01b03831660008181526033602090815260408083208686039055603580548790039055518581529192917fddf252ad1be2c89b69c2b068fc378daa952ba7f163c4a11628f55a4df523b3ef910160405180910390a3505050565b60008080806001600160801b03851615613b355785516020870151604080890151905163a34123a760e01b8152600292830b6004820152910b60248201526001600160801b03871660448201526001600160a01b039091169063a34123a79060640160408051808303816000875af1158015613b0b573d6000803e3d6000fd5b505050506040513d601f19601f82011682018060405250810190613b2f9190615a22565b90945092505b8551602087015160408089015190516309e3d67b60e31b8152306004820152600292830b6024820152910b60448201526001600160801b0360648201819052608482015260009182916001600160a01b0390911690634f1eb3d89060a40160408051808303816000875af1158015613bb1573d6000803e3d6000fd5b505050506040513d601f19601f82011682018060405250810190613bd59190615b21565b96999598506001600160801b039081168a900397509095168790039450505050565b60695461271090613c0c9061ffff16846156b9565b613c1691906156ee565b606a6000828254613c279190615861565b909155505060695461271090613c419061ffff16836156b9565b613c4b91906156ee565b606b6000828254613c5c9190615861565b90915550505050565b6069546000908190819061271090613c819061ffff16876156b9565b613c8b91906156ee565b60695490915060009061271090613ca69061ffff16876156b9565b613cb091906156ee565b9050613cbc828761573c565b9350613cc8818661573c565b925050509250929050565b600080613ce08786613a8b565b935093505050613cf08282613bf7565b613cfa8282613c65565b60408051838152602081018390529294509092507fc28ad1de9c0c32e5394ba60323e44d8d9536312236a47231772e448a3e49de42910160405180910390a1613d438483615861565b9150613d4f8382615861565b606554909150613d9190339061271090613d7490600160a01b900461ffff16866156b9565b613d7e91906156ee565b606d546001600160a01b03169190613293565b606554613dd090339061271090613db390600160a01b900461ffff16856156b9565b613dbd91906156ee565b606e546001600160a01b03169190613293565b606a54606d546040516370a0823160e01b81523060048201526001600160a01b03909116906370a0823190602401602060405180830381865afa158015613e1b573d6000803e3d6000fd5b505050506040513d601f19601f82011682018060405250810190613e3f9190615957565b613e49919061573c565b606b54606e546040516370a0823160e01b815230600482015292965090916001600160a01b03909116906370a0823190602401602060405180830381865afa158015613e99573d6000803e3d6000fd5b505050506040513d601f19601f82011682018060405250810190613ebd9190615957565b613ec7919061573c565b9250600080606c60009054906101000a90046001600160a01b03166001600160a01b0316633850c7bd6040518163ffffffff1660e01b815260040160e060405180830381865afa158015613f1f573d6000803e3d6000fd5b505050506040513d601f19601f82011682018060405250810190613f4391906157c4565b505050505091509150613f5a8989888886866148fd565b505050505050505050565b806040015160020b816020015160020b1415613f7e5750565b6000613f898261386f565b505050509050806001600160801b03166000146110065781516020830151604080850151905163a34123a760e01b8152600292830b6004820152910b6024820152600060448201526001600160a01b039091169063a34123a79060640160408051808303816000875af1158015614004573d6000803e3d6000fd5b505050506040513d601f19601f82011682018060405250810190610f3d9190615a22565b606f546000906001600160401b031682116140465750610192919050565b606f54600160501b90046001600160401b031682106140685750616c50919050565b606f5461408090600160401b900461ffff16836156b9565b91506000670de0b6b3a76400008390036503782dace9d960721b816140a7576140a76156d8565b049050610dfb81614a74565b606a54606d546040516370a0823160e01b8152306004820152600092839283928392916001600160a01b0316906370a0823190602401602060405180830381865afa158015614106573d6000803e3d6000fd5b505050506040513d601f19601f8201168201806040525081019061412a9190615957565b614134919061573c565b606b54606e546040516370a0823160e01b81523060048201529293506000926001600160a01b03909116906370a0823190602401602060405180830381865afa158015614185573d6000803e3d6000fd5b505050506040513d601f19601f820116820180604052508101906141a99190615957565b6141b3919061573c565b875190915060009081906141ca908b908686614dad565b8a5191935091506141dd908b90846133b1565b909750955060006102586141f18a4261573c565b101561422f5761421e6142048a4261573c565b61421261251c612904615b54565b61ffff16610258613785565b61422a90612904615b54565b614233565b6129045b905060008083156142b35761425c8c602001516001600160e01b03166127108561ffff16613785565b91506142836127108b6142748c600160601b87613785565b61427e908e615861565b613785565b905061429b6142928a8861573c565b82612710613785565b98506142ac89600160601b84613785565b995061431a565b600197506142d58c602001516001600160e01b03168461ffff16612710613785565b91506142f76127108a6142ed8d86600160601b613785565b61427e908d615861565b90506143066142928b8961573c565b99506143178a83600160601b613785565b98505b5050505050505093509350939050565b600061437f826040518060400160405280602081526020017f5361666545524332303a206c6f772d6c6576656c2063616c6c206661696c6564815250856001600160a01b0316614de29092919063ffffffff16565b8051909150156132f6578080602001905181019061439d9190615b77565b6132f65760405162461bcd60e51b815260206004820152602a60248201527f5361666545524332303a204552433230206f7065726174696f6e20646964206e6044820152691bdd081cdd58d8d9595960b21b60648201526084016108e1565b60008060008360020b12614413578260020b614420565b8260020b61442090615b92565b905061442f620d89e719615915565b62ffffff168111156144675760405162461bcd60e51b81526020600482015260016024820152601560fa1b60448201526064016108e1565b60006001821661447b57600160801b61448d565b6ffffcb933bd6fad37aa2d162d1a5940015b70ffffffffffffffffffffffffffffffffff16905060028216156144c1576ffff97272373d413259a46990580e213a0260801c5b60048216156144e0576ffff2e50f5f656932ef12357cf3c7fdcc0260801c5b60088216156144ff576fffe5caca7e10e4e61c3624eaa0941cd00260801c5b601082161561451e576fffcb9843d60f6159c9db58835c9266440260801c5b602082161561453d576fff973b41fa98c081472e6896dfb254c00260801c5b604082161561455c576fff2ea16466c96a3843ec78b326b528610260801c5b608082161561457b576ffe5dee046a99a2a811c461f1969c30530260801c5b61010082161561459b576ffcbe86c7900a88aedcffc83b479aa3a40260801c5b6102008216156145bb576ff987a7253ac413176f2b074cf7815e540260801c5b6104008216156145db576ff3392b0822b70005940c7a398e4b70f30260801c5b6108008216156145fb576fe7159475a2c29b7443b29c7fa6e889d90260801c5b61100082161561461b576fd097f3bdfd2022b8845ad8f792aa58250260801c5b61200082161561463b576fa9f746462d870fdf8a65dc1f90e061e50260801c5b61400082161561465b576f70d869a156d2a1b890bb3df62baf32f70260801c5b61800082161561467b576f31be135f97d08fd981231505542fcfa60260801c5b6201000082161561469c576f09aa508b5b7a84e1c677de54f3e99bc90260801c5b620200008216156146bc576e5d6af8dedb81196699c329225ee6040260801c5b620400008216156146db576d2216e584f5fa1ea926041bedfe980260801c5b620800008216156146f8576b048a170391f7dc42444e8fa20260801c5b60008460020b1315614719578060001981614715576147156156d8565b0490505b64010000000081061561472d576001614730565b60005b60ff16602082901c0192505050919050565b600080836001600160a01b0316856001600160a01b03161115614763579293925b846001600160a01b0316866001600160a01b03161161478e57614787858585614df9565b91506147d5565b836001600160a01b0316866001600160a01b031610156147c7576147b3868585614df9565b91506147c0858785614e6c565b90506147d5565b6147d2858585614e6c565b90505b94509492505050565b600080846001600160a01b0316866001600160a01b031611156147ff579394935b856001600160a01b0316876001600160a01b03161161482e57614823868686614eb6565b9150600190506148a5565b846001600160a01b0316876001600160a01b03161015614897576000614855888787614eb6565b90506000614864888a87614f20565b9050806001600160801b0316826001600160801b0316101561488c5781935060019250614890565b8093505b50506148a5565b6148a2868685614f20565b91505b9550959350505050565b600054610100900460ff166148d65760405162461bcd60e51b81526004016108e190615a68565b81516148e990603690602085019061516b565b5080516132f690603790602084019061516b565b60008061490c88858888614dad565b91509150816001600160801b031660001461494e5760008061492e8a8561344d565b909250905061493d828961573c565b9750614949818861573c565b965050505b60006001600160801b03831661496657858711614969565b81155b905080156149cf57606e54614989908590600160a01b900460020b6136f9565b600290810b60208a01819052606e546149ac92600160a01b909104900b90615baf565b60020b60408901526149c86149c18989614f56565b899061344d565b5050614a22565b606e546149e7908590600160a01b900460020b613728565b600290810b60408a01819052606e54614a0a92600160a01b909104900b90615bf6565b60020b6020890152614a1f6149c18988614f7b565b50505b50505060208501516071805460409097015162ffffff908116600160481b0262ffffff60481b1991909316600160301b02166bffffffffffff0000000000001990971696909617179094555050505050565b60006401000276a36001600160a01b03831610801590614ab0575073fffd8963efd1fc6a506488495d951d5263988d266001600160a01b038316105b614ae05760405162461bcd60e51b81526020600482015260016024820152602960f91b60448201526064016108e1565b640100000000600160c01b03602083901b166001600160801b03811160071b81811c6001600160401b03811160061b90811c63ffffffff811160051b90811c61ffff811160041b90811c60ff8111600390811b91821c600f811160021b90811c918211600190811b92831c97908811961790941790921717909117171760808110614b7a57614b70607f8261573c565b83901c9150614b8b565b614b8581607f61573c565b83901b91505b60006040614b9a608084615970565b901b9050828302607f1c92508260801c80603f1b8217915083811c935050828302607f1c92508260801c80603e1b8217915083811c935050828302607f1c92508260801c80603d1b8217915083811c935050828302607f1c92508260801c80603c1b8217915083811c935050828302607f1c92508260801c80603b1b8217915083811c935050828302607f1c92508260801c80603a1b8217915083811c935050828302607f1c92508260801c8060391b8217915083811c935050828302607f1c92508260801c8060381b8217915083811c935050828302607f1c92508260801c8060371b8217915083811c935050828302607f1c92508260801c8060361b8217915083811c935050828302607f1c92508260801c8060351b8217915083811c935050828302607f1c92508260801c8060341b8217915083811c935050828302607f1c92508260801c8060331b8217915083811c935050828302607f1c92508260801c8060321b8217915050600081693627a301d71055774c85614d1d9190615c3e565b905060006080614d3d6f028f6481ab7f045a5af012a19d003aaa84615970565b901d905060006080614d5f846fdb2df09e81959a81455e260799a0632f615cc3565b901d90508060020b8260020b14614d9e57886001600160a01b0316614d83826143fc565b6001600160a01b03161115614d985781614da0565b80614da0565b815b9998505050505050505050565b600080614dd585614dc188602001516143fc565b614dce89604001516143fc565b87876147de565b9150915094509492505050565b6060614df18484600085614fa0565b949350505050565b6000826001600160a01b0316846001600160a01b03161115614e19579192915b6001600160a01b038416614e626fffffffffffffffffffffffffffffffff60601b606085901b16614e4a8787615d04565b6001600160a01b0316866001600160a01b0316613785565b614df191906156ee565b6000826001600160a01b0316846001600160a01b03161115614e8c579192915b614df16001600160801b038316614ea38686615d04565b6001600160a01b0316600160601b613785565b6000826001600160a01b0316846001600160a01b03161115614ed6579192915b6000614ef9856001600160a01b0316856001600160a01b0316600160601b613785565b905061333b614f1b8483614f0d8989615d04565b6001600160a01b0316613785565b61507b565b6000826001600160a01b0316846001600160a01b03161115614f40579192915b614df1614f1b83600160601b614f0d8888615d04565b6000610dfb614f6884602001516143fc565b614f7585604001516143fc565b84614eb6565b6000610dfb614f8d84602001516143fc565b614f9a85604001516143fc565b84614f20565b6060824710156150015760405162461bcd60e51b815260206004820152602660248201527f416464726573733a20696e73756666696369656e742062616c616e636520666f6044820152651c8818d85b1b60d21b60648201526084016108e1565b600080866001600160a01b0316858760405161501d9190615d24565b60006040518083038185875af1925050503d806000811461505a576040519150601f19603f3d011682016040523d82523d6000602084013e61505f565b606091505b509150915061507087838387615096565b979650505050505050565b806001600160801b038116811461509157600080fd5b919050565b606083156151025782516150fb576001600160a01b0385163b6150fb5760405162461bcd60e51b815260206004820152601d60248201527f416464726573733a2063616c6c20746f206e6f6e2d636f6e747261637400000060448201526064016108e1565b5081614df1565b614df183838151156151175781518083602001fd5b8060405162461bcd60e51b81526004016108e19190615305565b6040518060800160405280600081526020016000815260200160006001600160801b0316815260200160006001600160801b031681525090565b82805461517790615779565b90600052602060002090601f01602090048101928261519957600085556151df565b82601f106151b257805160ff19168380011785556151df565b828001600101855582156151df579182015b828111156151df5782518255916020019190600101906151c4565b506133ad9291505b808211156133ad57600081556001016151e7565b8035600181900b811461509157600080fd5b6001600160a01b038116811461522257600080fd5b50565b8060020b811461522257600080fd5b600080600080600080600080610100898b03121561525157600080fd5b61525a896151fb565b9750602089013561526a8161520d565b965061527860408a016151fb565b9550606089013561528881615225565b9450608089013561529881615225565b93506152a660a08a016151fb565b925060c08901358060030b81146152bc57600080fd5b91506152ca60e08a016151fb565b90509295985092959890939650565b60005b838110156152f45781810151838201526020016152dc565b83811115610f3d5750506000910152565b60208152600082518060208401526153248160408501602087016152d9565b601f01601f19169190910160400192915050565b6000806040838503121561534b57600080fd5b82356153568161520d565b946020939093013593505050565b60008060006060848603121561537957600080fd5b83356153848161520d565b925060208401356153948161520d565b929592945050506040919091013590565b600080604083850312156153b857600080fd5b50508035926020909101359150565b6000602082840312156153d957600080fd5b8135610dfb8161520d565b600080604083850312156153f757600080fd5b8235915060208301356154098161520d565b809150509250929050565b6000806000806060858703121561542a57600080fd5b843593506020850135925060408501356001600160401b038082111561544f57600080fd5b818701915087601f83011261546357600080fd5b81358181111561547257600080fd5b88602082850101111561548457600080fd5b95989497505060200194505050565b600080604083850312156154a657600080fd5b82356154b18161520d565b915060208301356154098161520d565b634e487b7160e01b600052604160045260246000fd5b600082601f8301126154e857600080fd5b81356001600160401b0380821115615502576155026154c1565b604051601f8301601f19908116603f0116810190828211818310171561552a5761552a6154c1565b8160405283815286602085880101111561554357600080fd5b836020870160208301376000602085830101528094505050505092915050565b61ffff8116811461522257600080fd5b600080600080600080600060e0888a03121561558e57600080fd5b87356001600160401b03808211156155a557600080fd5b6155b18b838c016154d7565b985060208a01359150808211156155c757600080fd5b506155d48a828b016154d7565b96505060408801356155e58161520d565b945060608801356155f581615563565b9350608088013561560581615225565b925060a088013561561581615225565b915060c08801356156258161520d565b8091505092959891949750929550565b60008060006060848603121561564a57600080fd5b505081359360208301359350604090920135919050565b60208082526022908201527f4f776e61626c653a2063616c6c6572206973206e6f7420746865206d616e616760408201526132b960f11b606082015260800190565b634e487b7160e01b600052601160045260246000fd5b60008160001904831182151516156156d3576156d36156a3565b500290565b634e487b7160e01b600052601260045260246000fd5b6000826156fd576156fd6156d8565b500490565b60008160020b8360020b80615719576157196156d8565b627fffff19821460001982141615615733576157336156a3565b90059392505050565b60008282101561574e5761574e6156a3565b500390565b60006001600160401b038084168061576d5761576d6156d8565b92169190910492915050565b600181811c9082168061578d57607f821691505b602082108114156157ae57634e487b7160e01b600052602260045260246000fd5b50919050565b8051801515811461509157600080fd5b600080600080600080600060e0888a0312156157df57600080fd5b87516157ea8161520d565b60208901519097506157fb81615225565b604089015190965061580c81615563565b606089015190955061581d81615563565b608089015190945061582e81615563565b60a089015190935060ff8116811461584557600080fd5b915061585360c089016157b4565b905092959891949750929550565b60008219821115615874576158746156a3565b500190565b60006001600160801b0380831681851680830382111561589b5761589b6156a3565b01949350505050565b6001600160a01b039590951685526020850193909352604084019190915260608301526001600160801b0316608082015260a00190565b6000602082840312156158ed57600080fd5b8151610dfb8161520d565b60006020828403121561590a57600080fd5b8151610dfb81615225565b60008160020b627fffff1981141561592f5761592f6156a3565b60000392915050565b600063ffffffff80831681851680830382111561589b5761589b6156a3565b60006020828403121561596957600080fd5b5051919050565b60008083128015600160ff1b85018412161561598e5761598e6156a3565b6001600160ff1b03840183138116156159a9576159a96156a3565b50500390565b60e08101600389106159d157634e487b7160e01b600052602160045260246000fd5b9781526020810196909652600294850b60408701529290930b6060850152608084015260a0830191909152151560c09091015290565b6000600019821415615a1b57615a1b6156a3565b5060010190565b60008060408385031215615a3557600080fd5b505080516020909101519092909150565b60008260020b80615a5957615a596156d8565b808360020b0791505092915050565b6020808252602b908201527f496e697469616c697a61626c653a20636f6e7472616374206973206e6f74206960408201526a6e697469616c697a696e6760a81b606082015260800190565b80516001600160801b038116811461509157600080fd5b600080600080600060a08688031215615ae257600080fd5b615aeb86615ab3565b94506020860151935060408601519250615b0760608701615ab3565b9150615b1560808701615ab3565b90509295509295909350565b60008060408385031215615b3457600080fd5b615b3d83615ab3565b9150615b4b60208401615ab3565b90509250929050565b600061ffff83811690831681811015615b6f57615b6f6156a3565b039392505050565b600060208284031215615b8957600080fd5b610dfb826157b4565b6000600160ff1b821415615ba857615ba86156a3565b5060000390565b60008160020b8360020b6000821282627fffff03821381151615615bd557615bd56156a3565b82627fffff19038212811615615bed57615bed6156a3565b50019392505050565b60008160020b8360020b6000811281627fffff1901831281151615615c1d57615c1d6156a3565b81627fffff018313811615615c3457615c346156a3565b5090039392505050565b60006001600160ff1b0381841382841380821686840486111615615c6457615c646156a3565b600160ff1b6000871282811687830589121615615c8357615c836156a3565b60008712925087820587128484161615615c9f57615c9f6156a3565b87850587128184161615615cb557615cb56156a3565b505050929093029392505050565b600080821280156001600160ff1b0384900385131615615ce557615ce56156a3565b600160ff1b8390038412811615615cfe57615cfe6156a3565b50500190565b60006001600160a01b0383811690831681811015615b6f57615b6f6156a3565b60008251615d368184602087016152d9565b919091019291505056fea26469706673582212202ac514fdbb230ab199066d50f4b902517b11797b90450c0189be0ae1ccbf3ee364736f6c634300080a0033",
    "linkReferences": {}
  },
  "methodIdentifiers": {
    "A()": "f446c1d0",
    "AUCTION_TIME()": "e592301a",
    "B()": "32e7c5bf",
    "C()": "83dfe5fd",
    "MAX_PRICE_MULTIPLIER_BPS()": "da0c6a43",
    "MAX_TICK()": "6882a888",
    "MAX_WIDTH()": "c620033f",
    "MIN_PRICE_MULTIPLIER_BPS()": "778d9010",
    "MIN_TICK()": "a1634b14",
    "MIN_WIDTH()": "83db382d",
    "SpindleOracle()": "7da3e463",
    "TICK_SPACING()": "46ca626b",
    "TWAP_PERIOD()": "7ca25184",
    "allowance(address,address)": "dd62ed3e",
    "approve(address,uint256)": "095ea7b3",
    "balanceOf(address)": "70a08231",
    "burn(uint256,address)": "fcd3533c",
    "decimals()": "313ce567",
    "decreaseAllowance(address,uint256)": "a457c2d7",
    "getMintAmounts(uint256,uint256)": "9894f21a",
    "getUnderlyingBalances()": "1322d954",
    "getUnderlyingBalancesAtPrice(uint160)": "b670ed7d",
    "increaseAllowance(address,uint256)": "39509351",
    "initialize(string,string,address,uint16,int24,int24,address)": "e25e15e3",
    "ivAtLastRecenter()": "3111a6ec",
    "ivRecenter(uint256,uint256)": "ea299ee1",
    "ivThresholdBPS()": "75c7b115",
    "manager()": "481c6a75",
    "managerBalance0()": "065756db",
    "managerBalance1()": "42fb9d44",
    "managerFeeBPS()": "ccdf7a02",
    "managerTreasury()": "cc95353e",
    "minTickThreshold()": "58a392a4",
    "mint(uint256,address)": "94bf804d",
    "name()": "06fdde03",
    "packedSlot()": "da3848db",
    "pool()": "16f0115b",
    "reinvest()": "fdb5a03e",
    "reinvestBPS()": "2b7d950a",
    "renounceOwnership()": "715018a6",
    "symbol()": "95d89b41",
    "tickAtLastRecenter()": "b420684b",
    "tickRecenter(uint256,uint256,uint256)": "efa5a1dd",
    "tickThreshold()": "4524c4ab",
    "timeAtLastRecenter()": "642f10a2",
    "timeRecenter(uint256,uint256)": "51b7937d",
    "timeThreshold()": "87479487",
    "token0()": "0dfe1681",
    "token1()": "d21220a7",
    "totalSupply()": "18160ddd",
    "transfer(address,uint256)": "a9059cbb",
    "transferFrom(address,address,uint256)": "23b872dd",
    "transferOwnership(address)": "f2fde38b",
    "uniswapV3MintCallback(uint256,uint256,bytes)": "d3487997",
    "updateManagerParams(int16,address,int16,int24,int24,int16,int32,int16)": "03cdfa9c",
    "version()": "54fd4d50",
    "withdrawManagerBalance()": "7ecd6717"
  },
  "id": 24
}